{
  "contractName": "Lager",
  "abi": [
    {
      "anonymous": false,
      "inputs": [
        {
          "indexed": false,
          "internalType": "uint256",
          "name": "date",
          "type": "uint256"
        },
        {
          "indexed": false,
          "internalType": "bytes32",
          "name": "Hash",
          "type": "bytes32"
        }
      ],
      "name": "Store",
      "type": "event"
    },
    {
      "anonymous": false,
      "inputs": [
        {
          "indexed": false,
          "internalType": "uint256",
          "name": "date",
          "type": "uint256"
        },
        {
          "indexed": false,
          "internalType": "string",
          "name": "_SN",
          "type": "string"
        },
        {
          "indexed": false,
          "internalType": "string",
          "name": "tokenURI",
          "type": "string"
        }
      ],
      "name": "checkInEvent",
      "type": "event"
    },
    {
      "anonymous": false,
      "inputs": [
        {
          "indexed": false,
          "internalType": "uint256",
          "name": "date",
          "type": "uint256"
        },
        {
          "indexed": false,
          "internalType": "string",
          "name": "SN",
          "type": "string"
        }
      ],
      "name": "checkOutEvent",
      "type": "event"
    },
    {
      "inputs": [
        {
          "internalType": "address",
          "name": "",
          "type": "address"
        }
      ],
      "name": "filehash",
      "outputs": [
        {
          "internalType": "bytes32",
          "name": "",
          "type": "bytes32"
        }
      ],
      "stateMutability": "view",
      "type": "function",
      "constant": true
    },
    {
      "inputs": [
        {
          "internalType": "string",
          "name": "_timestamp",
          "type": "string"
        },
        {
          "internalType": "string",
          "name": "_temperature",
          "type": "string"
        },
        {
          "internalType": "string",
          "name": "_humidity",
          "type": "string"
        }
      ],
      "name": "storageData",
      "outputs": [
        {
          "internalType": "bytes32",
          "name": "",
          "type": "bytes32"
        }
      ],
      "stateMutability": "nonpayable",
      "type": "function"
    }
  ],
  "bytecode": "0x6080604052336000806101000a81548173ffffffffffffffffffffffffffffffffffffffff021916908373ffffffffffffffffffffffffffffffffffffffff16021790555034801561005057600080fd5b5061061c806100606000396000f3fe608060405234801561001057600080fd5b50600436106100365760003560e01c806314f3f5ff1461003b578063617464c11461006b575b600080fd5b61005560048036038101906100509190610346565b61009b565b604051610062919061045d565b60405180910390f35b6100856004803603810190610080919061031d565b610288565b604051610092919061045d565b60405180910390f35b60008060009054906101000a900473ffffffffffffffffffffffffffffffffffffffff1673ffffffffffffffffffffffffffffffffffffffff163373ffffffffffffffffffffffffffffffffffffffff16146100f657600080fd5b83838360405160200161010b9392919061042c565b60405160208183030381529060405280519060200120600160008060009054906101000a900473ffffffffffffffffffffffffffffffffffffffff1673ffffffffffffffffffffffffffffffffffffffff1673ffffffffffffffffffffffffffffffffffffffff168152602001908152602001600020819055507f7eee1853f87786400a9ba8c05cf99e654d9cbae5b2433d28604a0632b55b524e42600160008060009054906101000a900473ffffffffffffffffffffffffffffffffffffffff1673ffffffffffffffffffffffffffffffffffffffff1673ffffffffffffffffffffffffffffffffffffffff16815260200190815260200160002054604051610216929190610478565b60405180910390a1600160008060009054906101000a900473ffffffffffffffffffffffffffffffffffffffff1673ffffffffffffffffffffffffffffffffffffffff1673ffffffffffffffffffffffffffffffffffffffff1681526020019081526020016000205490509392505050565b60016020528060005260406000206000915090505481565b60006102b36102ae846104d2565b6104a1565b9050828152602081018484840111156102cb57600080fd5b6102d684828561055e565b509392505050565b6000813590506102ed816105cf565b92915050565b600082601f83011261030457600080fd5b81356103148482602086016102a0565b91505092915050565b60006020828403121561032f57600080fd5b600061033d848285016102de565b91505092915050565b60008060006060848603121561035b57600080fd5b600084013567ffffffffffffffff81111561037557600080fd5b610381868287016102f3565b935050602084013567ffffffffffffffff81111561039e57600080fd5b6103aa868287016102f3565b925050604084013567ffffffffffffffff8111156103c757600080fd5b6103d3868287016102f3565b9150509250925092565b6103e68161052a565b82525050565b60006103f782610502565b610401818561050d565b935061041181856020860161056d565b80840191505092915050565b61042681610554565b82525050565b600061043882866103ec565b915061044482856103ec565b915061045082846103ec565b9150819050949350505050565b600060208201905061047260008301846103dd565b92915050565b600060408201905061048d600083018561041d565b61049a60208301846103dd565b9392505050565b6000604051905081810181811067ffffffffffffffff821117156104c8576104c76105a0565b5b8060405250919050565b600067ffffffffffffffff8211156104ed576104ec6105a0565b5b601f19601f8301169050602081019050919050565b600081519050919050565b600081905092915050565b600061052382610534565b9050919050565b6000819050919050565b600073ffffffffffffffffffffffffffffffffffffffff82169050919050565b6000819050919050565b82818337600083830152505050565b60005b8381101561058b578082015181840152602081019050610570565b8381111561059a576000848401525b50505050565b7f4e487b7100000000000000000000000000000000000000000000000000000000600052604160045260246000fd5b6105d881610518565b81146105e357600080fd5b5056fea2646970667358221220a384fb79f38ed0bb95440d045b6a3c22ef2810ab036a5d2601d3e2caae83a61364736f6c63430008000033",
  "immutableReferences": {},
  "source": "// SPDX-License-Identifier: MIT\r\npragma solidity >=0.8.0;\r\n\r\ncontract Lager{\r\n\r\n    \r\n    address admin = msg.sender;\r\n\r\n\r\n    \r\n    //definir les variables dont on a besoin:\r\n    mapping (address => bytes32) public filehash;\r\n\r\n    \r\n    // event qui nous permettra d'obtenir nos Hash et le temps \r\n    event Store (uint date, bytes32 Hash);\r\n    event checkInEvent(uint date,string _SN, string tokenURI);\r\n    event checkOutEvent(uint date, string SN);\r\n    \r\n    //la fonction qui sera appeler pour sauvegarder les Hash\r\n    function storageData ( \r\n        string memory _timestamp,\r\n        string memory _temperature,\r\n        string memory _humidity) external onlyAdmin returns (bytes32 ){\r\n        filehash[admin] = keccak256(abi.encodePacked(_timestamp,_temperature,_humidity));\r\n        emit Store(block.timestamp, filehash[admin]);\r\n        return filehash[admin];\r\n    }\r\n    \r\n            \r\n    modifier onlyAdmin {\r\n      require(msg.sender == admin);\r\n      _;\r\n   }\r\n\r\n\r\n}",
  "sourcePath": "C:\\Users\\Alex\\Documents\\Test\\Repos\\Dapp\\Wine_NFTs_Dapp\\contracts\\Lager.sol",
  "compiler": {
    "name": "solc",
    "version": "0.8.0+commit.c7dfd78e.Emscripten.clang"
  },
  "schemaVersion": "3.4.3",
  "updatedAt": "2021-10-03T19:24:57.709Z",
  "networkType": "ethereum",
  "devdoc": {
    "kind": "dev",
    "methods": {},
    "version": 1
  },
  "userdoc": {
    "kind": "user",
    "methods": {},
    "version": 1
  }
}