{
  "contractName": "Lager",
  "abi": [
    {
      "inputs": [
        {
          "internalType": "address",
          "name": "addNFT",
          "type": "address"
        },
        {
          "internalType": "address",
          "name": "_sensor",
          "type": "address"
        }
      ],
      "stateMutability": "nonpayable",
      "type": "constructor"
    },
    {
      "anonymous": false,
      "inputs": [
        {
          "indexed": false,
          "internalType": "uint256",
          "name": "date",
          "type": "uint256"
        },
        {
          "indexed": false,
          "internalType": "uint256",
          "name": "_lagerId",
          "type": "uint256"
        },
        {
          "indexed": false,
          "internalType": "string",
          "name": "_Udi",
          "type": "string"
        }
      ],
      "name": "checkIOutevent",
      "type": "event"
    },
    {
      "anonymous": false,
      "inputs": [
        {
          "indexed": false,
          "internalType": "uint256",
          "name": "date",
          "type": "uint256"
        },
        {
          "indexed": false,
          "internalType": "uint256",
          "name": "_lagerId",
          "type": "uint256"
        },
        {
          "indexed": false,
          "internalType": "string",
          "name": "_Udi",
          "type": "string"
        }
      ],
      "name": "checkInevent",
      "type": "event"
    },
    {
      "anonymous": false,
      "inputs": [
        {
          "indexed": false,
          "internalType": "uint256",
          "name": "date",
          "type": "uint256"
        },
        {
          "indexed": false,
          "internalType": "uint256",
          "name": "_lagerId",
          "type": "uint256"
        },
        {
          "indexed": false,
          "internalType": "string",
          "name": "_location",
          "type": "string"
        }
      ],
      "name": "newLagerEvent",
      "type": "event"
    },
    {
      "inputs": [
        {
          "internalType": "uint256",
          "name": "",
          "type": "uint256"
        },
        {
          "internalType": "uint256",
          "name": "",
          "type": "uint256"
        }
      ],
      "name": "Data",
      "outputs": [
        {
          "internalType": "uint256",
          "name": "time",
          "type": "uint256"
        },
        {
          "internalType": "string",
          "name": "Udi",
          "type": "string"
        }
      ],
      "stateMutability": "view",
      "type": "function",
      "constant": true
    },
    {
      "inputs": [
        {
          "internalType": "uint256",
          "name": "",
          "type": "uint256"
        }
      ],
      "name": "bottles",
      "outputs": [
        {
          "internalType": "uint256",
          "name": "time",
          "type": "uint256"
        },
        {
          "internalType": "string",
          "name": "Udi",
          "type": "string"
        }
      ],
      "stateMutability": "view",
      "type": "function",
      "constant": true
    },
    {
      "inputs": [
        {
          "internalType": "uint256",
          "name": "",
          "type": "uint256"
        }
      ],
      "name": "lager",
      "outputs": [
        {
          "internalType": "uint256",
          "name": "lagerId",
          "type": "uint256"
        },
        {
          "internalType": "string",
          "name": "location",
          "type": "string"
        }
      ],
      "stateMutability": "view",
      "type": "function",
      "constant": true
    },
    {
      "inputs": [
        {
          "internalType": "uint256",
          "name": "_lagerId",
          "type": "uint256"
        },
        {
          "internalType": "string",
          "name": "_Udi",
          "type": "string"
        }
      ],
      "name": "checkIn",
      "outputs": [
        {
          "internalType": "bool",
          "name": "r",
          "type": "bool"
        }
      ],
      "stateMutability": "nonpayable",
      "type": "function"
    },
    {
      "inputs": [
        {
          "internalType": "uint256",
          "name": "_lagerId",
          "type": "uint256"
        },
        {
          "internalType": "string",
          "name": "_Udi",
          "type": "string"
        }
      ],
      "name": "checkOut",
      "outputs": [
        {
          "internalType": "bool",
          "name": "r",
          "type": "bool"
        }
      ],
      "stateMutability": "nonpayable",
      "type": "function"
    },
    {
      "inputs": [
        {
          "internalType": "uint256",
          "name": "_lagerId",
          "type": "uint256"
        },
        {
          "internalType": "string",
          "name": "location",
          "type": "string"
        }
      ],
      "name": "newLager",
      "outputs": [
        {
          "internalType": "bool",
          "name": "",
          "type": "bool"
        }
      ],
      "stateMutability": "nonpayable",
      "type": "function"
    },
    {
      "inputs": [],
      "name": "getBottles",
      "outputs": [
        {
          "components": [
            {
              "internalType": "uint256",
              "name": "time",
              "type": "uint256"
            },
            {
              "internalType": "string",
              "name": "Udi",
              "type": "string"
            }
          ],
          "internalType": "struct Lager.Bottle[]",
          "name": "",
          "type": "tuple[]"
        }
      ],
      "stateMutability": "view",
      "type": "function",
      "constant": true
    },
    {
      "inputs": [
        {
          "internalType": "uint256",
          "name": "_lagerId",
          "type": "uint256"
        },
        {
          "internalType": "uint256",
          "name": "_sensorId",
          "type": "uint256"
        },
        {
          "internalType": "string",
          "name": "_name",
          "type": "string"
        }
      ],
      "name": "newSensor",
      "outputs": [
        {
          "internalType": "bool",
          "name": "r",
          "type": "bool"
        }
      ],
      "stateMutability": "nonpayable",
      "type": "function"
    },
    {
      "inputs": [
        {
          "internalType": "string",
          "name": "_date",
          "type": "string"
        },
        {
          "internalType": "string",
          "name": "_hash",
          "type": "string"
        },
        {
          "internalType": "uint256",
          "name": "_sensorId",
          "type": "uint256"
        }
      ],
      "name": "save_sensor_data",
      "outputs": [
        {
          "internalType": "bytes32",
          "name": "r",
          "type": "bytes32"
        }
      ],
      "stateMutability": "nonpayable",
      "type": "function"
    },
    {
      "inputs": [
        {
          "internalType": "string",
          "name": "_date",
          "type": "string"
        }
      ],
      "name": "get_sendor_data",
      "outputs": [
        {
          "internalType": "bytes32",
          "name": "r",
          "type": "bytes32"
        }
      ],
      "stateMutability": "view",
      "type": "function",
      "constant": true
    }
  ],
  "bytecode": "0x6080604052336000806101000a81548173ffffffffffffffffffffffffffffffffffffffff021916908373ffffffffffffffffffffffffffffffffffffffff16021790555060006004553480156200005657600080fd5b50604051620026ef380380620026ef83398181016040528101906200007c91906200011d565b81600160006101000a81548173ffffffffffffffffffffffffffffffffffffffff021916908373ffffffffffffffffffffffffffffffffffffffff16021790555080600260006101000a81548173ffffffffffffffffffffffffffffffffffffffff021916908373ffffffffffffffffffffffffffffffffffffffff1602179055505050620001ac565b600081519050620001178162000192565b92915050565b600080604083850312156200013157600080fd5b6000620001418582860162000106565b9250506020620001548582860162000106565b9150509250929050565b60006200016b8262000172565b9050919050565b600073ffffffffffffffffffffffffffffffffffffffff82169050919050565b6200019d816200015e565b8114620001a957600080fd5b50565b61253380620001bc6000396000f3fe608060405234801561001057600080fd5b506004361061009e5760003560e01c8063c6f1b06f11610066578063c6f1b06f14610182578063c7232757146101b2578063d6a34abf146101e2578063dac6971a14610212578063deceb300146102435761009e565b806338874e24146100a35780633a37f087146100c15780635adf3074146100f257806367deced214610122578063b769d49514610152575b600080fd5b6100ab610274565b6040516100b89190611f51565b60405180910390f35b6100db60048036038101906100d69190611951565b61036f565b6040516100e992919061215e565b60405180910390f35b61010c60048036038101906101079190611891565b61042b565b6040516101199190611f8e565b60405180910390f35b61013c6004803603810190610137919061197a565b6104df565b6040516101499190611f73565b60405180910390f35b61016c600480360381019061016791906118d2565b61085b565b6040516101799190611f8e565b60405180910390f35b61019c6004803603810190610197919061197a565b610917565b6040516101a99190611f73565b60405180910390f35b6101cc60048036038101906101c79190611a0a565b610a78565b6040516101d99190611f73565b60405180910390f35b6101fc60048036038101906101f7919061197a565b610b9c565b6040516102099190611f73565b60405180910390f35b61022c60048036038101906102279190611951565b6112b7565b60405161023a92919061215e565b60405180910390f35b61025d600480360381019061025891906119ce565b611373565b60405161026b92919061215e565b60405180910390f35b60606003805480602002602001604051908101604052809291908181526020016000905b828210156103665783829060005260206000209060020201604051806040016040529081600082015481526020016001820180546102d59061239f565b80601f01602080910402602001604051908101604052809291908181526020018280546103019061239f565b801561034e5780601f106103235761010080835404028352916020019161034e565b820191906000526020600020905b81548152906001019060200180831161033157829003601f168201915b50505050508152505081526020019060010190610298565b50505050905090565b6005818154811061037f57600080fd5b90600052602060002090600202016000915090508060000154908060010180546103a89061239f565b80601f01602080910402602001604051908101604052809291908181526020018280546103d49061239f565b80156104215780601f106103f657610100808354040283529160200191610421565b820191906000526020600020905b81548152906001019060200180831161040457829003601f168201915b5050505050905082565b6000600260009054906101000a900473ffffffffffffffffffffffffffffffffffffffff1673ffffffffffffffffffffffffffffffffffffffff1663eb951864836040518263ffffffff1660e01b81526004016104889190611fa9565b60206040518083038186803b1580156104a057600080fd5b505afa1580156104b4573d6000803e3d6000fd5b505050506040513d601f19601f820116820180604052508101906104d89190611868565b9050919050565b6000600115156007600085815260200190815260200160002060009054906101000a900460ff16151514610548576040517f08c379a000000000000000000000000000000000000000000000000000000000815260040161053f906120be565b60405180910390fd5b6000151560088360405161055c9190611f3a565b908152602001604051809103902060009054906101000a900460ff161515146105ba576040517f08c379a00000000000000000000000000000000000000000000000000000000081526004016105b19061209e565b60405180910390fd5b60011515600160009054906101000a900473ffffffffffffffffffffffffffffffffffffffff1673ffffffffffffffffffffffffffffffffffffffff1663cf9faa3c846040518263ffffffff1660e01b81526004016106199190611fa9565b60206040518083038186803b15801561063157600080fd5b505afa158015610645573d6000803e3d6000fd5b505050506040513d601f19601f82011682018060405250810190610669919061183f565b1515146106ab576040517f08c379a00000000000000000000000000000000000000000000000000000000081526004016106a29061213e565b60405180910390fd5b6000905060006106ba8461142c565b9050600042905060036040518060400160405280838152602001868152509080600181540180825580915050600190039060005260206000209060020201600090919091909150600082015181600001556020820151816001019080519060200190610727929190611628565b505050600360045481548110610766577f4e487b7100000000000000000000000000000000000000000000000000000000600052603260045260246000fd5b90600052602060002090600202016006600087815260200190815260200160002060008481526020019081526020016000206000820154816000015560018201816001019080546107b69061239f565b6107c19291906116ae565b50905050600460008154809291906107d8906123d1565b919050555060016008856040516107ef9190611f3a565b908152602001604051809103902060006101000a81548160ff021916908315150217905550600192507fa4051cd7d12b1da387f0ff315116380fa3568ae4b5c18127b2a4fa556e38894181868660405161084b9392919061218e565b60405180910390a1505092915050565b6000600260009054906101000a900473ffffffffffffffffffffffffffffffffffffffff1673ffffffffffffffffffffffffffffffffffffffff16631ca8d8cb8585856040518463ffffffff1660e01b81526004016108bc93929190611fcb565b602060405180830381600087803b1580156108d657600080fd5b505af11580156108ea573d6000803e3d6000fd5b505050506040513d601f19601f8201168201806040525081019061090e9190611868565b90509392505050565b60008015156007600085815260200190815260200160002060009054906101000a900460ff1615151461097f576040517f08c379a00000000000000000000000000000000000000000000000000000000081526004016109769061207e565b60405180910390fd5b600560405180604001604052808581526020018481525090806001815401808255809150506001900390600052602060002090600202016000909190919091506000820151816000015560208201518160010190805190602001906109e5929190611628565b50505060016007600085815260200190815260200160002060006101000a81548160ff0219169083151502179055507f259a27824d7a1e48c32562138e08888a3d98d24ebc5d57962bd04a0c497980e6428484604051610a479392919061218e565b60405180910390a16007600084815260200190815260200160002060009054906101000a900460ff16905092915050565b6000600115156007600086815260200190815260200160002060009054906101000a900460ff16151514610ae1576040517f08c379a0000000000000000000000000000000000000000000000000000000008152600401610ad89061211e565b60405180910390fd5b600260009054906101000a900473ffffffffffffffffffffffffffffffffffffffff1673ffffffffffffffffffffffffffffffffffffffff166353016f2b84846040518363ffffffff1660e01b8152600401610b3e92919061215e565b602060405180830381600087803b158015610b5857600080fd5b505af1158015610b6c573d6000803e3d6000fd5b505050506040513d601f19601f82011682018060405250810190610b90919061183f565b50600190509392505050565b6000600115156007600085815260200190815260200160002060009054906101000a900460ff16151514610c05576040517f08c379a0000000000000000000000000000000000000000000000000000000008152600401610bfc906120fe565b60405180910390fd5b60011515600883604051610c199190611f3a565b908152602001604051809103902060009054906101000a900460ff16151514610c77576040517f08c379a0000000000000000000000000000000000000000000000000000000008152600401610c6e906120de565b60405180910390fd5b600090506000806000905060005b6003805490508110156112ae57600160009054906101000a900473ffffffffffffffffffffffffffffffffffffffff1673ffffffffffffffffffffffffffffffffffffffff166345717f2860038381548110610d0a577f4e487b7100000000000000000000000000000000000000000000000000000000600052603260045260246000fd5b9060005260206000209060020201600101876040518363ffffffff1660e01b8152600401610d39929190612010565b60206040518083038186803b158015610d5157600080fd5b505afa158015610d65573d6000803e3d6000fd5b505050506040513d601f19601f82011682018060405250810190610d89919061183f565b1561129b57610d978661142c565b915060005b828110156110c657600160009054906101000a900473ffffffffffffffffffffffffffffffffffffffff1673ffffffffffffffffffffffffffffffffffffffff166345717f28600660008a8152602001908152602001600020600084815260200190815260200160002060010160038581548110610e43577f4e487b7100000000000000000000000000000000000000000000000000000000600052603260045260246000fd5b90600052602060002090600202016001016040518363ffffffff1660e01b8152600401610e71929190612047565b60206040518083038186803b158015610e8957600080fd5b505afa158015610e9d573d6000803e3d6000fd5b505050506040513d601f19601f82011682018060405250810190610ec1919061183f565b156110b357600183610ed39190612309565b9350600660008881526020019081526020016000206000858152602001908152602001600020600660008981526020019081526020016000206000858152602001908152602001600020600082015481600001556001820181600101908054610f3b9061239f565b610f469291906116ae565b50905050600660008881526020019081526020016000206000828152602001908152602001600020600660008981526020019081526020016000206000868152602001908152602001600020600082015481600001556001820181600101908054610fb09061239f565b610fbb9291906116ae565b509050506006600088815260200190815260200160002060008481526020019081526020016000206006600089815260200190815260200160002060008381526020019081526020016000206000820154816000015560018201816001019080546110259061239f565b6110309291906116ae565b50905050600660008881526020019081526020016000206000848152602001908152602001600020600080820160009055600182016000611071919061173b565b50506006600088815260200190815260200160002060008581526020019081526020016000206000808201600090556001820160006110b0919061173b565b50505b80806110be906123d1565b915050610d9c565b5060008190505b60016003805490506110df9190612309565b8110156111c25760036001826110f591906122b3565b8154811061112c577f4e487b7100000000000000000000000000000000000000000000000000000000600052603260045260246000fd5b906000526020600020906002020160038281548110611174577f4e487b7100000000000000000000000000000000000000000000000000000000600052603260045260246000fd5b90600052602060002090600202016000820154816000015560018201816001019080546111a09061239f565b6111ab9291906116ae565b5090505080806111ba906123d1565b9150506110cd565b5060038054806111fb577f4e487b7100000000000000000000000000000000000000000000000000000000600052603160045260246000fd5b6001900381819060005260206000209060020201600080820160009055600182016000611228919061173b565b50509055600015156008866040516112409190611f3a565b908152602001604051809103902060009054906101000a905050507fbe74d4fe6a40e454f148d77dbcbdf96dd212069cef0ac0ba3036eee12444071142878760405161128e9392919061218e565b60405180910390a1600193505b80806112a6906123d1565b915050610c85565b50505092915050565b600381815481106112c757600080fd5b90600052602060002090600202016000915090508060000154908060010180546112f09061239f565b80601f016020809104026020016040519081016040528092919081815260200182805461131c9061239f565b80156113695780601f1061133e57610100808354040283529160200191611369565b820191906000526020600020905b81548152906001019060200180831161134c57829003601f168201915b5050505050905082565b6006602052816000526040600020602052806000526040600020600091509150508060000154908060010180546113a99061239f565b80601f01602080910402602001604051908101604052809291908181526020018280546113d59061239f565b80156114225780601f106113f757610100808354040283529160200191611422565b820191906000526020600020905b81548152906001019060200180831161140557829003601f168201915b5050505050905082565b6000805b6003805490508110156116225760005b60038054905081101561160e5760038181548110611487577f4e487b7100000000000000000000000000000000000000000000000000000000600052603260045260246000fd5b906000526020600020906002020160000154600660008681526020019081526020016000206000848152602001908152602001600020600001541480156115e75750600160009054906101000a900473ffffffffffffffffffffffffffffffffffffffff1673ffffffffffffffffffffffffffffffffffffffff166345717f2860066000878152602001908152602001600020600085815260200190815260200160002060010160038481548110611568577f4e487b7100000000000000000000000000000000000000000000000000000000600052603260045260246000fd5b90600052602060002090600202016001016040518363ffffffff1660e01b8152600401611596929190612047565b60206040518083038186803b1580156115ae57600080fd5b505afa1580156115c2573d6000803e3d6000fd5b505050506040513d601f19601f820116820180604052508101906115e6919061183f565b5b156115fb5782806115f7906123d1565b9350505b8080611606906123d1565b915050611440565b50808061161a906123d1565b915050611430565b50919050565b8280546116349061239f565b90600052602060002090601f016020900481019282611656576000855561169d565b82601f1061166f57805160ff191683800117855561169d565b8280016001018555821561169d579182015b8281111561169c578251825591602001919060010190611681565b5b5090506116aa919061177b565b5090565b8280546116ba9061239f565b90600052602060002090601f0160209004810192826116dc576000855561172a565b82601f106116ed578054855561172a565b8280016001018555821561172a57600052602060002091601f016020900482015b8281111561172957825482559160010191906001019061170e565b5b509050611737919061177b565b5090565b5080546117479061239f565b6000825580601f106117595750611778565b601f016020900490600052602060002090810190611777919061177b565b5b50565b5b8082111561179457600081600090555060010161177c565b5090565b60006117ab6117a6846121fd565b6121cc565b9050828152602081018484840111156117c357600080fd5b6117ce84828561235d565b509392505050565b6000815190506117e5816124b8565b92915050565b6000815190506117fa816124cf565b92915050565b600082601f83011261181157600080fd5b8135611821848260208601611798565b91505092915050565b600081359050611839816124e6565b92915050565b60006020828403121561185157600080fd5b600061185f848285016117d6565b91505092915050565b60006020828403121561187a57600080fd5b6000611888848285016117eb565b91505092915050565b6000602082840312156118a357600080fd5b600082013567ffffffffffffffff8111156118bd57600080fd5b6118c984828501611800565b91505092915050565b6000806000606084860312156118e757600080fd5b600084013567ffffffffffffffff81111561190157600080fd5b61190d86828701611800565b935050602084013567ffffffffffffffff81111561192a57600080fd5b61193686828701611800565b92505060406119478682870161182a565b9150509250925092565b60006020828403121561196357600080fd5b60006119718482850161182a565b91505092915050565b6000806040838503121561198d57600080fd5b600061199b8582860161182a565b925050602083013567ffffffffffffffff8111156119b857600080fd5b6119c485828601611800565b9150509250929050565b600080604083850312156119e157600080fd5b60006119ef8582860161182a565b9250506020611a008582860161182a565b9150509250929050565b600080600060608486031215611a1f57600080fd5b6000611a2d8682870161182a565b9350506020611a3e8682870161182a565b925050604084013567ffffffffffffffff811115611a5b57600080fd5b611a6786828701611800565b9150509250925092565b6000611a7d8383611edf565b905092915050565b6000611a9082612252565b611a9a8185612275565b935083602082028501611aac8561222d565b8060005b85811015611ae85784840389528151611ac98582611a71565b9450611ad483612268565b925060208a01995050600181019050611ab0565b50829750879550505050505092915050565b611b038161233d565b82525050565b611b1281612349565b82525050565b6000611b238261225d565b611b2d8185612286565b9350611b3d81856020860161236c565b611b46816124a7565b840191505092915050565b6000611b5c8261225d565b611b668185612297565b9350611b7681856020860161236c565b611b7f816124a7565b840191505092915050565b6000611b958261225d565b611b9f81856122a8565b9350611baf81856020860161236c565b80840191505092915050565b60008154611bc88161239f565b611bd28186612297565b94506001821660008114611bed5760018114611bff57611c32565b60ff1983168652602086019350611c32565b611c088561223d565b60005b83811015611c2a57815481890152600182019150602081019050611c0b565b808801955050505b50505092915050565b6000611c48602483612297565b91507f776520616c726561647920686176652061206c6167657220776974682074686960008301527f73204944000000000000000000000000000000000000000000000000000000006020830152604082019050919050565b6000611cae602483612297565b91507f5468697320626f74746c65206973206e6f7420666f756e6420666f722063686560008301527f636b696e000000000000000000000000000000000000000000000000000000006020830152604082019050919050565b6000611d14601683612297565b91507f74686973206c61676572206469642774206578697374000000000000000000006000830152602082019050919050565b6000611d54602583612297565b91507f5468697320626f74746c65206973206e6f7420666f756e6420666f722063686560008301527f636b6f75740000000000000000000000000000000000000000000000000000006020830152604082019050919050565b6000611dba602283612297565b91507f776520646f6e277420686176652061206c61676572207769746820746869732060008301527f49440000000000000000000000000000000000000000000000000000000000006020830152604082019050919050565b6000611e20602483612297565b91507f776520646f6e277420686176652061206c61676572207769746820746869732060008301527f6e616d65000000000000000000000000000000000000000000000000000000006020830152604082019050919050565b6000611e86602583612297565b91507f6120626f74746c652077697468207468697320556469206973206e6f7420617660008301527f6961626c650000000000000000000000000000000000000000000000000000006020830152604082019050919050565b6000604083016000830151611ef76000860182611f1c565b5060208301518482036020860152611f0f8282611b18565b9150508091505092915050565b611f2581612353565b82525050565b611f3481612353565b82525050565b6000611f468284611b8a565b915081905092915050565b60006020820190508181036000830152611f6b8184611a85565b905092915050565b6000602082019050611f886000830184611afa565b92915050565b6000602082019050611fa36000830184611b09565b92915050565b60006020820190508181036000830152611fc38184611b51565b905092915050565b60006060820190508181036000830152611fe58186611b51565b90508181036020830152611ff98185611b51565b90506120086040830184611f2b565b949350505050565b6000604082019050818103600083015261202a8185611bbb565b9050818103602083015261203e8184611b51565b90509392505050565b600060408201905081810360008301526120618185611bbb565b905081810360208301526120758184611bbb565b90509392505050565b6000602082019050818103600083015261209781611c3b565b9050919050565b600060208201905081810360008301526120b781611ca1565b9050919050565b600060208201905081810360008301526120d781611d07565b9050919050565b600060208201905081810360008301526120f781611d47565b9050919050565b6000602082019050818103600083015261211781611dad565b9050919050565b6000602082019050818103600083015261213781611e13565b9050919050565b6000602082019050818103600083015261215781611e79565b9050919050565b60006040820190506121736000830185611f2b565b81810360208301526121858184611b51565b90509392505050565b60006060820190506121a36000830186611f2b565b6121b06020830185611f2b565b81810360408301526121c28184611b51565b9050949350505050565b6000604051905081810181811067ffffffffffffffff821117156121f3576121f2612478565b5b8060405250919050565b600067ffffffffffffffff82111561221857612217612478565b5b601f19601f8301169050602081019050919050565b6000819050602082019050919050565b60008190508160005260206000209050919050565b600081519050919050565b600081519050919050565b6000602082019050919050565b600082825260208201905092915050565b600082825260208201905092915050565b600082825260208201905092915050565b600081905092915050565b60006122be82612353565b91506122c983612353565b9250827fffffffffffffffffffffffffffffffffffffffffffffffffffffffffffffffff038211156122fe576122fd61241a565b5b828201905092915050565b600061231482612353565b915061231f83612353565b9250828210156123325761233161241a565b5b828203905092915050565b60008115159050919050565b6000819050919050565b6000819050919050565b82818337600083830152505050565b60005b8381101561238a57808201518184015260208101905061236f565b83811115612399576000848401525b50505050565b600060028204905060018216806123b757607f821691505b602082108114156123cb576123ca612449565b5b50919050565b60006123dc82612353565b91507fffffffffffffffffffffffffffffffffffffffffffffffffffffffffffffffff82141561240f5761240e61241a565b5b600182019050919050565b7f4e487b7100000000000000000000000000000000000000000000000000000000600052601160045260246000fd5b7f4e487b7100000000000000000000000000000000000000000000000000000000600052602260045260246000fd5b7f4e487b7100000000000000000000000000000000000000000000000000000000600052604160045260246000fd5b6000601f19601f8301169050919050565b6124c18161233d565b81146124cc57600080fd5b50565b6124d881612349565b81146124e357600080fd5b50565b6124ef81612353565b81146124fa57600080fd5b5056fea2646970667358221220f0d4760cfa970b2974c564cae92d1c0a3ffba31d21cba01bdf4ddd984929c12c64736f6c63430008000033",
  "immutableReferences": {},
  "source": "// SPDX-License-Identifier: GPL-3.0\r\n\r\npragma solidity >=0.7.0 <0.9.0;\r\n\r\nimport \"./WineNFTs.sol\";\r\nimport \"./Sensor.sol\";\r\n\r\ncontract Lager {\r\n    address admin = msg.sender;\r\n    address adminNFTS;\r\n    address adminSensor;\r\n\r\n    constructor(address addNFT, address _sensor) {\r\n        adminNFTS = addNFT;\r\n        adminSensor = _sensor;\r\n    }\r\n\r\n    struct Bottle {\r\n        //bootle\r\n        uint256 time;\r\n        string Udi;\r\n    }\r\n    Bottle[] public bottles;\r\n\r\n    uint256 counter = 0;\r\n\r\n    struct LagerInfos {\r\n        uint256 lagerId;\r\n        string location;\r\n    }\r\n\r\n    LagerInfos[] public lager;\r\n\r\n    mapping(uint256 => mapping(uint256 => Bottle)) public Data;\r\n    mapping(uint256 => bool) setterLager;\r\n    mapping(string => bool) setterBottle;\r\n\r\n    event checkInevent(uint256 date, uint256 _lagerId, string _Udi);\r\n    event checkIOutevent(uint256 date, uint256 _lagerId, string _Udi);\r\n    event newLagerEvent(uint256 date, uint256 _lagerId, string _location);\r\n\r\n    function existStorage(uint256 _lagerId) internal view returns (uint256 r) {\r\n        r = 0;\r\n        for (uint256 i = 0; i < bottles.length; i++) {\r\n            for (uint256 j = 0; j < bottles.length; j++) {\r\n                if (\r\n                    Data[_lagerId][i].time == bottles[j].time &&\r\n                    WineNFTs(adminNFTS).hashCompareWithLengthCheck(\r\n                        Data[_lagerId][i].Udi,\r\n                        bottles[j].Udi\r\n                    )\r\n                ) {\r\n                    r++;\r\n                }\r\n            }\r\n        }\r\n        return r;\r\n    }\r\n\r\n    function checkIn(uint256 _lagerId, string memory _Udi)\r\n        public\r\n        returns (bool r)\r\n    {\r\n        require(setterLager[_lagerId] == true, \"this lager did't exist\");\r\n        require(\r\n            setterBottle[_Udi] == false,\r\n            \"This bottle is not found for checkin\"\r\n        );\r\n        require(\r\n            WineNFTs(adminNFTS).alreadyExist(_Udi) == true,\r\n            \"a bottle with this Udi is not aviable\"\r\n        );\r\n        r = false;\r\n        uint256 helper = existStorage(_lagerId);\r\n        uint256 date = block.timestamp;\r\n        bottles.push(Bottle(date, _Udi));\r\n        Data[_lagerId][helper] = bottles[counter];\r\n        counter++;\r\n        setterBottle[_Udi] = true;\r\n        r = true;\r\n        emit checkInevent(date, _lagerId, _Udi);\r\n\r\n        return r;\r\n    }\r\n\r\n    function checkOut(uint256 _lagerId, string memory _Udi)\r\n        public\r\n        returns (bool r)\r\n    {\r\n        require(\r\n            setterLager[_lagerId] == true,\r\n            \"we don't have a lager with this ID\"\r\n        );\r\n        require(\r\n            setterBottle[_Udi] == true,\r\n            \"This bottle is not found for checkout\"\r\n        );\r\n        r = false;\r\n        uint256 actuel;\r\n        uint256 helper = 0;\r\n        for (uint256 i = 0; i < bottles.length; i++) {\r\n            if (\r\n                WineNFTs(adminNFTS).hashCompareWithLengthCheck(\r\n                    bottles[i].Udi,\r\n                    _Udi\r\n                )\r\n            ) {\r\n                helper = existStorage(_lagerId);\r\n                //helper--;\r\n\r\n                //debut delete in data[]\r\n                for (uint256 e = 0; e < helper; e++) {\r\n                    if (\r\n                        WineNFTs(adminNFTS).hashCompareWithLengthCheck(\r\n                            Data[_lagerId][e].Udi,\r\n                            bottles[i].Udi\r\n                        )\r\n                    ) {\r\n                        // delete in data[]\r\n                        actuel = (helper - 1);\r\n                        Data[_lagerId][helper] = Data[_lagerId][actuel];\r\n                        Data[_lagerId][actuel] = Data[_lagerId][e];\r\n                        Data[_lagerId][e] = Data[_lagerId][helper];\r\n                        delete (Data[_lagerId][helper]);\r\n                        delete (Data[_lagerId][actuel]);\r\n                    }\r\n                }\r\n\r\n                //debut delete in bottles[]\r\n                for (uint256 j = i; j < bottles.length - 1; j++) {\r\n                    bottles[j] = bottles[j + 1];\r\n                }\r\n                bottles.pop();\r\n                setterBottle[_Udi] == false;\r\n                emit checkIOutevent(block.timestamp, _lagerId, _Udi);\r\n\r\n                //fin delete in bottles[]\r\n                r = true;\r\n            }\r\n        }\r\n\r\n        return r;\r\n    }\r\n\r\n    function newLager(uint256 _lagerId, string memory location)\r\n        public\r\n        returns (bool)\r\n    {\r\n        require(\r\n            setterLager[_lagerId] == false,\r\n            \"we already have a lager with this ID\"\r\n        );\r\n        lager.push(LagerInfos(_lagerId, location));\r\n        setterLager[_lagerId] = true;\r\n        emit newLagerEvent(block.timestamp, _lagerId, location);\r\n        return setterLager[_lagerId];\r\n    }\r\n\r\n    function getBottles() public view returns (Bottle[] memory) {\r\n        return (bottles);\r\n    }\r\n\r\n    function newSensor(\r\n        uint256 _lagerId,\r\n        uint256 _sensorId,\r\n        string memory _name\r\n    ) public returns (bool r) {\r\n        require(\r\n            setterLager[_lagerId] == true,\r\n            \"we don't have a lager with this name\"\r\n        );\r\n        Sensor(adminSensor).setSensor(_sensorId, _name);\r\n        r = true;\r\n        return r;\r\n    }\r\n\r\n    function save_sensor_data(\r\n        string memory _date,\r\n        string memory _hash,\r\n        uint256 _sensorId\r\n    ) external returns (bytes32 r) {\r\n        r = Sensor(adminSensor).setStorageData(_date, _hash, _sensorId);\r\n        return r;\r\n    }\r\n\r\n    function get_sendor_data(string memory _date)\r\n        external\r\n        view\r\n        returns (bytes32 r)\r\n    {\r\n        r = Sensor(adminSensor).getStorageData(_date);\r\n        return r;\r\n    }\r\n\r\n    modifier onlyAdmin() {\r\n        require(msg.sender == admin, \"you are not the manager of this action\");\r\n        _;\r\n    }\r\n}\r\n",
  "sourcePath": "C:\\Users\\Alex\\Documents\\Test\\Repos\\Dapp\\Wine_NFTs_Dapp\\contracts\\Lager.sol",
  "compiler": {
    "name": "solc",
    "version": "0.8.0+commit.c7dfd78e.Emscripten.clang"
  },
  "schemaVersion": "3.4.3",
  "updatedAt": "2021-10-11T07:08:04.989Z",
  "networkType": "ethereum",
  "devdoc": {
    "kind": "dev",
    "methods": {},
    "version": 1
  },
  "userdoc": {
    "kind": "user",
    "methods": {},
    "version": 1
  }
}