{
  "contractName": "Lager",
  "abi": [
    {
      "inputs": [
        {
          "internalType": "address",
          "name": "addNFT",
          "type": "address"
        },
        {
          "internalType": "address",
          "name": "_sensor",
          "type": "address"
        }
      ],
      "stateMutability": "nonpayable",
      "type": "constructor"
    },
    {
      "anonymous": false,
      "inputs": [
        {
          "indexed": false,
          "internalType": "uint256",
          "name": "time",
          "type": "uint256"
        },
        {
          "indexed": false,
          "internalType": "uint256",
          "name": "_lagerId",
          "type": "uint256"
        },
        {
          "indexed": false,
          "internalType": "string",
          "name": "_Udi",
          "type": "string"
        }
      ],
      "name": "checkInEvent",
      "type": "event"
    },
    {
      "anonymous": false,
      "inputs": [
        {
          "indexed": false,
          "internalType": "uint256",
          "name": "time",
          "type": "uint256"
        },
        {
          "indexed": false,
          "internalType": "uint256",
          "name": "_lagerId",
          "type": "uint256"
        },
        {
          "indexed": false,
          "internalType": "string",
          "name": "_Udi",
          "type": "string"
        }
      ],
      "name": "checkOutEvent",
      "type": "event"
    },
    {
      "inputs": [
        {
          "internalType": "uint256",
          "name": "",
          "type": "uint256"
        }
      ],
      "name": "bottles",
      "outputs": [
        {
          "internalType": "uint256",
          "name": "time",
          "type": "uint256"
        },
        {
          "internalType": "uint256",
          "name": "lagerId",
          "type": "uint256"
        },
        {
          "internalType": "string",
          "name": "Udi",
          "type": "string"
        }
      ],
      "stateMutability": "view",
      "type": "function",
      "constant": true
    },
    {
      "inputs": [
        {
          "internalType": "uint256",
          "name": "",
          "type": "uint256"
        }
      ],
      "name": "lagerId",
      "outputs": [
        {
          "internalType": "uint256",
          "name": "lagerId",
          "type": "uint256"
        },
        {
          "internalType": "string",
          "name": "name",
          "type": "string"
        }
      ],
      "stateMutability": "view",
      "type": "function",
      "constant": true
    },
    {
      "inputs": [],
      "name": "sensor",
      "outputs": [
        {
          "internalType": "contract Sensor",
          "name": "",
          "type": "address"
        }
      ],
      "stateMutability": "view",
      "type": "function",
      "constant": true
    },
    {
      "inputs": [
        {
          "internalType": "uint256",
          "name": "_lagerId",
          "type": "uint256"
        },
        {
          "internalType": "string",
          "name": "name",
          "type": "string"
        }
      ],
      "name": "setLager",
      "outputs": [
        {
          "internalType": "bool",
          "name": "",
          "type": "bool"
        }
      ],
      "stateMutability": "nonpayable",
      "type": "function"
    },
    {
      "inputs": [
        {
          "internalType": "uint256",
          "name": "_lagerId",
          "type": "uint256"
        },
        {
          "internalType": "string",
          "name": "_Udi",
          "type": "string"
        }
      ],
      "name": "checkInBottle",
      "outputs": [
        {
          "components": [
            {
              "internalType": "uint256",
              "name": "time",
              "type": "uint256"
            },
            {
              "internalType": "uint256",
              "name": "lagerId",
              "type": "uint256"
            },
            {
              "internalType": "string",
              "name": "Udi",
              "type": "string"
            }
          ],
          "internalType": "struct Lager.Bottle[]",
          "name": "r",
          "type": "tuple[]"
        }
      ],
      "stateMutability": "nonpayable",
      "type": "function"
    },
    {
      "inputs": [
        {
          "internalType": "uint256",
          "name": "_lagerId",
          "type": "uint256"
        },
        {
          "internalType": "string",
          "name": "_Udi",
          "type": "string"
        }
      ],
      "name": "checkOutBottle",
      "outputs": [
        {
          "internalType": "uint256",
          "name": "",
          "type": "uint256"
        },
        {
          "internalType": "bool",
          "name": "",
          "type": "bool"
        }
      ],
      "stateMutability": "nonpayable",
      "type": "function"
    },
    {
      "inputs": [
        {
          "internalType": "string",
          "name": "_date",
          "type": "string"
        },
        {
          "internalType": "string",
          "name": "_hash",
          "type": "string"
        },
        {
          "internalType": "uint256",
          "name": "_sendorId",
          "type": "uint256"
        }
      ],
      "name": "save_sensor_data",
      "outputs": [
        {
          "internalType": "bytes32",
          "name": "r",
          "type": "bytes32"
        }
      ],
      "stateMutability": "nonpayable",
      "type": "function"
    },
    {
      "inputs": [
        {
          "internalType": "string",
          "name": "_date",
          "type": "string"
        }
      ],
      "name": "get_sendor_data",
      "outputs": [
        {
          "internalType": "bytes32",
          "name": "r",
          "type": "bytes32"
        }
      ],
      "stateMutability": "view",
      "type": "function",
      "constant": true
    }
  ],
  "bytecode": "0x6080604052336000806101000a81548173ffffffffffffffffffffffffffffffffffffffff021916908373ffffffffffffffffffffffffffffffffffffffff1602179055503480156200005157600080fd5b50604051620021b6380380620021b6833981810160405281019062000077919062000118565b81600160006101000a81548173ffffffffffffffffffffffffffffffffffffffff021916908373ffffffffffffffffffffffffffffffffffffffff16021790555080600260006101000a81548173ffffffffffffffffffffffffffffffffffffffff021916908373ffffffffffffffffffffffffffffffffffffffff1602179055505050620001a7565b60008151905062000112816200018d565b92915050565b600080604083850312156200012c57600080fd5b60006200013c8582860162000101565b92505060206200014f8582860162000101565b9150509250929050565b600062000166826200016d565b9050919050565b600073ffffffffffffffffffffffffffffffffffffffff82169050919050565b620001988162000159565b8114620001a457600080fd5b50565b611fff80620001b76000396000f3fe608060405234801561001057600080fd5b50600436106100885760003560e01c8063dac6971a1161005b578063dac6971a1461014e578063dbb1772414610180578063df0951b9146101b1578063f57c34db146101e157610088565b8063207eea9e1461008d5780635adf3074146100be578063801250ab146100ee578063b769d4951461011e575b600080fd5b6100a760048036038101906100a2919061154c565b6101ff565b6040516100b5929190611b9c565b60405180910390f35b6100d860048036038101906100d39190611463565b61058d565b6040516100e591906119f1565b60405180910390f35b6101086004803603810190610103919061154c565b610641565b60405161011591906119b4565b60405180910390f35b610138600480360381019061013391906114a4565b610a74565b60405161014591906119f1565b60405180910390f35b61016860048036038101906101639190611523565b610b30565b60405161017793929190611bf5565b60405180910390f35b61019a60048036038101906101959190611523565b610bf2565b6040516101a8929190611bc5565b60405180910390f35b6101cb60048036038101906101c6919061154c565b610cae565b6040516101d891906119d6565b60405180910390f35b6101e9610e64565b6040516101f69190611a0c565b60405180910390f35b6000806001151561020f84610e8a565b151514610251576040517f08c379a000000000000000000000000000000000000000000000000000000000815260040161024890611afc565b60405180910390fd5b6000805b60038054905081101561054357600160009054906101000a900473ffffffffffffffffffffffffffffffffffffffff1673ffffffffffffffffffffffffffffffffffffffff166345717f28600383815481106102da577f4e487b7100000000000000000000000000000000000000000000000000000000600052603260045260246000fd5b9060005260206000209060030201600201876040518363ffffffff1660e01b8152600401610309929190611ac5565b60206040518083038186803b15801561032157600080fd5b505afa158015610335573d6000803e3d6000fd5b505050506040513d601f19601f820116820180604052508101906103599190611411565b80156103af5750856003828154811061039b577f4e487b7100000000000000000000000000000000000000000000000000000000600052603260045260246000fd5b906000526020600020906003020160010154145b156105305760008190505b60016003805490506103cc9190611d91565b8110156104b95760036001826103e29190611d3b565b81548110610419577f4e487b7100000000000000000000000000000000000000000000000000000000600052603260045260246000fd5b906000526020600020906003020160038281548110610461577f4e487b7100000000000000000000000000000000000000000000000000000000600052603260045260246000fd5b90600052602060002090600302016000820154816000015560018201548160010155600282018160020190805461049790611e6b565b6104a292919061104e565b5090505080806104b190611e9d565b9150506103ba565b5060038054806104f2577f4e487b7100000000000000000000000000000000000000000000000000000000600052603160045260246000fd5b6001900381819060005260206000209060030201600080820160009055600182016000905560028201600061052791906110db565b50509055600191505b808061053b90611e9d565b915050610255565b507f20f260f231b21e0dd9307dc396100ce8d16f554314d73047d7841b7e887a143c42868660405161057793929190611bf5565b60405180910390a1428192509250509250929050565b6000600260009054906101000a900473ffffffffffffffffffffffffffffffffffffffff1673ffffffffffffffffffffffffffffffffffffffff1663eb951864836040518263ffffffff1660e01b81526004016105ea9190611a27565b60206040518083038186803b15801561060257600080fd5b505afa158015610616573d6000803e3d6000fd5b505050506040513d601f19601f8201168201806040525081019061063a919061143a565b9050919050565b60606000151561065083610e8a565b151514610692576040517f08c379a000000000000000000000000000000000000000000000000000000000815260040161068990611b1c565b60405180910390fd5b600115156005600085815260200190815260200160002060009054906101000a900460ff161515146106f9576040517f08c379a00000000000000000000000000000000000000000000000000000000081526004016106f090611b3c565b60405180910390fd5b6000600160009054906101000a900473ffffffffffffffffffffffffffffffffffffffff1673ffffffffffffffffffffffffffffffffffffffff1663227212f26040518163ffffffff1660e01b815260040160006040518083038186803b15801561076357600080fd5b505afa158015610777573d6000803e3d6000fd5b505050506040513d6000823e3d601f19601f820116820180604052508101906107a091906113d0565b905060005b8151811015610a3157600160009054906101000a900473ffffffffffffffffffffffffffffffffffffffff1673ffffffffffffffffffffffffffffffffffffffff166345717f28838381518110610825577f4e487b7100000000000000000000000000000000000000000000000000000000600052603260045260246000fd5b602002602001015160000151866040518363ffffffff1660e01b815260040161084f929190611a49565b60206040518083038186803b15801561086757600080fd5b505afa15801561087b573d6000803e3d6000fd5b505050506040513d601f19601f8201168201806040525081019061089f9190611411565b15610a1e57600360405180606001604052804281526020018781526020018681525090806001815401808255809150506001900390600052602060002090600302016000909190919091506000820151816000015560208201518160010155604082015181600201908051906020019061091a92919061111b565b5050506003805480602002602001604051908101604052809291908181526020016000905b82821015610a175783829060005260206000209060030201604051806060016040529081600082015481526020016001820154815260200160028201805461098690611e6b565b80601f01602080910402602001604051908101604052809291908181526020018280546109b290611e6b565b80156109ff5780601f106109d4576101008083540402835291602001916109ff565b820191906000526020600020905b8154815290600101906020018083116109e257829003601f168201915b5050505050815250508152602001906001019061093f565b5050505092505b8080610a2990611e9d565b9150506107a5565b507ff1a9b63ccf67c0b7010388663f7d5bcb406d10a47ca5a2768709aeac9ef3d49e428585604051610a6593929190611bf5565b60405180910390a15092915050565b6000600260009054906101000a900473ffffffffffffffffffffffffffffffffffffffff1673ffffffffffffffffffffffffffffffffffffffff16631ca8d8cb8585856040518463ffffffff1660e01b8152600401610ad593929190611a80565b602060405180830381600087803b158015610aef57600080fd5b505af1158015610b03573d6000803e3d6000fd5b505050506040513d601f19601f82011682018060405250810190610b27919061143a565b90509392505050565b60038181548110610b4057600080fd5b9060005260206000209060030201600091509050806000015490806001015490806002018054610b6f90611e6b565b80601f0160208091040260200160405190810160405280929190818152602001828054610b9b90611e6b565b8015610be85780601f10610bbd57610100808354040283529160200191610be8565b820191906000526020600020905b815481529060010190602001808311610bcb57829003601f168201915b5050505050905083565b60048181548110610c0257600080fd5b9060005260206000209060020201600091509050806000015490806001018054610c2b90611e6b565b80601f0160208091040260200160405190810160405280929190818152602001828054610c5790611e6b565b8015610ca45780601f10610c7957610100808354040283529160200191610ca4565b820191906000526020600020905b815481529060010190602001808311610c8757829003601f168201915b5050505050905082565b60008060009054906101000a900473ffffffffffffffffffffffffffffffffffffffff1673ffffffffffffffffffffffffffffffffffffffff163373ffffffffffffffffffffffffffffffffffffffff1614610d3f576040517f08c379a0000000000000000000000000000000000000000000000000000000008152600401610d3690611b7c565b60405180910390fd5b600015156005600085815260200190815260200160002060009054906101000a900460ff16151514610da6576040517f08c379a0000000000000000000000000000000000000000000000000000000008152600401610d9d90611b5c565b60405180910390fd5b60046040518060400160405280858152602001848152509080600181540180825580915050600190039060005260206000209060020201600090919091909150600082015181600001556020820151816001019080519060200190610e0c92919061111b565b50505060016005600085815260200190815260200160002060006101000a81548160ff0219169083151502179055506005600084815260200190815260200160002060009054906101000a900460ff16905092915050565b600660009054906101000a900473ffffffffffffffffffffffffffffffffffffffff1681565b6000806000905060005b60038054905081101561104457600060038281548110610edd577f4e487b7100000000000000000000000000000000000000000000000000000000600052603260045260246000fd5b90600052602060002090600302016002018054610ef990611e6b565b80601f0160208091040260200160405190810160405280929190818152602001828054610f2590611e6b565b8015610f725780601f10610f4757610100808354040283529160200191610f72565b820191906000526020600020905b815481529060010190602001808311610f5557829003601f168201915b50505050509050600160009054906101000a900473ffffffffffffffffffffffffffffffffffffffff1673ffffffffffffffffffffffffffffffffffffffff166345717f2886836040518363ffffffff1660e01b8152600401610fd6929190611a49565b60206040518083038186803b158015610fee57600080fd5b505afa158015611002573d6000803e3d6000fd5b505050506040513d601f19601f820116820180604052508101906110269190611411565b1561103057600192505b50808061103c90611e9d565b915050610e94565b5080915050919050565b82805461105a90611e6b565b90600052602060002090601f01602090048101928261107c57600085556110ca565b82601f1061108d57805485556110ca565b828001600101855582156110ca57600052602060002091601f016020900482015b828111156110c95782548255916001019190600101906110ae565b5b5090506110d791906111a1565b5090565b5080546110e790611e6b565b6000825580601f106110f95750611118565b601f01602090049060005260206000209081019061111791906111a1565b5b50565b82805461112790611e6b565b90600052602060002090601f0160209004810192826111495760008555611190565b82601f1061116257805160ff1916838001178555611190565b82800160010185558215611190579182015b8281111561118f578251825591602001919060010190611174565b5b50905061119d91906111a1565b5090565b5b808211156111ba5760008160009055506001016111a2565b5090565b60006111d16111cc84611c64565b611c33565b9050808382526020820190508260005b8581101561121157815185016111f7888261133f565b8452602084019350602083019250506001810190506111e1565b5050509392505050565b600061122e61122984611c90565b611c33565b90508281526020810184848401111561124657600080fd5b611251848285611e29565b509392505050565b600061126c61126784611c90565b611c33565b90508281526020810184848401111561128457600080fd5b61128f848285611e38565b509392505050565b600082601f8301126112a857600080fd5b81516112b88482602086016111be565b91505092915050565b6000815190506112d081611f84565b92915050565b6000815190506112e581611f9b565b92915050565b600082601f8301126112fc57600080fd5b813561130c84826020860161121b565b91505092915050565b600082601f83011261132657600080fd5b8151611336848260208601611259565b91505092915050565b60006040828403121561135157600080fd5b61135b6040611c33565b9050600082015167ffffffffffffffff81111561137757600080fd5b61138384828501611315565b600083015250602082015167ffffffffffffffff8111156113a357600080fd5b6113af84828501611315565b60208301525092915050565b6000813590506113ca81611fb2565b92915050565b6000602082840312156113e257600080fd5b600082015167ffffffffffffffff8111156113fc57600080fd5b61140884828501611297565b91505092915050565b60006020828403121561142357600080fd5b6000611431848285016112c1565b91505092915050565b60006020828403121561144c57600080fd5b600061145a848285016112d6565b91505092915050565b60006020828403121561147557600080fd5b600082013567ffffffffffffffff81111561148f57600080fd5b61149b848285016112eb565b91505092915050565b6000806000606084860312156114b957600080fd5b600084013567ffffffffffffffff8111156114d357600080fd5b6114df868287016112eb565b935050602084013567ffffffffffffffff8111156114fc57600080fd5b611508868287016112eb565b9250506040611519868287016113bb565b9150509250925092565b60006020828403121561153557600080fd5b6000611543848285016113bb565b91505092915050565b6000806040838503121561155f57600080fd5b600061156d858286016113bb565b925050602083013567ffffffffffffffff81111561158a57600080fd5b611596858286016112eb565b9150509250929050565b60006115ac8383611946565b905092915050565b60006115bf82611ce5565b6115c98185611d08565b9350836020820285016115db85611cc0565b8060005b8581101561161757848403895281516115f885826115a0565b945061160383611cfb565b925060208a019950506001810190506115df565b50829750879550505050505092915050565b61163281611dc5565b82525050565b61164181611dd1565b82525050565b61165081611e05565b82525050565b600061166182611cf0565b61166b8185611d19565b935061167b818560208601611e38565b61168481611f73565b840191505092915050565b600061169a82611cf0565b6116a48185611d2a565b93506116b4818560208601611e38565b6116bd81611f73565b840191505092915050565b600081546116d581611e6b565b6116df8186611d2a565b945060018216600081146116fa576001811461170c5761173f565b60ff198316865260208601935061173f565b61171585611cd0565b60005b8381101561173757815481890152600182019150602081019050611718565b808801955050505b50505092915050565b6000611755602e83611d2a565b91507f626f74746c65207769746820746869732055646920646f6e277420657869737460008301527f20696e2074686973206c616765720000000000000000000000000000000000006020830152604082019050919050565b60006117bb603083611d2a565b91507f626f74746c65207769746820746869732055646920616c72656164792065786960008301527f737420696e2074686973204c61676572000000000000000000000000000000006020830152604082019050919050565b6000611821604d83611d2a565b91507f4c61676572204964206973206e6f7420646566696e696572742069662069742060008301527f69732061206e6577204c6167657220706c656173652063616c6c207365744c6160208301527f6765722066756e6374696f6e20000000000000000000000000000000000000006040830152606082019050919050565b60006118ad601383611d2a565b91507f6c6167657220616c7265616479206578697374000000000000000000000000006000830152602082019050919050565b60006118ed602683611d2a565b91507f796f7520617265206e6f7420746865206d616e61676572206f6620746869732060008301527f616374696f6e00000000000000000000000000000000000000000000000000006020830152604082019050919050565b600060608301600083015161195e6000860182611996565b5060208301516119716020860182611996565b50604083015184820360408601526119898282611656565b9150508091505092915050565b61199f81611dfb565b82525050565b6119ae81611dfb565b82525050565b600060208201905081810360008301526119ce81846115b4565b905092915050565b60006020820190506119eb6000830184611629565b92915050565b6000602082019050611a066000830184611638565b92915050565b6000602082019050611a216000830184611647565b92915050565b60006020820190508181036000830152611a41818461168f565b905092915050565b60006040820190508181036000830152611a63818561168f565b90508181036020830152611a77818461168f565b90509392505050565b60006060820190508181036000830152611a9a818661168f565b90508181036020830152611aae818561168f565b9050611abd60408301846119a5565b949350505050565b60006040820190508181036000830152611adf81856116c8565b90508181036020830152611af3818461168f565b90509392505050565b60006020820190508181036000830152611b1581611748565b9050919050565b60006020820190508181036000830152611b35816117ae565b9050919050565b60006020820190508181036000830152611b5581611814565b9050919050565b60006020820190508181036000830152611b75816118a0565b9050919050565b60006020820190508181036000830152611b95816118e0565b9050919050565b6000604082019050611bb160008301856119a5565b611bbe6020830184611629565b9392505050565b6000604082019050611bda60008301856119a5565b8181036020830152611bec818461168f565b90509392505050565b6000606082019050611c0a60008301866119a5565b611c1760208301856119a5565b8181036040830152611c29818461168f565b9050949350505050565b6000604051905081810181811067ffffffffffffffff82111715611c5a57611c59611f44565b5b8060405250919050565b600067ffffffffffffffff821115611c7f57611c7e611f44565b5b602082029050602081019050919050565b600067ffffffffffffffff821115611cab57611caa611f44565b5b601f19601f8301169050602081019050919050565b6000819050602082019050919050565b60008190508160005260206000209050919050565b600081519050919050565b600081519050919050565b6000602082019050919050565b600082825260208201905092915050565b600082825260208201905092915050565b600082825260208201905092915050565b6000611d4682611dfb565b9150611d5183611dfb565b9250827fffffffffffffffffffffffffffffffffffffffffffffffffffffffffffffffff03821115611d8657611d85611ee6565b5b828201905092915050565b6000611d9c82611dfb565b9150611da783611dfb565b925082821015611dba57611db9611ee6565b5b828203905092915050565b60008115159050919050565b6000819050919050565b600073ffffffffffffffffffffffffffffffffffffffff82169050919050565b6000819050919050565b6000611e1082611e17565b9050919050565b6000611e2282611ddb565b9050919050565b82818337600083830152505050565b60005b83811015611e56578082015181840152602081019050611e3b565b83811115611e65576000848401525b50505050565b60006002820490506001821680611e8357607f821691505b60208210811415611e9757611e96611f15565b5b50919050565b6000611ea882611dfb565b91507fffffffffffffffffffffffffffffffffffffffffffffffffffffffffffffffff821415611edb57611eda611ee6565b5b600182019050919050565b7f4e487b7100000000000000000000000000000000000000000000000000000000600052601160045260246000fd5b7f4e487b7100000000000000000000000000000000000000000000000000000000600052602260045260246000fd5b7f4e487b7100000000000000000000000000000000000000000000000000000000600052604160045260246000fd5b6000601f19601f8301169050919050565b611f8d81611dc5565b8114611f9857600080fd5b50565b611fa481611dd1565b8114611faf57600080fd5b50565b611fbb81611dfb565b8114611fc657600080fd5b5056fea26469706673582212208e9b498c58e8954a685d358bec29755fb695aeea1475051411cd6968d19114c364736f6c63430008000033",
  "immutableReferences": {},
  "source": "// SPDX-License-Identifier: GPL-3.0\r\n\r\npragma solidity >=0.8.0;\r\n\r\nimport \"./WineNFTs.sol\";\r\nimport \"./Sensor.sol\";\r\n\r\ncontract Lager{\r\n    \r\n    address admin = msg.sender;\r\n    address adminNFTS;\r\n    address adminSensor;\r\n    \r\n    struct Bottle { //bootle\r\n        uint256 time;\r\n        uint256 lagerId;\r\n        string Udi;\r\n    }\r\n    Bottle[] public bottles;\r\n    \r\n    struct LagerInfos { \r\n        uint256 lagerId;\r\n        string name;\r\n    }\r\n    LagerInfos[] public lagerId;\r\n    mapping(uint256 => bool) existance;\r\n    \r\n    Sensor public sensor;\r\n    \r\n    \r\n   constructor (address addNFT, address _sensor){\r\n        adminNFTS = addNFT;\r\n        adminSensor = _sensor;\r\n        \r\n    }\r\n\r\n    event checkInEvent(uint time, uint256 _lagerId, string _Udi);\r\n    event checkOutEvent(uint time, uint256 _lagerId, string _Udi);\r\n \r\n    function alreadycheckIn(string memory _Udi) internal view returns(bool ){\r\n      bool setter  = false;\r\n          for(uint256 i = 0; i< bottles.length; i++){\r\n              string memory _sn = bottles[i].Udi;\r\n              if(WineNFTs(adminNFTS).hashCompareWithLengthCheck(_Udi,_sn) ){\r\n                  setter = true;\r\n              }\r\n          }\r\n        return setter;\r\n    } // kann mit mapping besser gemacht werden \r\n    \r\n    function setLager(uint256 _lagerId, string memory name)public onlyAdmin returns(bool){\r\n        require(existance[_lagerId] == false,\"lager already exist\");\r\n        lagerId.push(LagerInfos(_lagerId,name));\r\n        existance[_lagerId] = true;\r\n        return existance[_lagerId];\r\n    }\r\n    \r\n    function checkInBottle(uint256 _lagerId, string memory _Udi) public returns (Bottle[] memory r ){\r\n        require( alreadycheckIn(_Udi) == false,\"bottle with this Udi already exist in this Lager\");\r\n        require( existance[_lagerId] == true,\"Lager Id is not definiert if it is a new Lager please call setLager function \");\r\n        WineNFTs.NFTs[] memory nfts = WineNFTs(adminNFTS).getNFTs(); \r\n        for(uint256 i=0; i < nfts.length; i++){\r\n          if(WineNFTs(adminNFTS).hashCompareWithLengthCheck(nfts[i].Udi,_Udi) ){\r\n            bottles.push(Bottle(block.timestamp, _lagerId, _Udi));\r\n            r = bottles;\r\n          }  \r\n        }\r\n\r\n        emit checkInEvent(block.timestamp, _lagerId, _Udi);\r\n        return r;\r\n    }\r\n    \r\n    function checkOutBottle(uint256 _lagerId, string memory _Udi) public returns (uint256, bool){\r\n        require( alreadycheckIn(_Udi) == true,\"bottle with this Udi don't exist in this lager\");\r\n        bool helper = false;\r\n        for(uint256 i=0; i<bottles.length; i++){\r\n            if(WineNFTs(adminNFTS).hashCompareWithLengthCheck( bottles[i].Udi, _Udi) && bottles[i].lagerId == _lagerId){\r\n    \r\n                for (uint256 j=i; j<bottles.length-1; j++){\r\n                    bottles[j]=bottles[j+1];\r\n                }\r\n                bottles.pop();\r\n                helper = true;\r\n            }\r\n        }\r\n        emit checkOutEvent(block.timestamp, _lagerId, _Udi);\r\n        return (block.timestamp, helper);\r\n    }\r\n    \r\n    function save_sensor_data(string memory _date, string memory _hash, uint256 _sendorId)external returns(bytes32 r ){\r\n       r = Sensor(adminSensor).setStorageData(_date, _hash, _sendorId); \r\n       //r = sensor.setStorageData(_date, _hash, _sendorId); \r\n       return r;\r\n    }\r\n    \r\n    function get_sendor_data(string memory _date) external view returns(bytes32 r ){\r\n       r = Sensor(adminSensor).getStorageData(_date);\r\n       //r = sensor.getStorageData(_date);\r\n       return r;\r\n    }\r\n    \r\n    modifier onlyAdmin {\r\n      require(msg.sender == admin, \"you are not the manager of this action\");\r\n      _;\r\n    }\r\n}",
  "sourcePath": "C:\\Users\\Alex\\Documents\\Test\\Repos\\Dapp\\Wine_NFTs_Dapp\\contracts\\Lager.sol",
  "compiler": {
    "name": "solc",
    "version": "0.8.0+commit.c7dfd78e.Emscripten.clang"
  },
  "schemaVersion": "3.4.3",
  "updatedAt": "2021-10-07T00:44:10.423Z",
  "networkType": "ethereum",
  "devdoc": {
    "kind": "dev",
    "methods": {},
    "version": 1
  },
  "userdoc": {
    "kind": "user",
    "methods": {},
    "version": 1
  }
}