{
  "contractName": "Lager",
  "abi": [
    {
      "anonymous": false,
      "inputs": [
        {
          "indexed": false,
          "internalType": "uint256",
          "name": "date",
          "type": "uint256"
        },
        {
          "indexed": false,
          "internalType": "bytes32",
          "name": "Hash",
          "type": "bytes32"
        }
      ],
      "name": "Store",
      "type": "event"
    },
    {
      "anonymous": false,
      "inputs": [
        {
          "indexed": false,
          "internalType": "uint256",
          "name": "date",
          "type": "uint256"
        },
        {
          "indexed": false,
          "internalType": "string",
          "name": "",
          "type": "string"
        }
      ],
      "name": "checkIOEbvent",
      "type": "event"
    },
    {
      "inputs": [
        {
          "internalType": "uint256",
          "name": "",
          "type": "uint256"
        }
      ],
      "name": "check",
      "outputs": [
        {
          "internalType": "string",
          "name": "serialNummer",
          "type": "string"
        },
        {
          "internalType": "uint256",
          "name": "date",
          "type": "uint256"
        }
      ],
      "stateMutability": "view",
      "type": "function",
      "constant": true
    },
    {
      "inputs": [
        {
          "internalType": "address",
          "name": "",
          "type": "address"
        }
      ],
      "name": "filehash",
      "outputs": [
        {
          "internalType": "bytes32",
          "name": "",
          "type": "bytes32"
        }
      ],
      "stateMutability": "view",
      "type": "function",
      "constant": true
    },
    {
      "inputs": [
        {
          "internalType": "string",
          "name": "Hash",
          "type": "string"
        }
      ],
      "name": "storageData",
      "outputs": [
        {
          "internalType": "bytes32",
          "name": "",
          "type": "bytes32"
        }
      ],
      "stateMutability": "nonpayable",
      "type": "function"
    },
    {
      "inputs": [
        {
          "internalType": "string",
          "name": "_str",
          "type": "string"
        }
      ],
      "name": "checkIn",
      "outputs": [
        {
          "internalType": "uint256",
          "name": "",
          "type": "uint256"
        }
      ],
      "stateMutability": "nonpayable",
      "type": "function"
    },
    {
      "inputs": [
        {
          "internalType": "string",
          "name": "_str",
          "type": "string"
        }
      ],
      "name": "checkOut",
      "outputs": [
        {
          "internalType": "uint256",
          "name": "",
          "type": "uint256"
        },
        {
          "internalType": "bool",
          "name": "",
          "type": "bool"
        }
      ],
      "stateMutability": "nonpayable",
      "type": "function"
    }
  ],
  "bytecode": "0x6080604052336000806101000a81548173ffffffffffffffffffffffffffffffffffffffff021916908373ffffffffffffffffffffffffffffffffffffffff16021790555034801561005057600080fd5b5061132b806100606000396000f3fe608060405234801561001057600080fd5b50600436106100575760003560e01c8063531ffd551461005c5780635f72f4501461008d578063617464c1146100be57806399f8643d146100ee578063f21bb4c51461011e575b600080fd5b61007660048036038101906100719190610d22565b61014e565b604051610084929190610f86565b60405180910390f35b6100a760048036038101906100a29190610d63565b6104ef565b6040516100b5929190610efb565b60405180910390f35b6100d860048036038101906100d39190610cf9565b6105ab565b6040516100e59190610ee0565b60405180910390f35b61010860048036038101906101039190610d22565b6105c3565b6040516101159190610ee0565b60405180910390f35b61013860048036038101906101339190610d22565b6107e0565b6040516101459190610f6b565b60405180910390f35b60008060008054906101000a900473ffffffffffffffffffffffffffffffffffffffff1673ffffffffffffffffffffffffffffffffffffffff163373ffffffffffffffffffffffffffffffffffffffff16146101df576040517f08c379a00000000000000000000000000000000000000000000000000000000081526004016101d690610f4b565b60405180910390fd5b60008060005b6001805490508110156104a8576102cf6001828154811061022f577f4e487b7100000000000000000000000000000000000000000000000000000000600052603260045260246000fd5b9060005260206000209060020201600001805461024b906111ae565b80601f0160208091040260200160405190810160405280929190818152602001828054610277906111ae565b80156102c45780601f10610299576101008083540402835291602001916102c4565b820191906000526020600020905b8154815290600101906020018083116102a757829003601f168201915b50505050508761096a565b15610495576001818154811061030e577f4e487b7100000000000000000000000000000000000000000000000000000000600052603260045260246000fd5b9060005260206000209060020201600101544261032b91906110e6565b925060008190505b6001808054905061034491906110e6565b81101561042657600180826103599190611090565b81548110610390577f4e487b7100000000000000000000000000000000000000000000000000000000600052603260045260246000fd5b9060005260206000209060020201600182815481106103d8577f4e487b7100000000000000000000000000000000000000000000000000000000600052603260045260246000fd5b906000526020600020906002020160008201816000019080546103fa906111ae565b610405929190610af7565b5060018201548160010155905050808061041e906111e0565b915050610333565b50600180548061045f577f4e487b7100000000000000000000000000000000000000000000000000000000600052603160045260246000fd5b6001900381819060005260206000209060020201600080820160006104849190610b84565b600182016000905550509055600191505b80806104a0906111e0565b9150506101e5565b507f07004df96c1885575645476145e5a6cf8224a4cdc259dc3b1f753240d286c0bf82866040516104da929190610fd8565b60405180910390a18181935093505050915091565b600181815481106104ff57600080fd5b9060005260206000209060020201600091509050806000018054610522906111ae565b80601f016020809104026020016040519081016040528092919081815260200182805461054e906111ae565b801561059b5780601f106105705761010080835404028352916020019161059b565b820191906000526020600020905b81548152906001019060200180831161057e57829003601f168201915b5050505050908060010154905082565b60026020528060005260406000206000915090505481565b60008060009054906101000a900473ffffffffffffffffffffffffffffffffffffffff1673ffffffffffffffffffffffffffffffffffffffff163373ffffffffffffffffffffffffffffffffffffffff1614610654576040517f08c379a000000000000000000000000000000000000000000000000000000000815260040161064b90610f4b565b60405180910390fd5b816040516020016106659190610ec9565b60405160208183030381529060405280519060200120600260008060009054906101000a900473ffffffffffffffffffffffffffffffffffffffff1673ffffffffffffffffffffffffffffffffffffffff1673ffffffffffffffffffffffffffffffffffffffff168152602001908152602001600020819055507f7eee1853f87786400a9ba8c05cf99e654d9cbae5b2433d28604a0632b55b524e42600260008060009054906101000a900473ffffffffffffffffffffffffffffffffffffffff1673ffffffffffffffffffffffffffffffffffffffff1673ffffffffffffffffffffffffffffffffffffffff16815260200190815260200160002054604051610770929190610faf565b60405180910390a1600260008060009054906101000a900473ffffffffffffffffffffffffffffffffffffffff1673ffffffffffffffffffffffffffffffffffffffff1673ffffffffffffffffffffffffffffffffffffffff168152602001908152602001600020549050919050565b60008060009054906101000a900473ffffffffffffffffffffffffffffffffffffffff1673ffffffffffffffffffffffffffffffffffffffff163373ffffffffffffffffffffffffffffffffffffffff1614610871576040517f08c379a000000000000000000000000000000000000000000000000000000000815260040161086890610f4b565b60405180910390fd5b6000151561087e836109d6565b1515146108c0576040517f08c379a00000000000000000000000000000000000000000000000000000000081526004016108b790610f2b565b60405180910390fd5b60016040518060400160405280848152602001428152509080600181540180825580915050600190039060005260206000209060020201600090919091909150600082015181600001908051906020019061091c929190610bc4565b506020820151816001015550507f07004df96c1885575645476145e5a6cf8224a4cdc259dc3b1f753240d286c0bf428360405161095a929190610fd8565b60405180910390a1429050919050565b6000815183511461097e57600090506109d0565b8160405160200161098f9190610ec9565b60405160208183030381529060405280519060200120836040516020016109b69190610ec9565b604051602081830303815290604052805190602001201490505b92915050565b6000806000905060005b600180549050811015610aed57600060018281548110610a29577f4e487b7100000000000000000000000000000000000000000000000000000000600052603260045260246000fd5b90600052602060002090600202016000018054610a45906111ae565b80601f0160208091040260200160405190810160405280929190818152602001828054610a71906111ae565b8015610abe5780601f10610a9357610100808354040283529160200191610abe565b820191906000526020600020905b815481529060010190602001808311610aa157829003601f168201915b50505050509050610acf858261096a565b15610ad957600192505b508080610ae5906111e0565b9150506109e0565b5080915050919050565b828054610b03906111ae565b90600052602060002090601f016020900481019282610b255760008555610b73565b82601f10610b365780548555610b73565b82800160010185558215610b7357600052602060002091601f016020900482015b82811115610b72578254825591600101919060010190610b57565b5b509050610b809190610c4a565b5090565b508054610b90906111ae565b6000825580601f10610ba25750610bc1565b601f016020900490600052602060002090810190610bc09190610c4a565b5b50565b828054610bd0906111ae565b90600052602060002090601f016020900481019282610bf25760008555610c39565b82601f10610c0b57805160ff1916838001178555610c39565b82800160010185558215610c39579182015b82811115610c38578251825591602001919060010190610c1d565b5b509050610c469190610c4a565b5090565b5b80821115610c63576000816000905550600101610c4b565b5090565b6000610c7a610c7584611039565b611008565b905082815260208101848484011115610c9257600080fd5b610c9d84828561116c565b509392505050565b600081359050610cb4816112c7565b92915050565b600082601f830112610ccb57600080fd5b8135610cdb848260208601610c67565b91505092915050565b600081359050610cf3816112de565b92915050565b600060208284031215610d0b57600080fd5b6000610d1984828501610ca5565b91505092915050565b600060208284031215610d3457600080fd5b600082013567ffffffffffffffff811115610d4e57600080fd5b610d5a84828501610cba565b91505092915050565b600060208284031215610d7557600080fd5b6000610d8384828501610ce4565b91505092915050565b610d958161112c565b82525050565b610da481611138565b82525050565b6000610db582611069565b610dbf8185611074565b9350610dcf81856020860161117b565b610dd8816112b6565b840191505092915050565b6000610dee82611069565b610df88185611085565b9350610e0881856020860161117b565b80840191505092915050565b6000610e21601a83611074565b91507f73657269616c4e756d6d657220616c6c726564792065786973740000000000006000830152602082019050919050565b6000610e61602683611074565b91507f796f7520617265206e6f7420746865206d616e61676572206f6620746869732060008301527f616374696f6e00000000000000000000000000000000000000000000000000006020830152604082019050919050565b610ec381611162565b82525050565b6000610ed58284610de3565b915081905092915050565b6000602082019050610ef56000830184610d9b565b92915050565b60006040820190508181036000830152610f158185610daa565b9050610f246020830184610eba565b9392505050565b60006020820190508181036000830152610f4481610e14565b9050919050565b60006020820190508181036000830152610f6481610e54565b9050919050565b6000602082019050610f806000830184610eba565b92915050565b6000604082019050610f9b6000830185610eba565b610fa86020830184610d8c565b9392505050565b6000604082019050610fc46000830185610eba565b610fd16020830184610d9b565b9392505050565b6000604082019050610fed6000830185610eba565b8181036020830152610fff8184610daa565b90509392505050565b6000604051905081810181811067ffffffffffffffff8211171561102f5761102e611287565b5b8060405250919050565b600067ffffffffffffffff82111561105457611053611287565b5b601f19601f8301169050602081019050919050565b600081519050919050565b600082825260208201905092915050565b600081905092915050565b600061109b82611162565b91506110a683611162565b9250827fffffffffffffffffffffffffffffffffffffffffffffffffffffffffffffffff038211156110db576110da611229565b5b828201905092915050565b60006110f182611162565b91506110fc83611162565b92508282101561110f5761110e611229565b5b828203905092915050565b600061112582611142565b9050919050565b60008115159050919050565b6000819050919050565b600073ffffffffffffffffffffffffffffffffffffffff82169050919050565b6000819050919050565b82818337600083830152505050565b60005b8381101561119957808201518184015260208101905061117e565b838111156111a8576000848401525b50505050565b600060028204905060018216806111c657607f821691505b602082108114156111da576111d9611258565b5b50919050565b60006111eb82611162565b91507fffffffffffffffffffffffffffffffffffffffffffffffffffffffffffffffff82141561121e5761121d611229565b5b600182019050919050565b7f4e487b7100000000000000000000000000000000000000000000000000000000600052601160045260246000fd5b7f4e487b7100000000000000000000000000000000000000000000000000000000600052602260045260246000fd5b7f4e487b7100000000000000000000000000000000000000000000000000000000600052604160045260246000fd5b6000601f19601f8301169050919050565b6112d08161111a565b81146112db57600080fd5b50565b6112e781611162565b81146112f257600080fd5b5056fea2646970667358221220779d271d60549638fbcb8448f07faede0b20ca753c3f40c469d89d1b9d17dfee64736f6c63430008000033",
  "immutableReferences": {},
  "source": "// SPDX-License-Identifier: GPL-3.0\r\n\r\npragma solidity >=0.8.0;\r\n\r\ncontract Lager{\r\n    \r\n\r\n    address admin = msg.sender;\r\n    \r\n    struct Check {\r\n        string serialNummer;\r\n        uint256 date;\r\n    }\r\n    \r\n    Check[] public check;\r\n\r\n\r\n    \r\n    //definir les variables dont on a besoin:\r\n    mapping (address => bytes32) public filehash;\r\n\r\n    \r\n    // event qui nous permettra d'obtenir nos Hash et le temps \r\n    event Store (uint date, bytes32 Hash);\r\n    event checkIOEbvent(uint date, string);\r\n    //la fonction qui sera appeler pour sauvegarder les Hash\r\n    function storageData ( \r\n        string memory Hash\r\n        )external onlyAdmin returns (bytes32 ){\r\n        filehash[admin] = keccak256(abi.encodePacked(Hash));\r\n        emit Store(block.timestamp, filehash[admin]);\r\n        return filehash[admin];\r\n    }\r\n    \r\n    function hashCompareWithLengthCheck(string memory a, string memory b) internal pure returns (bool) {\r\n        if(bytes(a).length != bytes(b).length) {\r\n            return false;\r\n        } else {\r\n            return keccak256(abi.encodePacked(a)) == keccak256(abi.encodePacked(b));\r\n        }\r\n    }\r\n    \r\n    function exist(string memory _str) internal view returns(bool ){\r\n      bool setter  = false;\r\n      for(uint256 i = 0; i< check.length; i++){\r\n          string memory _SNN = check[i].serialNummer;\r\n          if(hashCompareWithLengthCheck(_str,_SNN) ){\r\n              setter = true;\r\n          }\r\n      }\r\n      \r\n      return setter;\r\n    }\r\n  \r\n    \r\n    function checkIn(string memory _str) public onlyAdmin returns (uint256){\r\n        require( exist(_str) == false,\"serialNummer allredy exist\");\r\n        check.push(Check(_str,block.timestamp));\r\n        emit checkIOEbvent (block.timestamp, _str);\r\n        return (block.timestamp); \r\n    }\r\n    \r\n    function checkOut(string memory _str) public onlyAdmin returns (uint256, bool){\r\n        uint256 during = 0 ;\r\n        bool helper = false;\r\n        for(uint256 i=0; i<check.length; i++){\r\n            if(hashCompareWithLengthCheck( check[i].serialNummer, _str )){\r\n                during = block.timestamp - check[i].date;\r\n                for (uint256 j=i; j<check.length-1; j++){\r\n                    check[j]=check[j+1];\r\n                }\r\n                check.pop();\r\n                helper = true;\r\n            }\r\n        }\r\n        emit checkIOEbvent (during, _str);\r\n        return (during , helper);\r\n    }\r\n          \r\n    modifier onlyAdmin {\r\n      require(msg.sender == admin, \"you are not the manager of this action\");\r\n      _;\r\n   }\r\n}",
  "sourcePath": "C:\\Users\\Alex\\Documents\\Test\\Repos\\Dapp\\Wine_NFTs_Dapp\\contracts\\Lager.sol",
  "compiler": {
    "name": "solc",
    "version": "0.8.0+commit.c7dfd78e.Emscripten.clang"
  },
  "schemaVersion": "3.4.3",
  "updatedAt": "2021-10-04T09:55:58.759Z",
  "networkType": "ethereum",
  "devdoc": {
    "kind": "dev",
    "methods": {},
    "version": 1
  },
  "userdoc": {
    "kind": "user",
    "methods": {},
    "version": 1
  }
}