{
  "contractName": "Sensor",
  "abi": [
    {
      "anonymous": false,
      "inputs": [
        {
          "indexed": false,
          "internalType": "string",
          "name": "date",
          "type": "string"
        },
        {
          "indexed": false,
          "internalType": "bytes32",
          "name": "Hash",
          "type": "bytes32"
        }
      ],
      "name": "storageEvent",
      "type": "event"
    },
    {
      "inputs": [
        {
          "internalType": "uint256",
          "name": "",
          "type": "uint256"
        }
      ],
      "name": "existance",
      "outputs": [
        {
          "internalType": "bool",
          "name": "",
          "type": "bool"
        }
      ],
      "stateMutability": "view",
      "type": "function"
    },
    {
      "inputs": [
        {
          "internalType": "string",
          "name": "",
          "type": "string"
        }
      ],
      "name": "filehash",
      "outputs": [
        {
          "internalType": "bytes32",
          "name": "",
          "type": "bytes32"
        }
      ],
      "stateMutability": "view",
      "type": "function"
    },
    {
      "inputs": [
        {
          "internalType": "string",
          "name": "_date",
          "type": "string"
        },
        {
          "internalType": "string",
          "name": "_hash",
          "type": "string"
        },
        {
          "internalType": "uint256",
          "name": "_sendorId",
          "type": "uint256"
        }
      ],
      "name": "setStorageData",
      "outputs": [
        {
          "internalType": "bytes32",
          "name": "",
          "type": "bytes32"
        }
      ],
      "stateMutability": "nonpayable",
      "type": "function"
    },
    {
      "inputs": [
        {
          "internalType": "string",
          "name": "_date",
          "type": "string"
        }
      ],
      "name": "getStorageData",
      "outputs": [
        {
          "internalType": "bytes32",
          "name": "",
          "type": "bytes32"
        }
      ],
      "stateMutability": "view",
      "type": "function"
    },
    {
      "inputs": [
        {
          "internalType": "uint256",
          "name": "sensorId",
          "type": "uint256"
        },
        {
          "internalType": "string",
          "name": "name",
          "type": "string"
        }
      ],
      "name": "setSensor",
      "outputs": [
        {
          "internalType": "bool",
          "name": "",
          "type": "bool"
        }
      ],
      "stateMutability": "nonpayable",
      "type": "function"
    }
  ],
  "bytecode": "0x6080604052336000806101000a81548173ffffffffffffffffffffffffffffffffffffffff021916908373ffffffffffffffffffffffffffffffffffffffff16021790555034801561005057600080fd5b50610ba6806100606000396000f3fe608060405234801561001057600080fd5b50600436106100575760003560e01c80631ca8d8cb1461005c57806353016f2b1461008c578063cd5f07d4146100bc578063eb951864146100ec578063f694f2cf1461011c575b600080fd5b610076600480360381019061007191906106c1565b61014c565b6040516100839190610943565b60405180910390f35b6100a660048036038101906100a19190610769565b61030c565b6040516100b39190610928565b60405180910390f35b6100d660048036038101906100d19190610740565b61045b565b6040516100e39190610928565b60405180910390f35b61010660048036038101906101019190610680565b61047b565b6040516101139190610943565b60405180910390f35b61013660048036038101906101319190610680565b610532565b6040516101439190610943565b60405180910390f35b60008060009054906101000a900473ffffffffffffffffffffffffffffffffffffffff1673ffffffffffffffffffffffffffffffffffffffff163373ffffffffffffffffffffffffffffffffffffffff16146101dd576040517f08c379a00000000000000000000000000000000000000000000000000000000081526004016101d4906109ae565b60405180910390fd5b600115156003600084815260200190815260200160002060009054906101000a900460ff16151514610244576040517f08c379a000000000000000000000000000000000000000000000000000000000815260040161023b9061098e565b60405180910390fd5b826040516020016102559190610911565b6040516020818303038152906040528051906020012060028560405161027b9190610911565b9081526020016040518091039020819055507f2a229ff136b2c5fb2d6b088eded5c7603d7ea8995c3cec214ea9ea595417177e846002866040516102bf9190610911565b9081526020016040518091039020546040516102dc92919061095e565b60405180910390a16002846040516102f49190610911565b90815260200160405180910390205490509392505050565b60008060009054906101000a900473ffffffffffffffffffffffffffffffffffffffff1673ffffffffffffffffffffffffffffffffffffffff163373ffffffffffffffffffffffffffffffffffffffff161461039d576040517f08c379a0000000000000000000000000000000000000000000000000000000008152600401610394906109ae565b60405180910390fd5b60016040518060400160405280858152602001848152509080600181540180825580915050600190039060005260206000209060020201600090919091909150600082015181600001556020820151816001019080519060200190610403929190610560565b50505060016003600085815260200190815260200160002060006101000a81548160ff0219169083151502179055506003600084815260200190815260200160002060009054906101000a900460ff16905092915050565b60036020528060005260406000206000915054906101000a900460ff1681565b60008060009054906101000a900473ffffffffffffffffffffffffffffffffffffffff1673ffffffffffffffffffffffffffffffffffffffff163373ffffffffffffffffffffffffffffffffffffffff161461050c576040517f08c379a0000000000000000000000000000000000000000000000000000000008152600401610503906109ae565b60405180910390fd5b60028260405161051c9190610911565b9081526020016040518091039020549050919050565b6002818051602081018201805184825260208301602085012081835280955050505050506000915090505481565b82805461056c90610ab8565b90600052602060002090601f01602090048101928261058e57600085556105d5565b82601f106105a757805160ff19168380011785556105d5565b828001600101855582156105d5579182015b828111156105d45782518255916020019190600101906105b9565b5b5090506105e291906105e6565b5090565b5b808211156105ff5760008160009055506001016105e7565b5090565b6000610616610611846109ff565b6109ce565b90508281526020810184848401111561062e57600080fd5b610639848285610a76565b509392505050565b600082601f83011261065257600080fd5b8135610662848260208601610603565b91505092915050565b60008135905061067a81610b59565b92915050565b60006020828403121561069257600080fd5b600082013567ffffffffffffffff8111156106ac57600080fd5b6106b884828501610641565b91505092915050565b6000806000606084860312156106d657600080fd5b600084013567ffffffffffffffff8111156106f057600080fd5b6106fc86828701610641565b935050602084013567ffffffffffffffff81111561071957600080fd5b61072586828701610641565b92505060406107368682870161066b565b9150509250925092565b60006020828403121561075257600080fd5b60006107608482850161066b565b91505092915050565b6000806040838503121561077c57600080fd5b600061078a8582860161066b565b925050602083013567ffffffffffffffff8111156107a757600080fd5b6107b385828601610641565b9150509250929050565b6107c681610a56565b82525050565b6107d581610a62565b82525050565b60006107e682610a2f565b6107f08185610a3a565b9350610800818560208601610a85565b61080981610b48565b840191505092915050565b600061081f82610a2f565b6108298185610a4b565b9350610839818560208601610a85565b80840191505092915050565b6000610852603983610a3a565b91507f5468652073656e646f7220646964277420657869737420706c6561736520636160008301527f6c6c207468652073657453656e736f722066756e6374696f6e000000000000006020830152604082019050919050565b60006108b8602683610a3a565b91507f796f7520617265206e6f7420746865206d616e61676572206f6620746869732060008301527f616374696f6e00000000000000000000000000000000000000000000000000006020830152604082019050919050565b600061091d8284610814565b915081905092915050565b600060208201905061093d60008301846107bd565b92915050565b600060208201905061095860008301846107cc565b92915050565b6000604082019050818103600083015261097881856107db565b905061098760208301846107cc565b9392505050565b600060208201905081810360008301526109a781610845565b9050919050565b600060208201905081810360008301526109c7816108ab565b9050919050565b6000604051905081810181811067ffffffffffffffff821117156109f5576109f4610b19565b5b8060405250919050565b600067ffffffffffffffff821115610a1a57610a19610b19565b5b601f19601f8301169050602081019050919050565b600081519050919050565b600082825260208201905092915050565b600081905092915050565b60008115159050919050565b6000819050919050565b6000819050919050565b82818337600083830152505050565b60005b83811015610aa3578082015181840152602081019050610a88565b83811115610ab2576000848401525b50505050565b60006002820490506001821680610ad057607f821691505b60208210811415610ae457610ae3610aea565b5b50919050565b7f4e487b7100000000000000000000000000000000000000000000000000000000600052602260045260246000fd5b7f4e487b7100000000000000000000000000000000000000000000000000000000600052604160045260246000fd5b6000601f19601f8301169050919050565b610b6281610a6c565b8114610b6d57600080fd5b5056fea2646970667358221220fe3fbb76e017f63c9cd2b1c2a963db211e510481d54b761e1718293ff98d67ce64736f6c63430008000033",
  "immutableReferences": {},
  "source": "// SPDX-License-Identifier: GPL-3.0\r\n\r\npragma solidity >=0.8.0;\r\n\r\n\r\ncontract Sensor{\r\n    address admin = msg.sender;\r\n    \r\n    struct SensorInfos{\r\n        uint256 sensorId;\r\n        string name;\r\n    }\r\n    SensorInfos[] sensor;\r\n    \r\n    mapping (string => bytes32) public filehash;\r\n    mapping(uint256 => bool) public existance;\r\n    \r\n    event storageEvent (string date, bytes32 Hash);\r\n    \r\n    function setStorageData (string memory _date, string memory _hash, uint256 _sendorId) external onlyAdmin returns (bytes32 ){\r\n        require(existance[_sendorId ] == true, \"The sendor did't exist please call the setSensor function\");\r\n        filehash[_date] = keccak256(abi.encodePacked(_hash));\r\n        emit storageEvent(_date, filehash[_date]);\r\n        return filehash[_date];\r\n        //0x0000000000000000000000000000000000000000000000000000000000000000\r\n    }\r\n    \r\n    function getStorageData (string memory _date)external view onlyAdmin returns (bytes32 ){\r\n        return filehash[_date];\r\n    }\r\n    \r\n    function setSensor(uint256 sensorId, string memory name)public onlyAdmin returns(bool){//\r\n        sensor.push(SensorInfos(sensorId,name));\r\n        existance[sensorId] = true;\r\n        return existance[sensorId];\r\n    }\r\n    \r\n    modifier onlyAdmin {\r\n      require(msg.sender == admin, \"you are not the manager of this action\");\r\n      _;\r\n    }\r\n    \r\n}",
  "sourcePath": "C:\\Users\\Alex\\Documents\\Test\\Repos\\Dapp\\Wine_NFTs_Dapp\\contracts\\Sensor.sol",
  "compiler": {
    "name": "solc",
    "version": "0.8.0+commit.c7dfd78e.Emscripten.clang"
  },
  "schemaVersion": "3.4.3",
  "updatedAt": "2021-10-07T00:43:49.728Z",
  "devdoc": {
    "kind": "dev",
    "methods": {},
    "version": 1
  },
  "userdoc": {
    "kind": "user",
    "methods": {},
    "version": 1
  }
}