{
  "contractName": "Sensor",
  "abi": [
    {
      "anonymous": false,
      "inputs": [
        {
          "indexed": false,
          "internalType": "uint256",
          "name": "sendorId",
          "type": "uint256"
        },
        {
          "indexed": false,
          "internalType": "string",
          "name": "name",
          "type": "string"
        }
      ],
      "name": "newSensorEvent",
      "type": "event"
    },
    {
      "anonymous": false,
      "inputs": [
        {
          "indexed": false,
          "internalType": "string",
          "name": "date",
          "type": "string"
        },
        {
          "indexed": false,
          "internalType": "bytes32",
          "name": "Hash",
          "type": "bytes32"
        }
      ],
      "name": "storageEvent",
      "type": "event"
    },
    {
      "inputs": [
        {
          "internalType": "uint256",
          "name": "",
          "type": "uint256"
        }
      ],
      "name": "existance",
      "outputs": [
        {
          "internalType": "bool",
          "name": "",
          "type": "bool"
        }
      ],
      "stateMutability": "view",
      "type": "function"
    },
    {
      "inputs": [
        {
          "internalType": "string",
          "name": "",
          "type": "string"
        }
      ],
      "name": "filehash",
      "outputs": [
        {
          "internalType": "bytes32",
          "name": "",
          "type": "bytes32"
        }
      ],
      "stateMutability": "view",
      "type": "function"
    },
    {
      "inputs": [
        {
          "internalType": "string",
          "name": "_date",
          "type": "string"
        },
        {
          "internalType": "string",
          "name": "_hash",
          "type": "string"
        },
        {
          "internalType": "uint256",
          "name": "_sendorId",
          "type": "uint256"
        }
      ],
      "name": "setStorageData",
      "outputs": [
        {
          "internalType": "bytes32",
          "name": "",
          "type": "bytes32"
        }
      ],
      "stateMutability": "nonpayable",
      "type": "function"
    },
    {
      "inputs": [
        {
          "internalType": "string",
          "name": "_date",
          "type": "string"
        }
      ],
      "name": "getStorageData",
      "outputs": [
        {
          "internalType": "bytes32",
          "name": "",
          "type": "bytes32"
        }
      ],
      "stateMutability": "view",
      "type": "function"
    },
    {
      "inputs": [
        {
          "internalType": "uint256",
          "name": "_sensorId",
          "type": "uint256"
        },
        {
          "internalType": "string",
          "name": "name",
          "type": "string"
        }
      ],
      "name": "setSensor",
      "outputs": [
        {
          "internalType": "bool",
          "name": "",
          "type": "bool"
        }
      ],
      "stateMutability": "nonpayable",
      "type": "function"
    }
  ],
  "bytecode": "0x6080604052336000806101000a81548173ffffffffffffffffffffffffffffffffffffffff021916908373ffffffffffffffffffffffffffffffffffffffff16021790555034801561005057600080fd5b50610ab1806100606000396000f3fe608060405234801561001057600080fd5b50600436106100575760003560e01c80631ca8d8cb1461005c57806353016f2b1461008c578063cd5f07d4146100bc578063eb951864146100ec578063f694f2cf1461011c575b600080fd5b610076600480360381019061007191906105b3565b61014c565b604051610083919061081e565b60405180910390f35b6100a660048036038101906100a1919061065b565b61027d565b6040516100b39190610803565b60405180910390f35b6100d660048036038101906100d19190610632565b6103dc565b6040516100e39190610803565b60405180910390f35b61010660048036038101906101019190610572565b6103fc565b604051610113919061081e565b60405180910390f35b61013660048036038101906101319190610572565b610424565b604051610143919061081e565b60405180910390f35b6000600115156003600084815260200190815260200160002060009054906101000a900460ff161515146101b5576040517f08c379a00000000000000000000000000000000000000000000000000000000081526004016101ac90610869565b60405180910390fd5b826040516020016101c691906107ec565b604051602081830303815290604052805190602001206002856040516101ec91906107ec565b9081526020016040518091039020819055507f2a229ff136b2c5fb2d6b088eded5c7603d7ea8995c3cec214ea9ea595417177e8460028660405161023091906107ec565b90815260200160405180910390205460405161024d929190610839565b60405180910390a160028460405161026591906107ec565b90815260200160405180910390205490509392505050565b60008015156003600085815260200190815260200160002060009054906101000a900460ff161515146102e5576040517f08c379a00000000000000000000000000000000000000000000000000000000081526004016102dc90610889565b60405180910390fd5b6001604051806040016040528085815260200184815250908060018154018082558091505060019003906000526020600020906002020160009091909190915060008201518160000155602082015181600101908051906020019061034b929190610452565b50505060016003600085815260200190815260200160002060006101000a81548160ff0219169083151502179055507f58e98b82115425b13aadde1af21c5b7d52a24cfad53e86e6a3ecb614b4d56d8d83836040516103ab9291906108a9565b60405180910390a16003600084815260200190815260200160002060009054906101000a900460ff16905092915050565b60036020528060005260406000206000915054906101000a900460ff1681565b600060028260405161040e91906107ec565b9081526020016040518091039020549050919050565b6002818051602081018201805184825260208301602085012081835280955050505050506000915090505481565b82805461045e906109c3565b90600052602060002090601f01602090048101928261048057600085556104c7565b82601f1061049957805160ff19168380011785556104c7565b828001600101855582156104c7579182015b828111156104c65782518255916020019190600101906104ab565b5b5090506104d491906104d8565b5090565b5b808211156104f15760008160009055506001016104d9565b5090565b60006105086105038461090a565b6108d9565b90508281526020810184848401111561052057600080fd5b61052b848285610981565b509392505050565b600082601f83011261054457600080fd5b81356105548482602086016104f5565b91505092915050565b60008135905061056c81610a64565b92915050565b60006020828403121561058457600080fd5b600082013567ffffffffffffffff81111561059e57600080fd5b6105aa84828501610533565b91505092915050565b6000806000606084860312156105c857600080fd5b600084013567ffffffffffffffff8111156105e257600080fd5b6105ee86828701610533565b935050602084013567ffffffffffffffff81111561060b57600080fd5b61061786828701610533565b92505060406106288682870161055d565b9150509250925092565b60006020828403121561064457600080fd5b60006106528482850161055d565b91505092915050565b6000806040838503121561066e57600080fd5b600061067c8582860161055d565b925050602083013567ffffffffffffffff81111561069957600080fd5b6106a585828601610533565b9150509250929050565b6106b881610961565b82525050565b6106c78161096d565b82525050565b60006106d88261093a565b6106e28185610945565b93506106f2818560208601610990565b6106fb81610a53565b840191505092915050565b60006107118261093a565b61071b8185610956565b935061072b818560208601610990565b80840191505092915050565b6000610744603983610945565b91507f5468652073656e646f7220646964277420657869737420706c6561736520636160008301527f6c6c207468652073657453656e736f722066756e6374696f6e000000000000006020830152604082019050919050565b60006107aa601a83610945565b91507f746869732073656e736f7220616c7265616479206573786973740000000000006000830152602082019050919050565b6107e681610977565b82525050565b60006107f88284610706565b915081905092915050565b600060208201905061081860008301846106af565b92915050565b600060208201905061083360008301846106be565b92915050565b6000604082019050818103600083015261085381856106cd565b905061086260208301846106be565b9392505050565b6000602082019050818103600083015261088281610737565b9050919050565b600060208201905081810360008301526108a28161079d565b9050919050565b60006040820190506108be60008301856107dd565b81810360208301526108d081846106cd565b90509392505050565b6000604051905081810181811067ffffffffffffffff82111715610900576108ff610a24565b5b8060405250919050565b600067ffffffffffffffff82111561092557610924610a24565b5b601f19601f8301169050602081019050919050565b600081519050919050565b600082825260208201905092915050565b600081905092915050565b60008115159050919050565b6000819050919050565b6000819050919050565b82818337600083830152505050565b60005b838110156109ae578082015181840152602081019050610993565b838111156109bd576000848401525b50505050565b600060028204905060018216806109db57607f821691505b602082108114156109ef576109ee6109f5565b5b50919050565b7f4e487b7100000000000000000000000000000000000000000000000000000000600052602260045260246000fd5b7f4e487b7100000000000000000000000000000000000000000000000000000000600052604160045260246000fd5b6000601f19601f8301169050919050565b610a6d81610977565b8114610a7857600080fd5b5056fea26469706673582212200f0df6af6a51f4ef9e95402a99a6ea2cbb9883f373a5fafaa9ebe9074536f05a64736f6c63430008000033",
  "immutableReferences": {},
  "source": "// SPDX-License-Identifier: GPL-3.0\r\n\r\npragma solidity >=0.7.0 <0.9.0;\r\n\r\ncontract Sensor {\r\n    address admin = msg.sender;\r\n\r\n    struct SensorInfos {\r\n        uint256 sensorId;\r\n        string name;\r\n    }\r\n    SensorInfos[] sensor;\r\n\r\n    mapping(string => bytes32) public filehash;\r\n    mapping(uint256 => bool) public existance;\r\n\r\n    event storageEvent(string date, bytes32 Hash);\r\n\r\n    event newSensorEvent(uint256 sendorId, string name);\r\n\r\n    function setStorageData(\r\n        string memory _date,\r\n        string memory _hash,\r\n        uint256 _sendorId\r\n    ) external returns (bytes32) {\r\n        require(\r\n            existance[_sendorId] == true,\r\n            \"The sendor did't exist please call the setSensor function\"\r\n        );\r\n        filehash[_date] = keccak256(abi.encodePacked(_hash));\r\n        emit storageEvent(_date, filehash[_date]);\r\n        return filehash[_date];\r\n    }\r\n\r\n    function getStorageData(string memory _date)\r\n        external\r\n        view\r\n        returns (bytes32)\r\n    {\r\n        return filehash[_date];\r\n    }\r\n\r\n    function setSensor(uint256 _sensorId, string memory name)\r\n        public\r\n        returns (bool)\r\n    {\r\n        require(existance[_sensorId] == false, \"this sensor already esxist\");\r\n        sensor.push(SensorInfos(_sensorId, name));\r\n        existance[_sensorId] = true;\r\n        emit newSensorEvent(_sensorId, name);\r\n        return existance[_sensorId];\r\n    }\r\n\r\n    modifier onlyAdmin() {\r\n        require(msg.sender == admin, \"you are not the manager of this action\");\r\n        _;\r\n    }\r\n}\r\n",
  "sourcePath": "C:\\Users\\Alex\\Documents\\Test\\Repos\\Dapp\\Wine_NFTs_Dapp\\contracts\\Sensor.sol",
  "compiler": {
    "name": "solc",
    "version": "0.8.0+commit.c7dfd78e.Emscripten.clang"
  },
  "schemaVersion": "3.4.3",
  "updatedAt": "2021-10-11T15:43:18.070Z",
  "devdoc": {
    "kind": "dev",
    "methods": {},
    "version": 1
  },
  "userdoc": {
    "kind": "user",
    "methods": {},
    "version": 1
  }
}