{
  "contractName": "WineNFTs",
  "abi": [
    {
      "inputs": [],
      "stateMutability": "nonpayable",
      "type": "constructor"
    },
    {
      "anonymous": false,
      "inputs": [
        {
          "indexed": true,
          "internalType": "address",
          "name": "owner",
          "type": "address"
        },
        {
          "indexed": true,
          "internalType": "address",
          "name": "approved",
          "type": "address"
        },
        {
          "indexed": true,
          "internalType": "uint256",
          "name": "tokenId",
          "type": "uint256"
        }
      ],
      "name": "Approval",
      "type": "event"
    },
    {
      "anonymous": false,
      "inputs": [
        {
          "indexed": true,
          "internalType": "address",
          "name": "owner",
          "type": "address"
        },
        {
          "indexed": true,
          "internalType": "address",
          "name": "operator",
          "type": "address"
        },
        {
          "indexed": false,
          "internalType": "bool",
          "name": "approved",
          "type": "bool"
        }
      ],
      "name": "ApprovalForAll",
      "type": "event"
    },
    {
      "anonymous": false,
      "inputs": [
        {
          "indexed": true,
          "internalType": "address",
          "name": "previousOwner",
          "type": "address"
        },
        {
          "indexed": true,
          "internalType": "address",
          "name": "newOwner",
          "type": "address"
        }
      ],
      "name": "OwnershipTransferred",
      "type": "event"
    },
    {
      "anonymous": false,
      "inputs": [
        {
          "indexed": true,
          "internalType": "address",
          "name": "from",
          "type": "address"
        },
        {
          "indexed": true,
          "internalType": "address",
          "name": "to",
          "type": "address"
        },
        {
          "indexed": true,
          "internalType": "uint256",
          "name": "tokenId",
          "type": "uint256"
        }
      ],
      "name": "Transfer",
      "type": "event"
    },
    {
      "inputs": [
        {
          "internalType": "address",
          "name": "to",
          "type": "address"
        },
        {
          "internalType": "uint256",
          "name": "tokenId",
          "type": "uint256"
        }
      ],
      "name": "approve",
      "outputs": [],
      "stateMutability": "nonpayable",
      "type": "function"
    },
    {
      "inputs": [
        {
          "internalType": "address",
          "name": "owner",
          "type": "address"
        }
      ],
      "name": "balanceOf",
      "outputs": [
        {
          "internalType": "uint256",
          "name": "",
          "type": "uint256"
        }
      ],
      "stateMutability": "view",
      "type": "function"
    },
    {
      "inputs": [
        {
          "internalType": "uint256",
          "name": "tokenId",
          "type": "uint256"
        }
      ],
      "name": "getApproved",
      "outputs": [
        {
          "internalType": "address",
          "name": "",
          "type": "address"
        }
      ],
      "stateMutability": "view",
      "type": "function"
    },
    {
      "inputs": [
        {
          "internalType": "address",
          "name": "owner",
          "type": "address"
        },
        {
          "internalType": "address",
          "name": "operator",
          "type": "address"
        }
      ],
      "name": "isApprovedForAll",
      "outputs": [
        {
          "internalType": "bool",
          "name": "",
          "type": "bool"
        }
      ],
      "stateMutability": "view",
      "type": "function"
    },
    {
      "inputs": [],
      "name": "name",
      "outputs": [
        {
          "internalType": "string",
          "name": "",
          "type": "string"
        }
      ],
      "stateMutability": "view",
      "type": "function"
    },
    {
      "inputs": [],
      "name": "owner",
      "outputs": [
        {
          "internalType": "address",
          "name": "",
          "type": "address"
        }
      ],
      "stateMutability": "view",
      "type": "function"
    },
    {
      "inputs": [
        {
          "internalType": "uint256",
          "name": "tokenId",
          "type": "uint256"
        }
      ],
      "name": "ownerOf",
      "outputs": [
        {
          "internalType": "address",
          "name": "",
          "type": "address"
        }
      ],
      "stateMutability": "view",
      "type": "function"
    },
    {
      "inputs": [],
      "name": "renounceOwnership",
      "outputs": [],
      "stateMutability": "nonpayable",
      "type": "function"
    },
    {
      "inputs": [
        {
          "internalType": "address",
          "name": "from",
          "type": "address"
        },
        {
          "internalType": "address",
          "name": "to",
          "type": "address"
        },
        {
          "internalType": "uint256",
          "name": "tokenId",
          "type": "uint256"
        }
      ],
      "name": "safeTransferFrom",
      "outputs": [],
      "stateMutability": "nonpayable",
      "type": "function"
    },
    {
      "inputs": [
        {
          "internalType": "address",
          "name": "from",
          "type": "address"
        },
        {
          "internalType": "address",
          "name": "to",
          "type": "address"
        },
        {
          "internalType": "uint256",
          "name": "tokenId",
          "type": "uint256"
        },
        {
          "internalType": "bytes",
          "name": "_data",
          "type": "bytes"
        }
      ],
      "name": "safeTransferFrom",
      "outputs": [],
      "stateMutability": "nonpayable",
      "type": "function"
    },
    {
      "inputs": [
        {
          "internalType": "address",
          "name": "operator",
          "type": "address"
        },
        {
          "internalType": "bool",
          "name": "approved",
          "type": "bool"
        }
      ],
      "name": "setApprovalForAll",
      "outputs": [],
      "stateMutability": "nonpayable",
      "type": "function"
    },
    {
      "inputs": [
        {
          "internalType": "bytes4",
          "name": "interfaceId",
          "type": "bytes4"
        }
      ],
      "name": "supportsInterface",
      "outputs": [
        {
          "internalType": "bool",
          "name": "",
          "type": "bool"
        }
      ],
      "stateMutability": "view",
      "type": "function"
    },
    {
      "inputs": [],
      "name": "symbol",
      "outputs": [
        {
          "internalType": "string",
          "name": "",
          "type": "string"
        }
      ],
      "stateMutability": "view",
      "type": "function"
    },
    {
      "inputs": [
        {
          "internalType": "uint256",
          "name": "tokenId",
          "type": "uint256"
        }
      ],
      "name": "tokenURI",
      "outputs": [
        {
          "internalType": "string",
          "name": "",
          "type": "string"
        }
      ],
      "stateMutability": "view",
      "type": "function"
    },
    {
      "inputs": [
        {
          "internalType": "address",
          "name": "from",
          "type": "address"
        },
        {
          "internalType": "address",
          "name": "to",
          "type": "address"
        },
        {
          "internalType": "uint256",
          "name": "tokenId",
          "type": "uint256"
        }
      ],
      "name": "transferFrom",
      "outputs": [],
      "stateMutability": "nonpayable",
      "type": "function"
    },
    {
      "inputs": [
        {
          "internalType": "address",
          "name": "newOwner",
          "type": "address"
        }
      ],
      "name": "transferOwnership",
      "outputs": [],
      "stateMutability": "nonpayable",
      "type": "function"
    },
    {
      "inputs": [
        {
          "internalType": "string",
          "name": "a",
          "type": "string"
        },
        {
          "internalType": "string",
          "name": "b",
          "type": "string"
        }
      ],
      "name": "hashCompareWithLengthCheck",
      "outputs": [
        {
          "internalType": "bool",
          "name": "",
          "type": "bool"
        }
      ],
      "stateMutability": "pure",
      "type": "function"
    },
    {
      "inputs": [
        {
          "internalType": "string",
          "name": "_Udi",
          "type": "string"
        },
        {
          "internalType": "string",
          "name": "_Uri",
          "type": "string"
        }
      ],
      "name": "mintWineToken",
      "outputs": [
        {
          "internalType": "uint256",
          "name": "",
          "type": "uint256"
        }
      ],
      "stateMutability": "nonpayable",
      "type": "function"
    },
    {
      "inputs": [],
      "name": "getNFTs",
      "outputs": [
        {
          "components": [
            {
              "internalType": "string",
              "name": "Udi",
              "type": "string"
            },
            {
              "internalType": "string",
              "name": "Uri",
              "type": "string"
            }
          ],
          "internalType": "struct WineNFTs.NFTs[]",
          "name": "",
          "type": "tuple[]"
        }
      ],
      "stateMutability": "view",
      "type": "function"
    }
  ],
  "bytecode": "0x608060405260006009553480156200001657600080fd5b506040518060400160405280600481526020017f57696e65000000000000000000000000000000000000000000000000000000008152506040518060400160405280600181526020017f570000000000000000000000000000000000000000000000000000000000000081525081600090805190602001906200009b929190620001ab565b508060019080519060200190620000b4929190620001ab565b505050620000d7620000cb620000dd60201b60201c565b620000e560201b60201c565b620002c0565b600033905090565b6000600660009054906101000a900473ffffffffffffffffffffffffffffffffffffffff16905081600660006101000a81548173ffffffffffffffffffffffffffffffffffffffff021916908373ffffffffffffffffffffffffffffffffffffffff1602179055508173ffffffffffffffffffffffffffffffffffffffff168173ffffffffffffffffffffffffffffffffffffffff167f8be0079c531659141344cd1fd0a4f28419497f9722a3daafe3b4186f6b6457e060405160405180910390a35050565b828054620001b9906200025b565b90600052602060002090601f016020900481019282620001dd576000855562000229565b82601f10620001f857805160ff191683800117855562000229565b8280016001018555821562000229579182015b82811115620002285782518255916020019190600101906200020b565b5b5090506200023891906200023c565b5090565b5b80821115620002575760008160009055506001016200023d565b5090565b600060028204905060018216806200027457607f821691505b602082108114156200028b576200028a62000291565b5b50919050565b7f4e487b7100000000000000000000000000000000000000000000000000000000600052602260045260246000fd5b6132c280620002d06000396000f3fe608060405234801561001057600080fd5b50600436106101215760003560e01c806370a08231116100ad578063a22cb46511610071578063a22cb4651461031c578063b88d4fde14610338578063c87b56dd14610354578063e985e9c514610384578063f2fde38b146103b457610121565b806370a0823114610276578063715018a6146102a65780638739a7e6146102b05780638da5cb5b146102e057806395d89b41146102fe57610121565b8063227212f2116100f4578063227212f2146101c057806323b872dd146101de57806342842e0e146101fa57806345717f28146102165780636352211e1461024657610121565b806301ffc9a71461012657806306fdde0314610156578063081812fc14610174578063095ea7b3146101a4575b600080fd5b610140600480360381019061013b9190612227565b6103d0565b60405161014d9190612bb0565b60405180910390f35b61015e6104b2565b60405161016b9190612bcb565b60405180910390f35b61018e600480360381019061018991906122e5565b610544565b60405161019b9190612b27565b60405180910390f35b6101be60048036038101906101b991906121eb565b6105c9565b005b6101c86106e1565b6040516101d59190612b8e565b60405180910390f35b6101f860048036038101906101f391906120e5565b610864565b005b610214600480360381019061020f91906120e5565b6108c4565b005b610230600480360381019061022b9190612279565b6108e4565b60405161023d9190612bb0565b60405180910390f35b610260600480360381019061025b91906122e5565b610950565b60405161026d9190612b27565b60405180910390f35b610290600480360381019061028b9190612080565b610a02565b60405161029d9190612e0d565b60405180910390f35b6102ae610aba565b005b6102ca60048036038101906102c59190612279565b610b42565b6040516102d79190612e0d565b60405180910390f35b6102e8610d21565b6040516102f59190612b27565b60405180910390f35b610306610d4b565b6040516103139190612bcb565b60405180910390f35b610336600480360381019061033191906121af565b610ddd565b005b610352600480360381019061034d9190612134565b610f5e565b005b61036e600480360381019061036991906122e5565b610fc0565b60405161037b9190612bcb565b60405180910390f35b61039e600480360381019061039991906120a9565b611067565b6040516103ab9190612bb0565b60405180910390f35b6103ce60048036038101906103c99190612080565b6110fb565b005b60007f80ac58cd000000000000000000000000000000000000000000000000000000007bffffffffffffffffffffffffffffffffffffffffffffffffffffffff1916827bffffffffffffffffffffffffffffffffffffffffffffffffffffffff1916148061049b57507f5b5e139f000000000000000000000000000000000000000000000000000000007bffffffffffffffffffffffffffffffffffffffffffffffffffffffff1916827bffffffffffffffffffffffffffffffffffffffffffffffffffffffff1916145b806104ab57506104aa826111f3565b5b9050919050565b6060600080546104c1906130b7565b80601f01602080910402602001604051908101604052809291908181526020018280546104ed906130b7565b801561053a5780601f1061050f5761010080835404028352916020019161053a565b820191906000526020600020905b81548152906001019060200180831161051d57829003601f168201915b5050505050905090565b600061054f8261125d565b61058e576040517f08c379a000000000000000000000000000000000000000000000000000000000815260040161058590612d2d565b60405180910390fd5b6004600083815260200190815260200160002060009054906101000a900473ffffffffffffffffffffffffffffffffffffffff169050919050565b60006105d482610950565b90508073ffffffffffffffffffffffffffffffffffffffff168373ffffffffffffffffffffffffffffffffffffffff161415610645576040517f08c379a000000000000000000000000000000000000000000000000000000000815260040161063c90612dad565b60405180910390fd5b8073ffffffffffffffffffffffffffffffffffffffff166106646112c9565b73ffffffffffffffffffffffffffffffffffffffff16148061069357506106928161068d6112c9565b611067565b5b6106d2576040517f08c379a00000000000000000000000000000000000000000000000000000000081526004016106c990612cad565b60405180910390fd5b6106dc83836112d1565b505050565b6060600a805480602002602001604051908101604052809291908181526020016000905b8282101561085b5783829060005260206000209060020201604051806040016040529081600082018054610738906130b7565b80601f0160208091040260200160405190810160405280929190818152602001828054610764906130b7565b80156107b15780601f10610786576101008083540402835291602001916107b1565b820191906000526020600020905b81548152906001019060200180831161079457829003601f168201915b505050505081526020016001820180546107ca906130b7565b80601f01602080910402602001604051908101604052809291908181526020018280546107f6906130b7565b80156108435780601f1061081857610100808354040283529160200191610843565b820191906000526020600020905b81548152906001019060200180831161082657829003601f168201915b50505050508152505081526020019060010190610705565b50505050905090565b61087561086f6112c9565b8261138a565b6108b4576040517f08c379a00000000000000000000000000000000000000000000000000000000081526004016108ab90612dcd565b60405180910390fd5b6108bf838383611468565b505050565b6108df83838360405180602001604052806000815250610f5e565b505050565b600081518351146108f8576000905061094a565b816040516020016109099190612aec565b60405160208183030381529060405280519060200120836040516020016109309190612aec565b604051602081830303815290604052805190602001201490505b92915050565b6000806002600084815260200190815260200160002060009054906101000a900473ffffffffffffffffffffffffffffffffffffffff169050600073ffffffffffffffffffffffffffffffffffffffff168173ffffffffffffffffffffffffffffffffffffffff1614156109f9576040517f08c379a00000000000000000000000000000000000000000000000000000000081526004016109f090612ced565b60405180910390fd5b80915050919050565b60008073ffffffffffffffffffffffffffffffffffffffff168273ffffffffffffffffffffffffffffffffffffffff161415610a73576040517f08c379a0000000000000000000000000000000000000000000000000000000008152600401610a6a90612ccd565b60405180910390fd5b600360008373ffffffffffffffffffffffffffffffffffffffff1673ffffffffffffffffffffffffffffffffffffffff168152602001908152602001600020549050919050565b610ac26112c9565b73ffffffffffffffffffffffffffffffffffffffff16610ae0610d21565b73ffffffffffffffffffffffffffffffffffffffff1614610b36576040517f08c379a0000000000000000000000000000000000000000000000000000000008152600401610b2d90612d4d565b60405180910390fd5b610b4060006116c4565b565b6000610b4c6112c9565b73ffffffffffffffffffffffffffffffffffffffff16610b6a610d21565b73ffffffffffffffffffffffffffffffffffffffff1614610bc0576040517f08c379a0000000000000000000000000000000000000000000000000000000008152600401610bb790612d4d565b60405180910390fd5b60001515610bcd8461178a565b151514610c0f576040517f08c379a0000000000000000000000000000000000000000000000000000000008152600401610c0690612ded565b60405180910390fd5b6000610c1a846118ab565b90506009546007600083815260200190815260200160002081905550610c533360076000848152602001908152602001600020546118db565b610c70600760008381526020019081526020016000205484611aa9565b600a60405180604001604052808681526020018581525090806001815401808255809150506001900390600052602060002090600202016000909190919091506000820151816000019080519060200190610ccc929190611ea4565b506020820151816001019080519060200190610ce9929190611ea4565b50505060096000815480929190610cff906130e9565b9190505550600760008281526020019081526020016000205491505092915050565b6000600660009054906101000a900473ffffffffffffffffffffffffffffffffffffffff16905090565b606060018054610d5a906130b7565b80601f0160208091040260200160405190810160405280929190818152602001828054610d86906130b7565b8015610dd35780601f10610da857610100808354040283529160200191610dd3565b820191906000526020600020905b815481529060010190602001808311610db657829003601f168201915b5050505050905090565b610de56112c9565b73ffffffffffffffffffffffffffffffffffffffff168273ffffffffffffffffffffffffffffffffffffffff161415610e53576040517f08c379a0000000000000000000000000000000000000000000000000000000008152600401610e4a90612c6d565b60405180910390fd5b8060056000610e606112c9565b73ffffffffffffffffffffffffffffffffffffffff1673ffffffffffffffffffffffffffffffffffffffff16815260200190815260200160002060008473ffffffffffffffffffffffffffffffffffffffff1673ffffffffffffffffffffffffffffffffffffffff16815260200190815260200160002060006101000a81548160ff0219169083151502179055508173ffffffffffffffffffffffffffffffffffffffff16610f0d6112c9565b73ffffffffffffffffffffffffffffffffffffffff167f17307eab39ab6107e8899845ad3d59bd9653f200f220920489ca2b5937696c3183604051610f529190612bb0565b60405180910390a35050565b610f6f610f696112c9565b8361138a565b610fae576040517f08c379a0000000000000000000000000000000000000000000000000000000008152600401610fa590612dcd565b60405180910390fd5b610fba84848484611ad5565b50505050565b6060610fcb8261125d565b61100a576040517f08c379a000000000000000000000000000000000000000000000000000000000815260040161100190612d8d565b60405180910390fd5b6000611014611b31565b90506000815111611034576040518060200160405280600081525061105f565b8061103e84611b48565b60405160200161104f929190612b03565b6040516020818303038152906040525b915050919050565b6000600560008473ffffffffffffffffffffffffffffffffffffffff1673ffffffffffffffffffffffffffffffffffffffff16815260200190815260200160002060008373ffffffffffffffffffffffffffffffffffffffff1673ffffffffffffffffffffffffffffffffffffffff16815260200190815260200160002060009054906101000a900460ff16905092915050565b6111036112c9565b73ffffffffffffffffffffffffffffffffffffffff16611121610d21565b73ffffffffffffffffffffffffffffffffffffffff1614611177576040517f08c379a000000000000000000000000000000000000000000000000000000000815260040161116e90612d4d565b60405180910390fd5b600073ffffffffffffffffffffffffffffffffffffffff168173ffffffffffffffffffffffffffffffffffffffff1614156111e7576040517f08c379a00000000000000000000000000000000000000000000000000000000081526004016111de90612c0d565b60405180910390fd5b6111f0816116c4565b50565b60007f01ffc9a7000000000000000000000000000000000000000000000000000000007bffffffffffffffffffffffffffffffffffffffffffffffffffffffff1916827bffffffffffffffffffffffffffffffffffffffffffffffffffffffff1916149050919050565b60008073ffffffffffffffffffffffffffffffffffffffff166002600084815260200190815260200160002060009054906101000a900473ffffffffffffffffffffffffffffffffffffffff1673ffffffffffffffffffffffffffffffffffffffff1614159050919050565b600033905090565b816004600083815260200190815260200160002060006101000a81548173ffffffffffffffffffffffffffffffffffffffff021916908373ffffffffffffffffffffffffffffffffffffffff160217905550808273ffffffffffffffffffffffffffffffffffffffff1661134483610950565b73ffffffffffffffffffffffffffffffffffffffff167f8c5be1e5ebec7d5bd14f71427d1e84f3dd0314c0f7b2291e5b200ac8c7c3b92560405160405180910390a45050565b60006113958261125d565b6113d4576040517f08c379a00000000000000000000000000000000000000000000000000000000081526004016113cb90612c8d565b60405180910390fd5b60006113df83610950565b90508073ffffffffffffffffffffffffffffffffffffffff168473ffffffffffffffffffffffffffffffffffffffff16148061144e57508373ffffffffffffffffffffffffffffffffffffffff1661143684610544565b73ffffffffffffffffffffffffffffffffffffffff16145b8061145f575061145e8185611067565b5b91505092915050565b8273ffffffffffffffffffffffffffffffffffffffff1661148882610950565b73ffffffffffffffffffffffffffffffffffffffff16146114de576040517f08c379a00000000000000000000000000000000000000000000000000000000081526004016114d590612d6d565b60405180910390fd5b600073ffffffffffffffffffffffffffffffffffffffff168273ffffffffffffffffffffffffffffffffffffffff16141561154e576040517f08c379a000000000000000000000000000000000000000000000000000000000815260040161154590612c4d565b60405180910390fd5b611559838383611cf5565b6115646000826112d1565b6001600360008573ffffffffffffffffffffffffffffffffffffffff1673ffffffffffffffffffffffffffffffffffffffff16815260200190815260200160002060008282546115b49190612fcd565b925050819055506001600360008473ffffffffffffffffffffffffffffffffffffffff1673ffffffffffffffffffffffffffffffffffffffff168152602001908152602001600020600082825461160b9190612f46565b92505081905550816002600083815260200190815260200160002060006101000a81548173ffffffffffffffffffffffffffffffffffffffff021916908373ffffffffffffffffffffffffffffffffffffffff160217905550808273ffffffffffffffffffffffffffffffffffffffff168473ffffffffffffffffffffffffffffffffffffffff167fddf252ad1be2c89b69c2b068fc378daa952ba7f163c4a11628f55a4df523b3ef60405160405180910390a4505050565b6000600660009054906101000a900473ffffffffffffffffffffffffffffffffffffffff16905081600660006101000a81548173ffffffffffffffffffffffffffffffffffffffff021916908373ffffffffffffffffffffffffffffffffffffffff1602179055508173ffffffffffffffffffffffffffffffffffffffff168173ffffffffffffffffffffffffffffffffffffffff167f8be0079c531659141344cd1fd0a4f28419497f9722a3daafe3b4186f6b6457e060405160405180910390a35050565b6000806000905060005b600a805490508110156118a1576000600a82815481106117dd577f4e487b7100000000000000000000000000000000000000000000000000000000600052603260045260246000fd5b906000526020600020906002020160000180546117f9906130b7565b80601f0160208091040260200160405190810160405280929190818152602001828054611825906130b7565b80156118725780601f1061184757610100808354040283529160200191611872565b820191906000526020600020905b81548152906001019060200180831161185557829003601f168201915b5050505050905061188381866108e4565b1561188d57600192505b508080611899906130e9565b915050611794565b5080915050919050565b6000816040516020016118be9190612aec565b604051602081830303815290604052805190602001209050919050565b600073ffffffffffffffffffffffffffffffffffffffff168273ffffffffffffffffffffffffffffffffffffffff16141561194b576040517f08c379a000000000000000000000000000000000000000000000000000000000815260040161194290612d0d565b60405180910390fd5b6119548161125d565b15611994576040517f08c379a000000000000000000000000000000000000000000000000000000000815260040161198b90612c2d565b60405180910390fd5b6119a060008383611cf5565b6001600360008473ffffffffffffffffffffffffffffffffffffffff1673ffffffffffffffffffffffffffffffffffffffff16815260200190815260200160002060008282546119f09190612f46565b92505081905550816002600083815260200190815260200160002060006101000a81548173ffffffffffffffffffffffffffffffffffffffff021916908373ffffffffffffffffffffffffffffffffffffffff160217905550808273ffffffffffffffffffffffffffffffffffffffff16600073ffffffffffffffffffffffffffffffffffffffff167fddf252ad1be2c89b69c2b068fc378daa952ba7f163c4a11628f55a4df523b3ef60405160405180910390a45050565b80600860008481526020019081526020016000209080519060200190611ad0929190611ea4565b505050565b611ae0848484611468565b611aec84848484611cfa565b611b2b576040517f08c379a0000000000000000000000000000000000000000000000000000000008152600401611b2290612bed565b60405180910390fd5b50505050565b606060405180602001604052806000815250905090565b60606000821415611b90576040518060400160405280600181526020017f30000000000000000000000000000000000000000000000000000000000000008152509050611cf0565b600082905060005b60008214611bc2578080611bab906130e9565b915050600a82611bbb9190612f9c565b9150611b98565b60008167ffffffffffffffff811115611c04577f4e487b7100000000000000000000000000000000000000000000000000000000600052604160045260246000fd5b6040519080825280601f01601f191660200182016040528015611c365781602001600182028036833780820191505090505b5090505b60008514611ce957600182611c4f9190612fcd565b9150600a85611c5e9190613132565b6030611c6a9190612f46565b60f81b818381518110611ca6577f4e487b7100000000000000000000000000000000000000000000000000000000600052603260045260246000fd5b60200101907effffffffffffffffffffffffffffffffffffffffffffffffffffffffffffff1916908160001a905350600a85611ce29190612f9c565b9450611c3a565b8093505050505b919050565b505050565b6000611d1b8473ffffffffffffffffffffffffffffffffffffffff16611e91565b15611e84578373ffffffffffffffffffffffffffffffffffffffff1663150b7a02611d446112c9565b8786866040518563ffffffff1660e01b8152600401611d669493929190612b42565b602060405180830381600087803b158015611d8057600080fd5b505af1925050508015611db157506040513d601f19601f82011682018060405250810190611dae9190612250565b60015b611e34573d8060008114611de1576040519150601f19603f3d011682016040523d82523d6000602084013e611de6565b606091505b50600081511415611e2c576040517f08c379a0000000000000000000000000000000000000000000000000000000008152600401611e2390612bed565b60405180910390fd5b805181602001fd5b63150b7a0260e01b7bffffffffffffffffffffffffffffffffffffffffffffffffffffffff1916817bffffffffffffffffffffffffffffffffffffffffffffffffffffffff191614915050611e89565b600190505b949350505050565b600080823b905060008111915050919050565b828054611eb0906130b7565b90600052602060002090601f016020900481019282611ed25760008555611f19565b82601f10611eeb57805160ff1916838001178555611f19565b82800160010185558215611f19579182015b82811115611f18578251825591602001919060010190611efd565b5b509050611f269190611f2a565b5090565b5b80821115611f43576000816000905550600101611f2b565b5090565b6000611f5a611f5584612e59565b612e28565b905082815260208101848484011115611f7257600080fd5b611f7d848285613075565b509392505050565b6000611f98611f9384612e89565b612e28565b905082815260208101848484011115611fb057600080fd5b611fbb848285613075565b509392505050565b600081359050611fd281613230565b92915050565b600081359050611fe781613247565b92915050565b600081359050611ffc8161325e565b92915050565b6000815190506120118161325e565b92915050565b600082601f83011261202857600080fd5b8135612038848260208601611f47565b91505092915050565b600082601f83011261205257600080fd5b8135612062848260208601611f85565b91505092915050565b60008135905061207a81613275565b92915050565b60006020828403121561209257600080fd5b60006120a084828501611fc3565b91505092915050565b600080604083850312156120bc57600080fd5b60006120ca85828601611fc3565b92505060206120db85828601611fc3565b9150509250929050565b6000806000606084860312156120fa57600080fd5b600061210886828701611fc3565b935050602061211986828701611fc3565b925050604061212a8682870161206b565b9150509250925092565b6000806000806080858703121561214a57600080fd5b600061215887828801611fc3565b945050602061216987828801611fc3565b935050604061217a8782880161206b565b925050606085013567ffffffffffffffff81111561219757600080fd5b6121a387828801612017565b91505092959194509250565b600080604083850312156121c257600080fd5b60006121d085828601611fc3565b92505060206121e185828601611fd8565b9150509250929050565b600080604083850312156121fe57600080fd5b600061220c85828601611fc3565b925050602061221d8582860161206b565b9150509250929050565b60006020828403121561223957600080fd5b600061224784828501611fed565b91505092915050565b60006020828403121561226257600080fd5b600061227084828501612002565b91505092915050565b6000806040838503121561228c57600080fd5b600083013567ffffffffffffffff8111156122a657600080fd5b6122b285828601612041565b925050602083013567ffffffffffffffff8111156122cf57600080fd5b6122db85828601612041565b9150509250929050565b6000602082840312156122f757600080fd5b60006123058482850161206b565b91505092915050565b600061231a8383612a99565b905092915050565b61232b81613001565b82525050565b600061233c82612ec9565b6123468185612ef7565b93508360208202850161235885612eb9565b8060005b858110156123945784840389528151612375858261230e565b945061238083612eea565b925060208a0199505060018101905061235c565b50829750879550505050505092915050565b6123af81613013565b82525050565b60006123c082612ed4565b6123ca8185612f08565b93506123da818560208601613084565b6123e38161321f565b840191505092915050565b60006123f982612edf565b6124038185612f19565b9350612413818560208601613084565b61241c8161321f565b840191505092915050565b600061243282612edf565b61243c8185612f2a565b935061244c818560208601613084565b6124558161321f565b840191505092915050565b600061246b82612edf565b6124758185612f3b565b9350612485818560208601613084565b80840191505092915050565b600061249e603283612f2a565b91507f4552433732313a207472616e7366657220746f206e6f6e20455243373231526560008301527f63656976657220696d706c656d656e74657200000000000000000000000000006020830152604082019050919050565b6000612504602683612f2a565b91507f4f776e61626c653a206e6577206f776e657220697320746865207a65726f206160008301527f64647265737300000000000000000000000000000000000000000000000000006020830152604082019050919050565b600061256a601c83612f2a565b91507f4552433732313a20746f6b656e20616c7265616479206d696e746564000000006000830152602082019050919050565b60006125aa602483612f2a565b91507f4552433732313a207472616e7366657220746f20746865207a65726f2061646460008301527f72657373000000000000000000000000000000000000000000000000000000006020830152604082019050919050565b6000612610601983612f2a565b91507f4552433732313a20617070726f766520746f2063616c6c6572000000000000006000830152602082019050919050565b6000612650602c83612f2a565b91507f4552433732313a206f70657261746f7220717565727920666f72206e6f6e657860008301527f697374656e7420746f6b656e00000000000000000000000000000000000000006020830152604082019050919050565b60006126b6603883612f2a565b91507f4552433732313a20617070726f76652063616c6c6572206973206e6f74206f7760008301527f6e6572206e6f7220617070726f76656420666f7220616c6c00000000000000006020830152604082019050919050565b600061271c602a83612f2a565b91507f4552433732313a2062616c616e636520717565727920666f7220746865207a6560008301527f726f2061646472657373000000000000000000000000000000000000000000006020830152604082019050919050565b6000612782602983612f2a565b91507f4552433732313a206f776e657220717565727920666f72206e6f6e657869737460008301527f656e7420746f6b656e00000000000000000000000000000000000000000000006020830152604082019050919050565b60006127e8602083612f2a565b91507f4552433732313a206d696e7420746f20746865207a65726f20616464726573736000830152602082019050919050565b6000612828602c83612f2a565b91507f4552433732313a20617070726f76656420717565727920666f72206e6f6e657860008301527f697374656e7420746f6b656e00000000000000000000000000000000000000006020830152604082019050919050565b600061288e602083612f2a565b91507f4f776e61626c653a2063616c6c6572206973206e6f7420746865206f776e65726000830152602082019050919050565b60006128ce602983612f2a565b91507f4552433732313a207472616e73666572206f6620746f6b656e2074686174206960008301527f73206e6f74206f776e00000000000000000000000000000000000000000000006020830152604082019050919050565b6000612934602f83612f2a565b91507f4552433732314d657461646174613a2055524920717565727920666f72206e6f60008301527f6e6578697374656e7420746f6b656e00000000000000000000000000000000006020830152604082019050919050565b600061299a602183612f2a565b91507f4552433732313a20617070726f76616c20746f2063757272656e74206f776e6560008301527f72000000000000000000000000000000000000000000000000000000000000006020830152604082019050919050565b6000612a00603183612f2a565b91507f4552433732313a207472616e736665722063616c6c6572206973206e6f74206f60008301527f776e6572206e6f7220617070726f7665640000000000000000000000000000006020830152604082019050919050565b6000612a66601383612f2a565b91507f746f6b656e20616c72656479206d696e746564000000000000000000000000006000830152602082019050919050565b60006040830160008301518482036000860152612ab682826123ee565b91505060208301518482036020860152612ad082826123ee565b9150508091505092915050565b612ae68161306b565b82525050565b6000612af88284612460565b915081905092915050565b6000612b0f8285612460565b9150612b1b8284612460565b91508190509392505050565b6000602082019050612b3c6000830184612322565b92915050565b6000608082019050612b576000830187612322565b612b646020830186612322565b612b716040830185612add565b8181036060830152612b8381846123b5565b905095945050505050565b60006020820190508181036000830152612ba88184612331565b905092915050565b6000602082019050612bc560008301846123a6565b92915050565b60006020820190508181036000830152612be58184612427565b905092915050565b60006020820190508181036000830152612c0681612491565b9050919050565b60006020820190508181036000830152612c26816124f7565b9050919050565b60006020820190508181036000830152612c468161255d565b9050919050565b60006020820190508181036000830152612c668161259d565b9050919050565b60006020820190508181036000830152612c8681612603565b9050919050565b60006020820190508181036000830152612ca681612643565b9050919050565b60006020820190508181036000830152612cc6816126a9565b9050919050565b60006020820190508181036000830152612ce68161270f565b9050919050565b60006020820190508181036000830152612d0681612775565b9050919050565b60006020820190508181036000830152612d26816127db565b9050919050565b60006020820190508181036000830152612d468161281b565b9050919050565b60006020820190508181036000830152612d6681612881565b9050919050565b60006020820190508181036000830152612d86816128c1565b9050919050565b60006020820190508181036000830152612da681612927565b9050919050565b60006020820190508181036000830152612dc68161298d565b9050919050565b60006020820190508181036000830152612de6816129f3565b9050919050565b60006020820190508181036000830152612e0681612a59565b9050919050565b6000602082019050612e226000830184612add565b92915050565b6000604051905081810181811067ffffffffffffffff82111715612e4f57612e4e6131f0565b5b8060405250919050565b600067ffffffffffffffff821115612e7457612e736131f0565b5b601f19601f8301169050602081019050919050565b600067ffffffffffffffff821115612ea457612ea36131f0565b5b601f19601f8301169050602081019050919050565b6000819050602082019050919050565b600081519050919050565b600081519050919050565b600081519050919050565b6000602082019050919050565b600082825260208201905092915050565b600082825260208201905092915050565b600082825260208201905092915050565b600082825260208201905092915050565b600081905092915050565b6000612f518261306b565b9150612f5c8361306b565b9250827fffffffffffffffffffffffffffffffffffffffffffffffffffffffffffffffff03821115612f9157612f90613163565b5b828201905092915050565b6000612fa78261306b565b9150612fb28361306b565b925082612fc257612fc1613192565b5b828204905092915050565b6000612fd88261306b565b9150612fe38361306b565b925082821015612ff657612ff5613163565b5b828203905092915050565b600061300c8261304b565b9050919050565b60008115159050919050565b60007fffffffff0000000000000000000000000000000000000000000000000000000082169050919050565b600073ffffffffffffffffffffffffffffffffffffffff82169050919050565b6000819050919050565b82818337600083830152505050565b60005b838110156130a2578082015181840152602081019050613087565b838111156130b1576000848401525b50505050565b600060028204905060018216806130cf57607f821691505b602082108114156130e3576130e26131c1565b5b50919050565b60006130f48261306b565b91507fffffffffffffffffffffffffffffffffffffffffffffffffffffffffffffffff82141561312757613126613163565b5b600182019050919050565b600061313d8261306b565b91506131488361306b565b92508261315857613157613192565b5b828206905092915050565b7f4e487b7100000000000000000000000000000000000000000000000000000000600052601160045260246000fd5b7f4e487b7100000000000000000000000000000000000000000000000000000000600052601260045260246000fd5b7f4e487b7100000000000000000000000000000000000000000000000000000000600052602260045260246000fd5b7f4e487b7100000000000000000000000000000000000000000000000000000000600052604160045260246000fd5b6000601f19601f8301169050919050565b61323981613001565b811461324457600080fd5b50565b61325081613013565b811461325b57600080fd5b50565b6132678161301f565b811461327257600080fd5b50565b61327e8161306b565b811461328957600080fd5b5056fea264697066735822122031c3ce0a51449ae54cf7fb101bce46b826715420e8fc7c39e61c79c69e13000964736f6c63430008000033",
  "immutableReferences": {},
  "source": "\r\n// SPDX-License-Identifier: MIT\r\npragma solidity >=0.8.0;\r\n\r\nimport \"@openzeppelin/contracts/token/ERC721/ERC721.sol\";\r\nimport \"@openzeppelin/contracts/access/Ownable.sol\";\r\n\r\ncontract WineNFTs is ERC721, Ownable {\r\n    \r\n\r\n    mapping (bytes32 => uint256)  id ; // to store Uid from sting / bytes32 to uint256\r\n    mapping(uint256 => string) _tokenURIs; // to store nfts uri\r\n    \r\n    uint256 counter = 0;// for itterate nfts minting\r\n    \r\n    \r\n   struct NFTs{\r\n       string  Udi;\r\n       string Uri;}\r\n  \r\n   //arrays of nfts present with this Smart contract ;\r\n   NFTs[]  nfts;\r\n\r\n\r\n    constructor() ERC721(\"Wine\", \"W\") {}\r\n    \r\n    //User\r\n    function setUid(string memory _x) internal pure returns(bytes32 ){\r\n        return keccak256(abi.encodePacked(_x));\r\n    }\r\n    \r\n    function _setTokenURI(uint256 tokenId, string memory _tokenURI) internal {\r\n        _tokenURIs[tokenId] = _tokenURI;\r\n    }\r\n  \r\n  function hashCompareWithLengthCheck(string memory a, string memory b) public pure returns (bool) {\r\n        if(bytes(a).length != bytes(b).length) {\r\n            return false;\r\n        } else {\r\n            return keccak256(abi.encodePacked(a)) == keccak256(abi.encodePacked(b));\r\n        }\r\n   }\r\n  \r\n  function exist(string memory _Udi) internal view returns(bool ){\r\n      bool setter  = false;\r\n      for(uint256 i = 0; i< nfts.length; i++){\r\n          string memory _str = nfts[i].Udi;\r\n          if(hashCompareWithLengthCheck(_str,_Udi) ){\r\n              setter = true;\r\n          }\r\n      }\r\n      \r\n      return setter;\r\n    }\r\n\r\n  function mintWineToken(string memory _Udi, string memory _Uri) public onlyOwner returns (uint256) {\r\n        \r\n        require(exist(_Udi) == false, \"token alredy minted\");\r\n        bytes32 newSN = setUid(_Udi);\r\n        id[newSN] = counter;\r\n        _mint(msg.sender, id[newSN]);\r\n        _setTokenURI(id[newSN], _Uri);\r\n        nfts.push(NFTs(_Udi, _Uri));\r\n        counter++;\r\n        return id[newSN] ;\r\n    }\r\n    \r\n  function getNFTs() external view  returns(NFTs[] memory){\r\n        return (nfts);\r\n    }\r\n    \r\n}",
  "sourcePath": "C:\\Users\\Alex\\Documents\\Test\\Repos\\Dapp\\Wine_NFTs_Dapp\\contracts\\WineNFTs.sol",
  "compiler": {
    "name": "solc",
    "version": "0.8.0+commit.c7dfd78e.Emscripten.clang"
  },
  "schemaVersion": "3.4.3",
  "updatedAt": "2021-10-07T00:43:49.742Z",
  "devdoc": {
    "kind": "dev",
    "methods": {
      "approve(address,uint256)": {
        "details": "See {IERC721-approve}."
      },
      "balanceOf(address)": {
        "details": "See {IERC721-balanceOf}."
      },
      "getApproved(uint256)": {
        "details": "See {IERC721-getApproved}."
      },
      "isApprovedForAll(address,address)": {
        "details": "See {IERC721-isApprovedForAll}."
      },
      "name()": {
        "details": "See {IERC721Metadata-name}."
      },
      "owner()": {
        "details": "Returns the address of the current owner."
      },
      "ownerOf(uint256)": {
        "details": "See {IERC721-ownerOf}."
      },
      "renounceOwnership()": {
        "details": "Leaves the contract without owner. It will not be possible to call `onlyOwner` functions anymore. Can only be called by the current owner. NOTE: Renouncing ownership will leave the contract without an owner, thereby removing any functionality that is only available to the owner."
      },
      "safeTransferFrom(address,address,uint256)": {
        "details": "See {IERC721-safeTransferFrom}."
      },
      "safeTransferFrom(address,address,uint256,bytes)": {
        "details": "See {IERC721-safeTransferFrom}."
      },
      "setApprovalForAll(address,bool)": {
        "details": "See {IERC721-setApprovalForAll}."
      },
      "supportsInterface(bytes4)": {
        "details": "See {IERC165-supportsInterface}."
      },
      "symbol()": {
        "details": "See {IERC721Metadata-symbol}."
      },
      "tokenURI(uint256)": {
        "details": "See {IERC721Metadata-tokenURI}."
      },
      "transferFrom(address,address,uint256)": {
        "details": "See {IERC721-transferFrom}."
      },
      "transferOwnership(address)": {
        "details": "Transfers ownership of the contract to a new account (`newOwner`). Can only be called by the current owner."
      }
    },
    "version": 1
  },
  "userdoc": {
    "kind": "user",
    "methods": {},
    "version": 1
  }
}