{
  "contractName": "WineNFTs",
  "abi": [
    {
      "inputs": [],
      "stateMutability": "nonpayable",
      "type": "constructor"
    },
    {
      "anonymous": false,
      "inputs": [
        {
          "indexed": true,
          "internalType": "address",
          "name": "owner",
          "type": "address"
        },
        {
          "indexed": true,
          "internalType": "address",
          "name": "approved",
          "type": "address"
        },
        {
          "indexed": true,
          "internalType": "uint256",
          "name": "tokenId",
          "type": "uint256"
        }
      ],
      "name": "Approval",
      "type": "event"
    },
    {
      "anonymous": false,
      "inputs": [
        {
          "indexed": true,
          "internalType": "address",
          "name": "owner",
          "type": "address"
        },
        {
          "indexed": true,
          "internalType": "address",
          "name": "operator",
          "type": "address"
        },
        {
          "indexed": false,
          "internalType": "bool",
          "name": "approved",
          "type": "bool"
        }
      ],
      "name": "ApprovalForAll",
      "type": "event"
    },
    {
      "anonymous": false,
      "inputs": [
        {
          "indexed": true,
          "internalType": "address",
          "name": "previousOwner",
          "type": "address"
        },
        {
          "indexed": true,
          "internalType": "address",
          "name": "newOwner",
          "type": "address"
        }
      ],
      "name": "OwnershipTransferred",
      "type": "event"
    },
    {
      "anonymous": false,
      "inputs": [
        {
          "indexed": true,
          "internalType": "address",
          "name": "from",
          "type": "address"
        },
        {
          "indexed": true,
          "internalType": "address",
          "name": "to",
          "type": "address"
        },
        {
          "indexed": true,
          "internalType": "uint256",
          "name": "tokenId",
          "type": "uint256"
        }
      ],
      "name": "Transfer",
      "type": "event"
    },
    {
      "inputs": [
        {
          "internalType": "address",
          "name": "to",
          "type": "address"
        },
        {
          "internalType": "uint256",
          "name": "tokenId",
          "type": "uint256"
        }
      ],
      "name": "approve",
      "outputs": [],
      "stateMutability": "nonpayable",
      "type": "function"
    },
    {
      "inputs": [
        {
          "internalType": "address",
          "name": "owner",
          "type": "address"
        }
      ],
      "name": "balanceOf",
      "outputs": [
        {
          "internalType": "uint256",
          "name": "",
          "type": "uint256"
        }
      ],
      "stateMutability": "view",
      "type": "function"
    },
    {
      "inputs": [
        {
          "internalType": "uint256",
          "name": "tokenId",
          "type": "uint256"
        }
      ],
      "name": "getApproved",
      "outputs": [
        {
          "internalType": "address",
          "name": "",
          "type": "address"
        }
      ],
      "stateMutability": "view",
      "type": "function"
    },
    {
      "inputs": [
        {
          "internalType": "address",
          "name": "owner",
          "type": "address"
        },
        {
          "internalType": "address",
          "name": "operator",
          "type": "address"
        }
      ],
      "name": "isApprovedForAll",
      "outputs": [
        {
          "internalType": "bool",
          "name": "",
          "type": "bool"
        }
      ],
      "stateMutability": "view",
      "type": "function"
    },
    {
      "inputs": [],
      "name": "name",
      "outputs": [
        {
          "internalType": "string",
          "name": "",
          "type": "string"
        }
      ],
      "stateMutability": "view",
      "type": "function"
    },
    {
      "inputs": [],
      "name": "owner",
      "outputs": [
        {
          "internalType": "address",
          "name": "",
          "type": "address"
        }
      ],
      "stateMutability": "view",
      "type": "function"
    },
    {
      "inputs": [
        {
          "internalType": "uint256",
          "name": "tokenId",
          "type": "uint256"
        }
      ],
      "name": "ownerOf",
      "outputs": [
        {
          "internalType": "address",
          "name": "",
          "type": "address"
        }
      ],
      "stateMutability": "view",
      "type": "function"
    },
    {
      "inputs": [],
      "name": "renounceOwnership",
      "outputs": [],
      "stateMutability": "nonpayable",
      "type": "function"
    },
    {
      "inputs": [
        {
          "internalType": "address",
          "name": "from",
          "type": "address"
        },
        {
          "internalType": "address",
          "name": "to",
          "type": "address"
        },
        {
          "internalType": "uint256",
          "name": "tokenId",
          "type": "uint256"
        }
      ],
      "name": "safeTransferFrom",
      "outputs": [],
      "stateMutability": "nonpayable",
      "type": "function"
    },
    {
      "inputs": [
        {
          "internalType": "address",
          "name": "from",
          "type": "address"
        },
        {
          "internalType": "address",
          "name": "to",
          "type": "address"
        },
        {
          "internalType": "uint256",
          "name": "tokenId",
          "type": "uint256"
        },
        {
          "internalType": "bytes",
          "name": "_data",
          "type": "bytes"
        }
      ],
      "name": "safeTransferFrom",
      "outputs": [],
      "stateMutability": "nonpayable",
      "type": "function"
    },
    {
      "inputs": [
        {
          "internalType": "address",
          "name": "operator",
          "type": "address"
        },
        {
          "internalType": "bool",
          "name": "approved",
          "type": "bool"
        }
      ],
      "name": "setApprovalForAll",
      "outputs": [],
      "stateMutability": "nonpayable",
      "type": "function"
    },
    {
      "inputs": [
        {
          "internalType": "bytes4",
          "name": "interfaceId",
          "type": "bytes4"
        }
      ],
      "name": "supportsInterface",
      "outputs": [
        {
          "internalType": "bool",
          "name": "",
          "type": "bool"
        }
      ],
      "stateMutability": "view",
      "type": "function"
    },
    {
      "inputs": [],
      "name": "symbol",
      "outputs": [
        {
          "internalType": "string",
          "name": "",
          "type": "string"
        }
      ],
      "stateMutability": "view",
      "type": "function"
    },
    {
      "inputs": [
        {
          "internalType": "uint256",
          "name": "tokenId",
          "type": "uint256"
        }
      ],
      "name": "tokenURI",
      "outputs": [
        {
          "internalType": "string",
          "name": "",
          "type": "string"
        }
      ],
      "stateMutability": "view",
      "type": "function"
    },
    {
      "inputs": [
        {
          "internalType": "address",
          "name": "from",
          "type": "address"
        },
        {
          "internalType": "address",
          "name": "to",
          "type": "address"
        },
        {
          "internalType": "uint256",
          "name": "tokenId",
          "type": "uint256"
        }
      ],
      "name": "transferFrom",
      "outputs": [],
      "stateMutability": "nonpayable",
      "type": "function"
    },
    {
      "inputs": [
        {
          "internalType": "address",
          "name": "newOwner",
          "type": "address"
        }
      ],
      "name": "transferOwnership",
      "outputs": [],
      "stateMutability": "nonpayable",
      "type": "function"
    },
    {
      "inputs": [
        {
          "internalType": "string",
          "name": "a",
          "type": "string"
        },
        {
          "internalType": "string",
          "name": "b",
          "type": "string"
        }
      ],
      "name": "hashCompareWithLengthCheck",
      "outputs": [
        {
          "internalType": "bool",
          "name": "",
          "type": "bool"
        }
      ],
      "stateMutability": "pure",
      "type": "function"
    },
    {
      "inputs": [
        {
          "internalType": "string",
          "name": "_Udi",
          "type": "string"
        }
      ],
      "name": "alreadyExist",
      "outputs": [
        {
          "internalType": "bool",
          "name": "",
          "type": "bool"
        }
      ],
      "stateMutability": "view",
      "type": "function"
    },
    {
      "inputs": [
        {
          "internalType": "string",
          "name": "_Udi",
          "type": "string"
        },
        {
          "internalType": "string",
          "name": "_Uri",
          "type": "string"
        }
      ],
      "name": "mintWineToken",
      "outputs": [
        {
          "internalType": "uint256",
          "name": "",
          "type": "uint256"
        }
      ],
      "stateMutability": "nonpayable",
      "type": "function"
    },
    {
      "inputs": [],
      "name": "getNFTs",
      "outputs": [
        {
          "components": [
            {
              "internalType": "string",
              "name": "Udi",
              "type": "string"
            },
            {
              "internalType": "string",
              "name": "Uri",
              "type": "string"
            }
          ],
          "internalType": "struct WineNFTs.NFTs[]",
          "name": "",
          "type": "tuple[]"
        }
      ],
      "stateMutability": "view",
      "type": "function"
    }
  ],
  "bytecode": "0x608060405260006009553480156200001657600080fd5b506040518060400160405280600481526020017f57696e65000000000000000000000000000000000000000000000000000000008152506040518060400160405280600181526020017f570000000000000000000000000000000000000000000000000000000000000081525081600090805190602001906200009b929190620001ab565b508060019080519060200190620000b4929190620001ab565b505050620000d7620000cb620000dd60201b60201c565b620000e560201b60201c565b620002c0565b600033905090565b6000600660009054906101000a900473ffffffffffffffffffffffffffffffffffffffff16905081600660006101000a81548173ffffffffffffffffffffffffffffffffffffffff021916908373ffffffffffffffffffffffffffffffffffffffff1602179055508173ffffffffffffffffffffffffffffffffffffffff168173ffffffffffffffffffffffffffffffffffffffff167f8be0079c531659141344cd1fd0a4f28419497f9722a3daafe3b4186f6b6457e060405160405180910390a35050565b828054620001b9906200025b565b90600052602060002090601f016020900481019282620001dd576000855562000229565b82601f10620001f857805160ff191683800117855562000229565b8280016001018555821562000229579182015b82811115620002285782518255916020019190600101906200020b565b5b5090506200023891906200023c565b5090565b5b80821115620002575760008160009055506001016200023d565b5090565b600060028204905060018216806200027457607f821691505b602082108114156200028b576200028a62000291565b5b50919050565b7f4e487b7100000000000000000000000000000000000000000000000000000000600052602260045260246000fd5b61333e80620002d06000396000f3fe608060405234801561001057600080fd5b506004361061012c5760003560e01c8063715018a6116100ad578063b88d4fde11610071578063b88d4fde14610343578063c87b56dd1461035f578063cf9faa3c1461038f578063e985e9c5146103bf578063f2fde38b146103ef5761012c565b8063715018a6146102b15780638739a7e6146102bb5780638da5cb5b146102eb57806395d89b4114610309578063a22cb465146103275761012c565b806323b872dd116100f457806323b872dd146101e957806342842e0e1461020557806345717f28146102215780636352211e1461025157806370a08231146102815761012c565b806301ffc9a71461013157806306fdde0314610161578063081812fc1461017f578063095ea7b3146101af578063227212f2146101cb575b600080fd5b61014b60048036038101906101469190612262565b61040b565b6040516101589190612c2c565b60405180910390f35b6101696104ed565b6040516101769190612c47565b60405180910390f35b61019960048036038101906101949190612361565b61057f565b6040516101a69190612ba3565b60405180910390f35b6101c960048036038101906101c49190612226565b610604565b005b6101d361071c565b6040516101e09190612c0a565b60405180910390f35b61020360048036038101906101fe9190612120565b61089f565b005b61021f600480360381019061021a9190612120565b6108ff565b005b61023b600480360381019061023691906122f5565b61091f565b6040516102489190612c2c565b60405180910390f35b61026b60048036038101906102669190612361565b61098b565b6040516102789190612ba3565b60405180910390f35b61029b600480360381019061029691906120bb565b610a3d565b6040516102a89190612e89565b60405180910390f35b6102b9610af5565b005b6102d560048036038101906102d091906122f5565b610b7d565b6040516102e29190612e89565b60405180910390f35b6102f3610d5c565b6040516103009190612ba3565b60405180910390f35b610311610d86565b60405161031e9190612c47565b60405180910390f35b610341600480360381019061033c91906121ea565b610e18565b005b61035d6004803603810190610358919061216f565b610f99565b005b61037960048036038101906103749190612361565b610ffb565b6040516103869190612c47565b60405180910390f35b6103a960048036038101906103a491906122b4565b6110a2565b6040516103b69190612c2c565b60405180910390f35b6103d960048036038101906103d491906120e4565b6111c3565b6040516103e69190612c2c565b60405180910390f35b610409600480360381019061040491906120bb565b611257565b005b60007f80ac58cd000000000000000000000000000000000000000000000000000000007bffffffffffffffffffffffffffffffffffffffffffffffffffffffff1916827bffffffffffffffffffffffffffffffffffffffffffffffffffffffff191614806104d657507f5b5e139f000000000000000000000000000000000000000000000000000000007bffffffffffffffffffffffffffffffffffffffffffffffffffffffff1916827bffffffffffffffffffffffffffffffffffffffffffffffffffffffff1916145b806104e657506104e58261134f565b5b9050919050565b6060600080546104fc90613133565b80601f016020809104026020016040519081016040528092919081815260200182805461052890613133565b80156105755780601f1061054a57610100808354040283529160200191610575565b820191906000526020600020905b81548152906001019060200180831161055857829003601f168201915b5050505050905090565b600061058a826113b9565b6105c9576040517f08c379a00000000000000000000000000000000000000000000000000000000081526004016105c090612da9565b60405180910390fd5b6004600083815260200190815260200160002060009054906101000a900473ffffffffffffffffffffffffffffffffffffffff169050919050565b600061060f8261098b565b90508073ffffffffffffffffffffffffffffffffffffffff168373ffffffffffffffffffffffffffffffffffffffff161415610680576040517f08c379a000000000000000000000000000000000000000000000000000000000815260040161067790612e29565b60405180910390fd5b8073ffffffffffffffffffffffffffffffffffffffff1661069f611425565b73ffffffffffffffffffffffffffffffffffffffff1614806106ce57506106cd816106c8611425565b6111c3565b5b61070d576040517f08c379a000000000000000000000000000000000000000000000000000000000815260040161070490612d29565b60405180910390fd5b610717838361142d565b505050565b6060600a805480602002602001604051908101604052809291908181526020016000905b82821015610896578382906000526020600020906002020160405180604001604052908160008201805461077390613133565b80601f016020809104026020016040519081016040528092919081815260200182805461079f90613133565b80156107ec5780601f106107c1576101008083540402835291602001916107ec565b820191906000526020600020905b8154815290600101906020018083116107cf57829003601f168201915b5050505050815260200160018201805461080590613133565b80601f016020809104026020016040519081016040528092919081815260200182805461083190613133565b801561087e5780601f106108535761010080835404028352916020019161087e565b820191906000526020600020905b81548152906001019060200180831161086157829003601f168201915b50505050508152505081526020019060010190610740565b50505050905090565b6108b06108aa611425565b826114e6565b6108ef576040517f08c379a00000000000000000000000000000000000000000000000000000000081526004016108e690612e49565b60405180910390fd5b6108fa8383836115c4565b505050565b61091a83838360405180602001604052806000815250610f99565b505050565b600081518351146109335760009050610985565b816040516020016109449190612b68565b604051602081830303815290604052805190602001208360405160200161096b9190612b68565b604051602081830303815290604052805190602001201490505b92915050565b6000806002600084815260200190815260200160002060009054906101000a900473ffffffffffffffffffffffffffffffffffffffff169050600073ffffffffffffffffffffffffffffffffffffffff168173ffffffffffffffffffffffffffffffffffffffff161415610a34576040517f08c379a0000000000000000000000000000000000000000000000000000000008152600401610a2b90612d69565b60405180910390fd5b80915050919050565b60008073ffffffffffffffffffffffffffffffffffffffff168273ffffffffffffffffffffffffffffffffffffffff161415610aae576040517f08c379a0000000000000000000000000000000000000000000000000000000008152600401610aa590612d49565b60405180910390fd5b600360008373ffffffffffffffffffffffffffffffffffffffff1673ffffffffffffffffffffffffffffffffffffffff168152602001908152602001600020549050919050565b610afd611425565b73ffffffffffffffffffffffffffffffffffffffff16610b1b610d5c565b73ffffffffffffffffffffffffffffffffffffffff1614610b71576040517f08c379a0000000000000000000000000000000000000000000000000000000008152600401610b6890612dc9565b60405180910390fd5b610b7b6000611820565b565b6000610b87611425565b73ffffffffffffffffffffffffffffffffffffffff16610ba5610d5c565b73ffffffffffffffffffffffffffffffffffffffff1614610bfb576040517f08c379a0000000000000000000000000000000000000000000000000000000008152600401610bf290612dc9565b60405180910390fd5b60001515610c08846110a2565b151514610c4a576040517f08c379a0000000000000000000000000000000000000000000000000000000008152600401610c4190612e69565b60405180910390fd5b6000610c55846118e6565b90506009546007600083815260200190815260200160002081905550610c8e336007600084815260200190815260200160002054611916565b610cab600760008381526020019081526020016000205484611ae4565b600a60405180604001604052808681526020018581525090806001815401808255809150506001900390600052602060002090600202016000909190919091506000820151816000019080519060200190610d07929190611edf565b506020820151816001019080519060200190610d24929190611edf565b50505060096000815480929190610d3a90613165565b9190505550600760008281526020019081526020016000205491505092915050565b6000600660009054906101000a900473ffffffffffffffffffffffffffffffffffffffff16905090565b606060018054610d9590613133565b80601f0160208091040260200160405190810160405280929190818152602001828054610dc190613133565b8015610e0e5780601f10610de357610100808354040283529160200191610e0e565b820191906000526020600020905b815481529060010190602001808311610df157829003601f168201915b5050505050905090565b610e20611425565b73ffffffffffffffffffffffffffffffffffffffff168273ffffffffffffffffffffffffffffffffffffffff161415610e8e576040517f08c379a0000000000000000000000000000000000000000000000000000000008152600401610e8590612ce9565b60405180910390fd5b8060056000610e9b611425565b73ffffffffffffffffffffffffffffffffffffffff1673ffffffffffffffffffffffffffffffffffffffff16815260200190815260200160002060008473ffffffffffffffffffffffffffffffffffffffff1673ffffffffffffffffffffffffffffffffffffffff16815260200190815260200160002060006101000a81548160ff0219169083151502179055508173ffffffffffffffffffffffffffffffffffffffff16610f48611425565b73ffffffffffffffffffffffffffffffffffffffff167f17307eab39ab6107e8899845ad3d59bd9653f200f220920489ca2b5937696c3183604051610f8d9190612c2c565b60405180910390a35050565b610faa610fa4611425565b836114e6565b610fe9576040517f08c379a0000000000000000000000000000000000000000000000000000000008152600401610fe090612e49565b60405180910390fd5b610ff584848484611b10565b50505050565b6060611006826113b9565b611045576040517f08c379a000000000000000000000000000000000000000000000000000000000815260040161103c90612e09565b60405180910390fd5b600061104f611b6c565b9050600081511161106f576040518060200160405280600081525061109a565b8061107984611b83565b60405160200161108a929190612b7f565b6040516020818303038152906040525b915050919050565b6000806000905060005b600a805490508110156111b9576000600a82815481106110f5577f4e487b7100000000000000000000000000000000000000000000000000000000600052603260045260246000fd5b9060005260206000209060020201600001805461111190613133565b80601f016020809104026020016040519081016040528092919081815260200182805461113d90613133565b801561118a5780601f1061115f5761010080835404028352916020019161118a565b820191906000526020600020905b81548152906001019060200180831161116d57829003601f168201915b5050505050905061119b818661091f565b156111a557600192505b5080806111b190613165565b9150506110ac565b5080915050919050565b6000600560008473ffffffffffffffffffffffffffffffffffffffff1673ffffffffffffffffffffffffffffffffffffffff16815260200190815260200160002060008373ffffffffffffffffffffffffffffffffffffffff1673ffffffffffffffffffffffffffffffffffffffff16815260200190815260200160002060009054906101000a900460ff16905092915050565b61125f611425565b73ffffffffffffffffffffffffffffffffffffffff1661127d610d5c565b73ffffffffffffffffffffffffffffffffffffffff16146112d3576040517f08c379a00000000000000000000000000000000000000000000000000000000081526004016112ca90612dc9565b60405180910390fd5b600073ffffffffffffffffffffffffffffffffffffffff168173ffffffffffffffffffffffffffffffffffffffff161415611343576040517f08c379a000000000000000000000000000000000000000000000000000000000815260040161133a90612c89565b60405180910390fd5b61134c81611820565b50565b60007f01ffc9a7000000000000000000000000000000000000000000000000000000007bffffffffffffffffffffffffffffffffffffffffffffffffffffffff1916827bffffffffffffffffffffffffffffffffffffffffffffffffffffffff1916149050919050565b60008073ffffffffffffffffffffffffffffffffffffffff166002600084815260200190815260200160002060009054906101000a900473ffffffffffffffffffffffffffffffffffffffff1673ffffffffffffffffffffffffffffffffffffffff1614159050919050565b600033905090565b816004600083815260200190815260200160002060006101000a81548173ffffffffffffffffffffffffffffffffffffffff021916908373ffffffffffffffffffffffffffffffffffffffff160217905550808273ffffffffffffffffffffffffffffffffffffffff166114a08361098b565b73ffffffffffffffffffffffffffffffffffffffff167f8c5be1e5ebec7d5bd14f71427d1e84f3dd0314c0f7b2291e5b200ac8c7c3b92560405160405180910390a45050565b60006114f1826113b9565b611530576040517f08c379a000000000000000000000000000000000000000000000000000000000815260040161152790612d09565b60405180910390fd5b600061153b8361098b565b90508073ffffffffffffffffffffffffffffffffffffffff168473ffffffffffffffffffffffffffffffffffffffff1614806115aa57508373ffffffffffffffffffffffffffffffffffffffff166115928461057f565b73ffffffffffffffffffffffffffffffffffffffff16145b806115bb57506115ba81856111c3565b5b91505092915050565b8273ffffffffffffffffffffffffffffffffffffffff166115e48261098b565b73ffffffffffffffffffffffffffffffffffffffff161461163a576040517f08c379a000000000000000000000000000000000000000000000000000000000815260040161163190612de9565b60405180910390fd5b600073ffffffffffffffffffffffffffffffffffffffff168273ffffffffffffffffffffffffffffffffffffffff1614156116aa576040517f08c379a00000000000000000000000000000000000000000000000000000000081526004016116a190612cc9565b60405180910390fd5b6116b5838383611d30565b6116c060008261142d565b6001600360008573ffffffffffffffffffffffffffffffffffffffff1673ffffffffffffffffffffffffffffffffffffffff16815260200190815260200160002060008282546117109190613049565b925050819055506001600360008473ffffffffffffffffffffffffffffffffffffffff1673ffffffffffffffffffffffffffffffffffffffff16815260200190815260200160002060008282546117679190612fc2565b92505081905550816002600083815260200190815260200160002060006101000a81548173ffffffffffffffffffffffffffffffffffffffff021916908373ffffffffffffffffffffffffffffffffffffffff160217905550808273ffffffffffffffffffffffffffffffffffffffff168473ffffffffffffffffffffffffffffffffffffffff167fddf252ad1be2c89b69c2b068fc378daa952ba7f163c4a11628f55a4df523b3ef60405160405180910390a4505050565b6000600660009054906101000a900473ffffffffffffffffffffffffffffffffffffffff16905081600660006101000a81548173ffffffffffffffffffffffffffffffffffffffff021916908373ffffffffffffffffffffffffffffffffffffffff1602179055508173ffffffffffffffffffffffffffffffffffffffff168173ffffffffffffffffffffffffffffffffffffffff167f8be0079c531659141344cd1fd0a4f28419497f9722a3daafe3b4186f6b6457e060405160405180910390a35050565b6000816040516020016118f99190612b68565b604051602081830303815290604052805190602001209050919050565b600073ffffffffffffffffffffffffffffffffffffffff168273ffffffffffffffffffffffffffffffffffffffff161415611986576040517f08c379a000000000000000000000000000000000000000000000000000000000815260040161197d90612d89565b60405180910390fd5b61198f816113b9565b156119cf576040517f08c379a00000000000000000000000000000000000000000000000000000000081526004016119c690612ca9565b60405180910390fd5b6119db60008383611d30565b6001600360008473ffffffffffffffffffffffffffffffffffffffff1673ffffffffffffffffffffffffffffffffffffffff1681526020019081526020016000206000828254611a2b9190612fc2565b92505081905550816002600083815260200190815260200160002060006101000a81548173ffffffffffffffffffffffffffffffffffffffff021916908373ffffffffffffffffffffffffffffffffffffffff160217905550808273ffffffffffffffffffffffffffffffffffffffff16600073ffffffffffffffffffffffffffffffffffffffff167fddf252ad1be2c89b69c2b068fc378daa952ba7f163c4a11628f55a4df523b3ef60405160405180910390a45050565b80600860008481526020019081526020016000209080519060200190611b0b929190611edf565b505050565b611b1b8484846115c4565b611b2784848484611d35565b611b66576040517f08c379a0000000000000000000000000000000000000000000000000000000008152600401611b5d90612c69565b60405180910390fd5b50505050565b606060405180602001604052806000815250905090565b60606000821415611bcb576040518060400160405280600181526020017f30000000000000000000000000000000000000000000000000000000000000008152509050611d2b565b600082905060005b60008214611bfd578080611be690613165565b915050600a82611bf69190613018565b9150611bd3565b60008167ffffffffffffffff811115611c3f577f4e487b7100000000000000000000000000000000000000000000000000000000600052604160045260246000fd5b6040519080825280601f01601f191660200182016040528015611c715781602001600182028036833780820191505090505b5090505b60008514611d2457600182611c8a9190613049565b9150600a85611c9991906131ae565b6030611ca59190612fc2565b60f81b818381518110611ce1577f4e487b7100000000000000000000000000000000000000000000000000000000600052603260045260246000fd5b60200101907effffffffffffffffffffffffffffffffffffffffffffffffffffffffffffff1916908160001a905350600a85611d1d9190613018565b9450611c75565b8093505050505b919050565b505050565b6000611d568473ffffffffffffffffffffffffffffffffffffffff16611ecc565b15611ebf578373ffffffffffffffffffffffffffffffffffffffff1663150b7a02611d7f611425565b8786866040518563ffffffff1660e01b8152600401611da19493929190612bbe565b602060405180830381600087803b158015611dbb57600080fd5b505af1925050508015611dec57506040513d601f19601f82011682018060405250810190611de9919061228b565b60015b611e6f573d8060008114611e1c576040519150601f19603f3d011682016040523d82523d6000602084013e611e21565b606091505b50600081511415611e67576040517f08c379a0000000000000000000000000000000000000000000000000000000008152600401611e5e90612c69565b60405180910390fd5b805181602001fd5b63150b7a0260e01b7bffffffffffffffffffffffffffffffffffffffffffffffffffffffff1916817bffffffffffffffffffffffffffffffffffffffffffffffffffffffff191614915050611ec4565b600190505b949350505050565b600080823b905060008111915050919050565b828054611eeb90613133565b90600052602060002090601f016020900481019282611f0d5760008555611f54565b82601f10611f2657805160ff1916838001178555611f54565b82800160010185558215611f54579182015b82811115611f53578251825591602001919060010190611f38565b5b509050611f619190611f65565b5090565b5b80821115611f7e576000816000905550600101611f66565b5090565b6000611f95611f9084612ed5565b612ea4565b905082815260208101848484011115611fad57600080fd5b611fb88482856130f1565b509392505050565b6000611fd3611fce84612f05565b612ea4565b905082815260208101848484011115611feb57600080fd5b611ff68482856130f1565b509392505050565b60008135905061200d816132ac565b92915050565b600081359050612022816132c3565b92915050565b600081359050612037816132da565b92915050565b60008151905061204c816132da565b92915050565b600082601f83011261206357600080fd5b8135612073848260208601611f82565b91505092915050565b600082601f83011261208d57600080fd5b813561209d848260208601611fc0565b91505092915050565b6000813590506120b5816132f1565b92915050565b6000602082840312156120cd57600080fd5b60006120db84828501611ffe565b91505092915050565b600080604083850312156120f757600080fd5b600061210585828601611ffe565b925050602061211685828601611ffe565b9150509250929050565b60008060006060848603121561213557600080fd5b600061214386828701611ffe565b935050602061215486828701611ffe565b9250506040612165868287016120a6565b9150509250925092565b6000806000806080858703121561218557600080fd5b600061219387828801611ffe565b94505060206121a487828801611ffe565b93505060406121b5878288016120a6565b925050606085013567ffffffffffffffff8111156121d257600080fd5b6121de87828801612052565b91505092959194509250565b600080604083850312156121fd57600080fd5b600061220b85828601611ffe565b925050602061221c85828601612013565b9150509250929050565b6000806040838503121561223957600080fd5b600061224785828601611ffe565b9250506020612258858286016120a6565b9150509250929050565b60006020828403121561227457600080fd5b600061228284828501612028565b91505092915050565b60006020828403121561229d57600080fd5b60006122ab8482850161203d565b91505092915050565b6000602082840312156122c657600080fd5b600082013567ffffffffffffffff8111156122e057600080fd5b6122ec8482850161207c565b91505092915050565b6000806040838503121561230857600080fd5b600083013567ffffffffffffffff81111561232257600080fd5b61232e8582860161207c565b925050602083013567ffffffffffffffff81111561234b57600080fd5b6123578582860161207c565b9150509250929050565b60006020828403121561237357600080fd5b6000612381848285016120a6565b91505092915050565b60006123968383612b15565b905092915050565b6123a78161307d565b82525050565b60006123b882612f45565b6123c28185612f73565b9350836020820285016123d485612f35565b8060005b8581101561241057848403895281516123f1858261238a565b94506123fc83612f66565b925060208a019950506001810190506123d8565b50829750879550505050505092915050565b61242b8161308f565b82525050565b600061243c82612f50565b6124468185612f84565b9350612456818560208601613100565b61245f8161329b565b840191505092915050565b600061247582612f5b565b61247f8185612f95565b935061248f818560208601613100565b6124988161329b565b840191505092915050565b60006124ae82612f5b565b6124b88185612fa6565b93506124c8818560208601613100565b6124d18161329b565b840191505092915050565b60006124e782612f5b565b6124f18185612fb7565b9350612501818560208601613100565b80840191505092915050565b600061251a603283612fa6565b91507f4552433732313a207472616e7366657220746f206e6f6e20455243373231526560008301527f63656976657220696d706c656d656e74657200000000000000000000000000006020830152604082019050919050565b6000612580602683612fa6565b91507f4f776e61626c653a206e6577206f776e657220697320746865207a65726f206160008301527f64647265737300000000000000000000000000000000000000000000000000006020830152604082019050919050565b60006125e6601c83612fa6565b91507f4552433732313a20746f6b656e20616c7265616479206d696e746564000000006000830152602082019050919050565b6000612626602483612fa6565b91507f4552433732313a207472616e7366657220746f20746865207a65726f2061646460008301527f72657373000000000000000000000000000000000000000000000000000000006020830152604082019050919050565b600061268c601983612fa6565b91507f4552433732313a20617070726f766520746f2063616c6c6572000000000000006000830152602082019050919050565b60006126cc602c83612fa6565b91507f4552433732313a206f70657261746f7220717565727920666f72206e6f6e657860008301527f697374656e7420746f6b656e00000000000000000000000000000000000000006020830152604082019050919050565b6000612732603883612fa6565b91507f4552433732313a20617070726f76652063616c6c6572206973206e6f74206f7760008301527f6e6572206e6f7220617070726f76656420666f7220616c6c00000000000000006020830152604082019050919050565b6000612798602a83612fa6565b91507f4552433732313a2062616c616e636520717565727920666f7220746865207a6560008301527f726f2061646472657373000000000000000000000000000000000000000000006020830152604082019050919050565b60006127fe602983612fa6565b91507f4552433732313a206f776e657220717565727920666f72206e6f6e657869737460008301527f656e7420746f6b656e00000000000000000000000000000000000000000000006020830152604082019050919050565b6000612864602083612fa6565b91507f4552433732313a206d696e7420746f20746865207a65726f20616464726573736000830152602082019050919050565b60006128a4602c83612fa6565b91507f4552433732313a20617070726f76656420717565727920666f72206e6f6e657860008301527f697374656e7420746f6b656e00000000000000000000000000000000000000006020830152604082019050919050565b600061290a602083612fa6565b91507f4f776e61626c653a2063616c6c6572206973206e6f7420746865206f776e65726000830152602082019050919050565b600061294a602983612fa6565b91507f4552433732313a207472616e73666572206f6620746f6b656e2074686174206960008301527f73206e6f74206f776e00000000000000000000000000000000000000000000006020830152604082019050919050565b60006129b0602f83612fa6565b91507f4552433732314d657461646174613a2055524920717565727920666f72206e6f60008301527f6e6578697374656e7420746f6b656e00000000000000000000000000000000006020830152604082019050919050565b6000612a16602183612fa6565b91507f4552433732313a20617070726f76616c20746f2063757272656e74206f776e6560008301527f72000000000000000000000000000000000000000000000000000000000000006020830152604082019050919050565b6000612a7c603183612fa6565b91507f4552433732313a207472616e736665722063616c6c6572206973206e6f74206f60008301527f776e6572206e6f7220617070726f7665640000000000000000000000000000006020830152604082019050919050565b6000612ae2601383612fa6565b91507f746f6b656e20616c72656479206d696e746564000000000000000000000000006000830152602082019050919050565b60006040830160008301518482036000860152612b32828261246a565b91505060208301518482036020860152612b4c828261246a565b9150508091505092915050565b612b62816130e7565b82525050565b6000612b7482846124dc565b915081905092915050565b6000612b8b82856124dc565b9150612b9782846124dc565b91508190509392505050565b6000602082019050612bb8600083018461239e565b92915050565b6000608082019050612bd3600083018761239e565b612be0602083018661239e565b612bed6040830185612b59565b8181036060830152612bff8184612431565b905095945050505050565b60006020820190508181036000830152612c2481846123ad565b905092915050565b6000602082019050612c416000830184612422565b92915050565b60006020820190508181036000830152612c6181846124a3565b905092915050565b60006020820190508181036000830152612c828161250d565b9050919050565b60006020820190508181036000830152612ca281612573565b9050919050565b60006020820190508181036000830152612cc2816125d9565b9050919050565b60006020820190508181036000830152612ce281612619565b9050919050565b60006020820190508181036000830152612d028161267f565b9050919050565b60006020820190508181036000830152612d22816126bf565b9050919050565b60006020820190508181036000830152612d4281612725565b9050919050565b60006020820190508181036000830152612d628161278b565b9050919050565b60006020820190508181036000830152612d82816127f1565b9050919050565b60006020820190508181036000830152612da281612857565b9050919050565b60006020820190508181036000830152612dc281612897565b9050919050565b60006020820190508181036000830152612de2816128fd565b9050919050565b60006020820190508181036000830152612e028161293d565b9050919050565b60006020820190508181036000830152612e22816129a3565b9050919050565b60006020820190508181036000830152612e4281612a09565b9050919050565b60006020820190508181036000830152612e6281612a6f565b9050919050565b60006020820190508181036000830152612e8281612ad5565b9050919050565b6000602082019050612e9e6000830184612b59565b92915050565b6000604051905081810181811067ffffffffffffffff82111715612ecb57612eca61326c565b5b8060405250919050565b600067ffffffffffffffff821115612ef057612eef61326c565b5b601f19601f8301169050602081019050919050565b600067ffffffffffffffff821115612f2057612f1f61326c565b5b601f19601f8301169050602081019050919050565b6000819050602082019050919050565b600081519050919050565b600081519050919050565b600081519050919050565b6000602082019050919050565b600082825260208201905092915050565b600082825260208201905092915050565b600082825260208201905092915050565b600082825260208201905092915050565b600081905092915050565b6000612fcd826130e7565b9150612fd8836130e7565b9250827fffffffffffffffffffffffffffffffffffffffffffffffffffffffffffffffff0382111561300d5761300c6131df565b5b828201905092915050565b6000613023826130e7565b915061302e836130e7565b92508261303e5761303d61320e565b5b828204905092915050565b6000613054826130e7565b915061305f836130e7565b925082821015613072576130716131df565b5b828203905092915050565b6000613088826130c7565b9050919050565b60008115159050919050565b60007fffffffff0000000000000000000000000000000000000000000000000000000082169050919050565b600073ffffffffffffffffffffffffffffffffffffffff82169050919050565b6000819050919050565b82818337600083830152505050565b60005b8381101561311e578082015181840152602081019050613103565b8381111561312d576000848401525b50505050565b6000600282049050600182168061314b57607f821691505b6020821081141561315f5761315e61323d565b5b50919050565b6000613170826130e7565b91507fffffffffffffffffffffffffffffffffffffffffffffffffffffffffffffffff8214156131a3576131a26131df565b5b600182019050919050565b60006131b9826130e7565b91506131c4836130e7565b9250826131d4576131d361320e565b5b828206905092915050565b7f4e487b7100000000000000000000000000000000000000000000000000000000600052601160045260246000fd5b7f4e487b7100000000000000000000000000000000000000000000000000000000600052601260045260246000fd5b7f4e487b7100000000000000000000000000000000000000000000000000000000600052602260045260246000fd5b7f4e487b7100000000000000000000000000000000000000000000000000000000600052604160045260246000fd5b6000601f19601f8301169050919050565b6132b58161307d565b81146132c057600080fd5b50565b6132cc8161308f565b81146132d757600080fd5b50565b6132e38161309b565b81146132ee57600080fd5b50565b6132fa816130e7565b811461330557600080fd5b5056fea264697066735822122071d6c05dc4c75c4974014552019345573fcd7b7118e9050cdf4b1f51d715ad2064736f6c63430008000033",
  "immutableReferences": {},
  "source": "// SPDX-License-Identifier: MIT\r\npragma solidity ^0.8.0;\r\n\r\nimport \"@openzeppelin/contracts/token/ERC721/ERC721.sol\";\r\nimport \"@openzeppelin/contracts/access/Ownable.sol\";\r\n\r\ncontract WineNFTs is ERC721, Ownable {\r\n    mapping(bytes32 => uint256) id; // to store Uid from sting / bytes32 to uint256\r\n    mapping(uint256 => string) _tokenURIs; // to store nfts uri\r\n\r\n    uint256 counter = 0; // for itterate nfts minting\r\n\r\n    struct NFTs {\r\n        string Udi;\r\n        string Uri;\r\n    }\r\n\r\n    //arrays of nfts present with this Smart contract ;\r\n    NFTs[] nfts;\r\n\r\n    constructor() ERC721(\"Wine\", \"W\") {}\r\n\r\n    //User\r\n    function setID(string memory _x) internal pure returns (bytes32) {\r\n        return keccak256(abi.encodePacked(_x));\r\n    }\r\n\r\n    function _setTokenURI(uint256 tokenId, string memory _tokenURI) internal {\r\n        _tokenURIs[tokenId] = _tokenURI;\r\n    }\r\n\r\n    function hashCompareWithLengthCheck(string memory a, string memory b)\r\n        public\r\n        pure\r\n        returns (bool)\r\n    {\r\n        if (bytes(a).length != bytes(b).length) {\r\n            return false;\r\n        } else {\r\n            return\r\n                keccak256(abi.encodePacked(a)) ==\r\n                keccak256(abi.encodePacked(b));\r\n        }\r\n    }\r\n\r\n    function alreadyExist(string memory _Udi) public view returns (bool) {\r\n        bool setter = false;\r\n        for (uint256 i = 0; i < nfts.length; i++) {\r\n            string memory Udi = nfts[i].Udi;\r\n            if (hashCompareWithLengthCheck(Udi, _Udi)) {\r\n                setter = true;\r\n            }\r\n        }\r\n\r\n        return setter;\r\n    }\r\n\r\n    function mintWineToken(string memory _Udi, string memory _Uri)\r\n        public\r\n        onlyOwner\r\n        returns (uint256)\r\n    {\r\n        require(alreadyExist(_Udi) == false, \"token alredy minted\");\r\n        bytes32 newSN = setID(_Udi);\r\n        id[newSN] = counter;\r\n        _mint(msg.sender, id[newSN]);\r\n        _setTokenURI(id[newSN], _Uri);\r\n        nfts.push(NFTs(_Udi, _Uri));\r\n        counter++;\r\n        return id[newSN];\r\n    }\r\n\r\n    function getNFTs() external view returns (NFTs[] memory) {\r\n        return (nfts);\r\n    }\r\n}\r\n",
  "sourcePath": "C:\\Users\\Alex\\Documents\\Test\\Repos\\Dapp\\Wine_NFTs_Dapp\\contracts\\WineNFTs.sol",
  "compiler": {
    "name": "solc",
    "version": "0.8.0+commit.c7dfd78e.Emscripten.clang"
  },
  "schemaVersion": "3.4.3",
  "updatedAt": "2021-10-11T07:07:43.594Z",
  "devdoc": {
    "kind": "dev",
    "methods": {
      "approve(address,uint256)": {
        "details": "See {IERC721-approve}."
      },
      "balanceOf(address)": {
        "details": "See {IERC721-balanceOf}."
      },
      "getApproved(uint256)": {
        "details": "See {IERC721-getApproved}."
      },
      "isApprovedForAll(address,address)": {
        "details": "See {IERC721-isApprovedForAll}."
      },
      "name()": {
        "details": "See {IERC721Metadata-name}."
      },
      "owner()": {
        "details": "Returns the address of the current owner."
      },
      "ownerOf(uint256)": {
        "details": "See {IERC721-ownerOf}."
      },
      "renounceOwnership()": {
        "details": "Leaves the contract without owner. It will not be possible to call `onlyOwner` functions anymore. Can only be called by the current owner. NOTE: Renouncing ownership will leave the contract without an owner, thereby removing any functionality that is only available to the owner."
      },
      "safeTransferFrom(address,address,uint256)": {
        "details": "See {IERC721-safeTransferFrom}."
      },
      "safeTransferFrom(address,address,uint256,bytes)": {
        "details": "See {IERC721-safeTransferFrom}."
      },
      "setApprovalForAll(address,bool)": {
        "details": "See {IERC721-setApprovalForAll}."
      },
      "supportsInterface(bytes4)": {
        "details": "See {IERC165-supportsInterface}."
      },
      "symbol()": {
        "details": "See {IERC721Metadata-symbol}."
      },
      "tokenURI(uint256)": {
        "details": "See {IERC721Metadata-tokenURI}."
      },
      "transferFrom(address,address,uint256)": {
        "details": "See {IERC721-transferFrom}."
      },
      "transferOwnership(address)": {
        "details": "Transfers ownership of the contract to a new account (`newOwner`). Can only be called by the current owner."
      }
    },
    "version": 1
  },
  "userdoc": {
    "kind": "user",
    "methods": {},
    "version": 1
  }
}