{
  "contractName": "WineNFTs",
  "abi": [
    {
      "inputs": [],
      "stateMutability": "nonpayable",
      "type": "constructor"
    },
    {
      "anonymous": false,
      "inputs": [
        {
          "indexed": true,
          "internalType": "address",
          "name": "owner",
          "type": "address"
        },
        {
          "indexed": true,
          "internalType": "address",
          "name": "approved",
          "type": "address"
        },
        {
          "indexed": true,
          "internalType": "uint256",
          "name": "tokenId",
          "type": "uint256"
        }
      ],
      "name": "Approval",
      "type": "event"
    },
    {
      "anonymous": false,
      "inputs": [
        {
          "indexed": true,
          "internalType": "address",
          "name": "owner",
          "type": "address"
        },
        {
          "indexed": true,
          "internalType": "address",
          "name": "operator",
          "type": "address"
        },
        {
          "indexed": false,
          "internalType": "bool",
          "name": "approved",
          "type": "bool"
        }
      ],
      "name": "ApprovalForAll",
      "type": "event"
    },
    {
      "anonymous": false,
      "inputs": [
        {
          "indexed": true,
          "internalType": "address",
          "name": "previousOwner",
          "type": "address"
        },
        {
          "indexed": true,
          "internalType": "address",
          "name": "newOwner",
          "type": "address"
        }
      ],
      "name": "OwnershipTransferred",
      "type": "event"
    },
    {
      "anonymous": false,
      "inputs": [
        {
          "indexed": true,
          "internalType": "address",
          "name": "from",
          "type": "address"
        },
        {
          "indexed": true,
          "internalType": "address",
          "name": "to",
          "type": "address"
        },
        {
          "indexed": true,
          "internalType": "uint256",
          "name": "tokenId",
          "type": "uint256"
        }
      ],
      "name": "Transfer",
      "type": "event"
    },
    {
      "inputs": [
        {
          "internalType": "address",
          "name": "to",
          "type": "address"
        },
        {
          "internalType": "uint256",
          "name": "tokenId",
          "type": "uint256"
        }
      ],
      "name": "approve",
      "outputs": [],
      "stateMutability": "nonpayable",
      "type": "function"
    },
    {
      "inputs": [
        {
          "internalType": "uint256",
          "name": "",
          "type": "uint256"
        }
      ],
      "name": "auths",
      "outputs": [
        {
          "internalType": "uint256",
          "name": "ids",
          "type": "uint256"
        },
        {
          "internalType": "string",
          "name": "_SN",
          "type": "string"
        }
      ],
      "stateMutability": "view",
      "type": "function",
      "constant": true
    },
    {
      "inputs": [
        {
          "internalType": "address",
          "name": "owner",
          "type": "address"
        }
      ],
      "name": "balanceOf",
      "outputs": [
        {
          "internalType": "uint256",
          "name": "",
          "type": "uint256"
        }
      ],
      "stateMutability": "view",
      "type": "function",
      "constant": true
    },
    {
      "inputs": [
        {
          "internalType": "uint256",
          "name": "tokenId",
          "type": "uint256"
        }
      ],
      "name": "getApproved",
      "outputs": [
        {
          "internalType": "address",
          "name": "",
          "type": "address"
        }
      ],
      "stateMutability": "view",
      "type": "function",
      "constant": true
    },
    {
      "inputs": [
        {
          "internalType": "address",
          "name": "owner",
          "type": "address"
        },
        {
          "internalType": "address",
          "name": "operator",
          "type": "address"
        }
      ],
      "name": "isApprovedForAll",
      "outputs": [
        {
          "internalType": "bool",
          "name": "",
          "type": "bool"
        }
      ],
      "stateMutability": "view",
      "type": "function",
      "constant": true
    },
    {
      "inputs": [],
      "name": "name",
      "outputs": [
        {
          "internalType": "string",
          "name": "",
          "type": "string"
        }
      ],
      "stateMutability": "view",
      "type": "function",
      "constant": true
    },
    {
      "inputs": [],
      "name": "owner",
      "outputs": [
        {
          "internalType": "address",
          "name": "",
          "type": "address"
        }
      ],
      "stateMutability": "view",
      "type": "function",
      "constant": true
    },
    {
      "inputs": [
        {
          "internalType": "uint256",
          "name": "tokenId",
          "type": "uint256"
        }
      ],
      "name": "ownerOf",
      "outputs": [
        {
          "internalType": "address",
          "name": "",
          "type": "address"
        }
      ],
      "stateMutability": "view",
      "type": "function",
      "constant": true
    },
    {
      "inputs": [],
      "name": "renounceOwnership",
      "outputs": [],
      "stateMutability": "nonpayable",
      "type": "function"
    },
    {
      "inputs": [
        {
          "internalType": "address",
          "name": "from",
          "type": "address"
        },
        {
          "internalType": "address",
          "name": "to",
          "type": "address"
        },
        {
          "internalType": "uint256",
          "name": "tokenId",
          "type": "uint256"
        }
      ],
      "name": "safeTransferFrom",
      "outputs": [],
      "stateMutability": "nonpayable",
      "type": "function"
    },
    {
      "inputs": [
        {
          "internalType": "address",
          "name": "from",
          "type": "address"
        },
        {
          "internalType": "address",
          "name": "to",
          "type": "address"
        },
        {
          "internalType": "uint256",
          "name": "tokenId",
          "type": "uint256"
        },
        {
          "internalType": "bytes",
          "name": "_data",
          "type": "bytes"
        }
      ],
      "name": "safeTransferFrom",
      "outputs": [],
      "stateMutability": "nonpayable",
      "type": "function"
    },
    {
      "inputs": [
        {
          "internalType": "address",
          "name": "operator",
          "type": "address"
        },
        {
          "internalType": "bool",
          "name": "approved",
          "type": "bool"
        }
      ],
      "name": "setApprovalForAll",
      "outputs": [],
      "stateMutability": "nonpayable",
      "type": "function"
    },
    {
      "inputs": [
        {
          "internalType": "bytes4",
          "name": "interfaceId",
          "type": "bytes4"
        }
      ],
      "name": "supportsInterface",
      "outputs": [
        {
          "internalType": "bool",
          "name": "",
          "type": "bool"
        }
      ],
      "stateMutability": "view",
      "type": "function",
      "constant": true
    },
    {
      "inputs": [],
      "name": "symbol",
      "outputs": [
        {
          "internalType": "string",
          "name": "",
          "type": "string"
        }
      ],
      "stateMutability": "view",
      "type": "function",
      "constant": true
    },
    {
      "inputs": [
        {
          "internalType": "address",
          "name": "from",
          "type": "address"
        },
        {
          "internalType": "address",
          "name": "to",
          "type": "address"
        },
        {
          "internalType": "uint256",
          "name": "tokenId",
          "type": "uint256"
        }
      ],
      "name": "transferFrom",
      "outputs": [],
      "stateMutability": "nonpayable",
      "type": "function"
    },
    {
      "inputs": [
        {
          "internalType": "address",
          "name": "newOwner",
          "type": "address"
        }
      ],
      "name": "transferOwnership",
      "outputs": [],
      "stateMutability": "nonpayable",
      "type": "function"
    },
    {
      "inputs": [
        {
          "internalType": "uint256",
          "name": "tokenId",
          "type": "uint256"
        }
      ],
      "name": "tokenURI",
      "outputs": [
        {
          "internalType": "string",
          "name": "",
          "type": "string"
        }
      ],
      "stateMutability": "view",
      "type": "function",
      "constant": true
    },
    {
      "inputs": [],
      "name": "getAllTokens",
      "outputs": [
        {
          "components": [
            {
              "internalType": "uint256",
              "name": "id",
              "type": "uint256"
            },
            {
              "internalType": "string",
              "name": "uri",
              "type": "string"
            }
          ],
          "internalType": "struct WineNFTs.RenderToken[]",
          "name": "",
          "type": "tuple[]"
        }
      ],
      "stateMutability": "view",
      "type": "function",
      "constant": true
    },
    {
      "inputs": [
        {
          "internalType": "string",
          "name": "a",
          "type": "string"
        },
        {
          "internalType": "string",
          "name": "b",
          "type": "string"
        }
      ],
      "name": "hashCompareWithLengthCheck",
      "outputs": [
        {
          "internalType": "bool",
          "name": "",
          "type": "bool"
        }
      ],
      "stateMutability": "pure",
      "type": "function",
      "constant": true
    },
    {
      "inputs": [
        {
          "internalType": "string",
          "name": "_SN",
          "type": "string"
        },
        {
          "internalType": "string",
          "name": "uri",
          "type": "string"
        }
      ],
      "name": "mintWinesToken",
      "outputs": [
        {
          "internalType": "uint256",
          "name": "",
          "type": "uint256"
        }
      ],
      "stateMutability": "nonpayable",
      "type": "function"
    },
    {
      "inputs": [],
      "name": "getAuth",
      "outputs": [
        {
          "components": [
            {
              "internalType": "uint256",
              "name": "ids",
              "type": "uint256"
            },
            {
              "internalType": "string",
              "name": "_SN",
              "type": "string"
            }
          ],
          "internalType": "struct WineNFTs.Auth[]",
          "name": "",
          "type": "tuple[]"
        }
      ],
      "stateMutability": "view",
      "type": "function",
      "constant": true
    }
  ],
  "bytecode": "0x6080604052600060095533600b60006101000a81548173ffffffffffffffffffffffffffffffffffffffff021916908373ffffffffffffffffffffffffffffffffffffffff1602179055503480156200005757600080fd5b506040518060400160405280600481526020017f57696e65000000000000000000000000000000000000000000000000000000008152506040518060400160405280600181526020017f57000000000000000000000000000000000000000000000000000000000000008152508160009080519060200190620000dc929190620001ec565b508060019080519060200190620000f5929190620001ec565b505050620001186200010c6200011e60201b60201c565b6200012660201b60201c565b62000301565b600033905090565b6000600660009054906101000a900473ffffffffffffffffffffffffffffffffffffffff16905081600660006101000a81548173ffffffffffffffffffffffffffffffffffffffff021916908373ffffffffffffffffffffffffffffffffffffffff1602179055508173ffffffffffffffffffffffffffffffffffffffff168173ffffffffffffffffffffffffffffffffffffffff167f8be0079c531659141344cd1fd0a4f28419497f9722a3daafe3b4186f6b6457e060405160405180910390a35050565b828054620001fa906200029c565b90600052602060002090601f0160209004810192826200021e57600085556200026a565b82601f106200023957805160ff19168380011785556200026a565b828001600101855582156200026a579182015b82811115620002695782518255916020019190600101906200024c565b5b5090506200027991906200027d565b5090565b5b80821115620002985760008160009055506001016200027e565b5090565b60006002820490506001821680620002b557607f821691505b60208210811415620002cc57620002cb620002d2565b5b50919050565b7f4e487b7100000000000000000000000000000000000000000000000000000000600052602260045260246000fd5b6132f980620003116000396000f3fe608060405234801561001057600080fd5b50600436106101375760003560e01c806345717f28116100b857806395d89b411161007c57806395d89b4114610363578063a22cb46514610381578063b88d4fde1461039d578063c87b56dd146103b9578063e985e9c5146103e9578063f2fde38b1461041957610137565b806345717f28146102ab5780636352211e146102db57806370a082311461030b578063715018a61461033b5780638da5cb5b1461034557610137565b8063095ea7b3116100ff578063095ea7b314610209578063125d9fb61461022557806323b872dd146102555780632a5c792a1461027157806342842e0e1461028f57610137565b806301ffc9a71461013c578063068df3dd1461016c57806306fdde031461019d578063081812fc146101bb57806308571011146101eb575b600080fd5b61015660048036038101906101519190612240565b610435565b6040516101639190612c2f565b60405180910390f35b610186600480360381019061018191906122fe565b610517565b604051610194929190612e87565b60405180910390f35b6101a56105d3565b6040516101b29190612c4a565b60405180910390f35b6101d560048036038101906101d091906122fe565b610665565b6040516101e29190612b84565b60405180910390f35b6101f36106ea565b6040516102009190612beb565b60405180910390f35b610223600480360381019061021e9190612204565b610861565b005b61023f600480360381019061023a9190612292565b610979565b60405161024c9190612e6c565b60405180910390f35b61026f600480360381019061026a91906120fe565b610b47565b005b610279610ba7565b6040516102869190612c0d565b60405180910390f35b6102a960048036038101906102a491906120fe565b610cda565b005b6102c560048036038101906102c09190612292565b610cfa565b6040516102d29190612c2f565b60405180910390f35b6102f560048036038101906102f091906122fe565b610d66565b6040516103029190612b84565b60405180910390f35b61032560048036038101906103209190612099565b610e18565b6040516103329190612e6c565b60405180910390f35b610343610ed0565b005b61034d610f58565b60405161035a9190612b84565b60405180910390f35b61036b610f82565b6040516103789190612c4a565b60405180910390f35b61039b600480360381019061039691906121c8565b611014565b005b6103b760048036038101906103b2919061214d565b611195565b005b6103d360048036038101906103ce91906122fe565b6111f7565b6040516103e09190612c4a565b60405180910390f35b61040360048036038101906103fe91906120c2565b6112b4565b6040516104109190612c2f565b60405180910390f35b610433600480360381019061042e9190612099565b611348565b005b60007f80ac58cd000000000000000000000000000000000000000000000000000000007bffffffffffffffffffffffffffffffffffffffffffffffffffffffff1916827bffffffffffffffffffffffffffffffffffffffffffffffffffffffff1916148061050057507f5b5e139f000000000000000000000000000000000000000000000000000000007bffffffffffffffffffffffffffffffffffffffffffffffffffffffff1916827bffffffffffffffffffffffffffffffffffffffffffffffffffffffff1916145b80610510575061050f82611440565b5b9050919050565b600a818154811061052757600080fd5b90600052602060002090600202016000915090508060000154908060010180546105509061314e565b80601f016020809104026020016040519081016040528092919081815260200182805461057c9061314e565b80156105c95780601f1061059e576101008083540402835291602001916105c9565b820191906000526020600020905b8154815290600101906020018083116105ac57829003601f168201915b5050505050905082565b6060600080546105e29061314e565b80601f016020809104026020016040519081016040528092919081815260200182805461060e9061314e565b801561065b5780601f106106305761010080835404028352916020019161065b565b820191906000526020600020905b81548152906001019060200180831161063e57829003601f168201915b5050505050905090565b6000610670826114aa565b6106af576040517f08c379a00000000000000000000000000000000000000000000000000000000081526004016106a690612dac565b60405180910390fd5b6004600083815260200190815260200160002060009054906101000a900473ffffffffffffffffffffffffffffffffffffffff169050919050565b60606106f4611516565b73ffffffffffffffffffffffffffffffffffffffff16610712610f58565b73ffffffffffffffffffffffffffffffffffffffff1614610768576040517f08c379a000000000000000000000000000000000000000000000000000000000815260040161075f90612dcc565b60405180910390fd5b600a805480602002602001604051908101604052809291908181526020016000905b828210156108585783829060005260206000209060020201604051806040016040529081600082015481526020016001820180546107c79061314e565b80601f01602080910402602001604051908101604052809291908181526020018280546107f39061314e565b80156108405780601f1061081557610100808354040283529160200191610840565b820191906000526020600020905b81548152906001019060200180831161082357829003601f168201915b5050505050815250508152602001906001019061078a565b50505050905090565b600061086c82610d66565b90508073ffffffffffffffffffffffffffffffffffffffff168373ffffffffffffffffffffffffffffffffffffffff1614156108dd576040517f08c379a00000000000000000000000000000000000000000000000000000000081526004016108d490612e0c565b60405180910390fd5b8073ffffffffffffffffffffffffffffffffffffffff166108fc611516565b73ffffffffffffffffffffffffffffffffffffffff16148061092b575061092a81610925611516565b6112b4565b5b61096a576040517f08c379a000000000000000000000000000000000000000000000000000000000815260040161096190612d2c565b60405180910390fd5b610974838361151e565b505050565b6000610983611516565b73ffffffffffffffffffffffffffffffffffffffff166109a1610f58565b73ffffffffffffffffffffffffffffffffffffffff16146109f7576040517f08c379a00000000000000000000000000000000000000000000000000000000081526004016109ee90612dcc565b60405180910390fd5b60001515610a04846115d7565b151514610a46576040517f08c379a0000000000000000000000000000000000000000000000000000000008152600401610a3d90612e4c565b60405180910390fd5b6000610a518461166e565b90506009546007600083815260200190815260200160002081905550610a8a33600760008481526020019081526020016000205461169e565b610aa760076000838152602001908152602001600020548461186c565b600a60405180604001604052806009548152602001868152509080600181540180825580915050600190039060005260206000209060020201600090919091909150600082015181600001556020820151816001019080519060200190610b0f929190611ea3565b50505060096000815480929190610b2590613180565b9190505550600760008281526020019081526020016000205491505092915050565b610b58610b52611516565b82611898565b610b97576040517f08c379a0000000000000000000000000000000000000000000000000000000008152600401610b8e90612e2c565b60405180910390fd5b610ba2838383611976565b505050565b6060600060095490506000808267ffffffffffffffff811115610bf3577f4e487b7100000000000000000000000000000000000000000000000000000000600052604160045260246000fd5b604051908082528060200260200182016040528015610c2c57816020015b610c19611f29565b815260200190600190039081610c115790505b50905060005b838111610cd057610c42836114aa565b15610caf576000610c52846111f7565b9050604051806040016040528085815260200182815250838581518110610ca2577f4e487b7100000000000000000000000000000000000000000000000000000000600052603260045260246000fd5b6020026020010181905250505b8280610cba90613180565b9350508080610cc890613180565b915050610c32565b5080935050505090565b610cf583838360405180602001604052806000815250611195565b505050565b60008151835114610d0e5760009050610d60565b81604051602001610d1f9190612b6d565b6040516020818303038152906040528051906020012083604051602001610d469190612b6d565b604051602081830303815290604052805190602001201490505b92915050565b6000806002600084815260200190815260200160002060009054906101000a900473ffffffffffffffffffffffffffffffffffffffff169050600073ffffffffffffffffffffffffffffffffffffffff168173ffffffffffffffffffffffffffffffffffffffff161415610e0f576040517f08c379a0000000000000000000000000000000000000000000000000000000008152600401610e0690612d6c565b60405180910390fd5b80915050919050565b60008073ffffffffffffffffffffffffffffffffffffffff168273ffffffffffffffffffffffffffffffffffffffff161415610e89576040517f08c379a0000000000000000000000000000000000000000000000000000000008152600401610e8090612d4c565b60405180910390fd5b600360008373ffffffffffffffffffffffffffffffffffffffff1673ffffffffffffffffffffffffffffffffffffffff168152602001908152602001600020549050919050565b610ed8611516565b73ffffffffffffffffffffffffffffffffffffffff16610ef6610f58565b73ffffffffffffffffffffffffffffffffffffffff1614610f4c576040517f08c379a0000000000000000000000000000000000000000000000000000000008152600401610f4390612dcc565b60405180910390fd5b610f566000611bd2565b565b6000600660009054906101000a900473ffffffffffffffffffffffffffffffffffffffff16905090565b606060018054610f919061314e565b80601f0160208091040260200160405190810160405280929190818152602001828054610fbd9061314e565b801561100a5780601f10610fdf5761010080835404028352916020019161100a565b820191906000526020600020905b815481529060010190602001808311610fed57829003601f168201915b5050505050905090565b61101c611516565b73ffffffffffffffffffffffffffffffffffffffff168273ffffffffffffffffffffffffffffffffffffffff16141561108a576040517f08c379a000000000000000000000000000000000000000000000000000000000815260040161108190612cec565b60405180910390fd5b8060056000611097611516565b73ffffffffffffffffffffffffffffffffffffffff1673ffffffffffffffffffffffffffffffffffffffff16815260200190815260200160002060008473ffffffffffffffffffffffffffffffffffffffff1673ffffffffffffffffffffffffffffffffffffffff16815260200190815260200160002060006101000a81548160ff0219169083151502179055508173ffffffffffffffffffffffffffffffffffffffff16611144611516565b73ffffffffffffffffffffffffffffffffffffffff167f17307eab39ab6107e8899845ad3d59bd9653f200f220920489ca2b5937696c31836040516111899190612c2f565b60405180910390a35050565b6111a66111a0611516565b83611898565b6111e5576040517f08c379a00000000000000000000000000000000000000000000000000000000081526004016111dc90612e2c565b60405180910390fd5b6111f184848484611c98565b50505050565b6060611202826114aa565b61120b57600080fd5b600060086000848152602001908152602001600020805461122b9061314e565b80601f01602080910402602001604051908101604052809291908181526020018280546112579061314e565b80156112a45780601f10611279576101008083540402835291602001916112a4565b820191906000526020600020905b81548152906001019060200180831161128757829003601f168201915b5050505050905080915050919050565b6000600560008473ffffffffffffffffffffffffffffffffffffffff1673ffffffffffffffffffffffffffffffffffffffff16815260200190815260200160002060008373ffffffffffffffffffffffffffffffffffffffff1673ffffffffffffffffffffffffffffffffffffffff16815260200190815260200160002060009054906101000a900460ff16905092915050565b611350611516565b73ffffffffffffffffffffffffffffffffffffffff1661136e610f58565b73ffffffffffffffffffffffffffffffffffffffff16146113c4576040517f08c379a00000000000000000000000000000000000000000000000000000000081526004016113bb90612dcc565b60405180910390fd5b600073ffffffffffffffffffffffffffffffffffffffff168173ffffffffffffffffffffffffffffffffffffffff161415611434576040517f08c379a000000000000000000000000000000000000000000000000000000000815260040161142b90612c8c565b60405180910390fd5b61143d81611bd2565b50565b60007f01ffc9a7000000000000000000000000000000000000000000000000000000007bffffffffffffffffffffffffffffffffffffffffffffffffffffffff1916827bffffffffffffffffffffffffffffffffffffffffffffffffffffffff1916149050919050565b60008073ffffffffffffffffffffffffffffffffffffffff166002600084815260200190815260200160002060009054906101000a900473ffffffffffffffffffffffffffffffffffffffff1673ffffffffffffffffffffffffffffffffffffffff1614159050919050565b600033905090565b816004600083815260200190815260200160002060006101000a81548173ffffffffffffffffffffffffffffffffffffffff021916908373ffffffffffffffffffffffffffffffffffffffff160217905550808273ffffffffffffffffffffffffffffffffffffffff1661159183610d66565b73ffffffffffffffffffffffffffffffffffffffff167f8c5be1e5ebec7d5bd14f71427d1e84f3dd0314c0f7b2291e5b200ac8c7c3b92560405160405180910390a45050565b6000806115e26106ea565b90506000805b82518110156116635760008360008151811061162d577f4e487b7100000000000000000000000000000000000000000000000000000000600052603260045260246000fd5b60200260200101516020015190506116458682610cfa565b1561164f57600192505b50808061165b90613180565b9150506115e8565b508092505050919050565b6000816040516020016116819190612b6d565b604051602081830303815290604052805190602001209050919050565b600073ffffffffffffffffffffffffffffffffffffffff168273ffffffffffffffffffffffffffffffffffffffff16141561170e576040517f08c379a000000000000000000000000000000000000000000000000000000000815260040161170590612d8c565b60405180910390fd5b611717816114aa565b15611757576040517f08c379a000000000000000000000000000000000000000000000000000000000815260040161174e90612cac565b60405180910390fd5b61176360008383611cf4565b6001600360008473ffffffffffffffffffffffffffffffffffffffff1673ffffffffffffffffffffffffffffffffffffffff16815260200190815260200160002060008282546117b3919061300e565b92505081905550816002600083815260200190815260200160002060006101000a81548173ffffffffffffffffffffffffffffffffffffffff021916908373ffffffffffffffffffffffffffffffffffffffff160217905550808273ffffffffffffffffffffffffffffffffffffffff16600073ffffffffffffffffffffffffffffffffffffffff167fddf252ad1be2c89b69c2b068fc378daa952ba7f163c4a11628f55a4df523b3ef60405160405180910390a45050565b80600860008481526020019081526020016000209080519060200190611893929190611ea3565b505050565b60006118a3826114aa565b6118e2576040517f08c379a00000000000000000000000000000000000000000000000000000000081526004016118d990612d0c565b60405180910390fd5b60006118ed83610d66565b90508073ffffffffffffffffffffffffffffffffffffffff168473ffffffffffffffffffffffffffffffffffffffff16148061195c57508373ffffffffffffffffffffffffffffffffffffffff1661194484610665565b73ffffffffffffffffffffffffffffffffffffffff16145b8061196d575061196c81856112b4565b5b91505092915050565b8273ffffffffffffffffffffffffffffffffffffffff1661199682610d66565b73ffffffffffffffffffffffffffffffffffffffff16146119ec576040517f08c379a00000000000000000000000000000000000000000000000000000000081526004016119e390612dec565b60405180910390fd5b600073ffffffffffffffffffffffffffffffffffffffff168273ffffffffffffffffffffffffffffffffffffffff161415611a5c576040517f08c379a0000000000000000000000000000000000000000000000000000000008152600401611a5390612ccc565b60405180910390fd5b611a67838383611cf4565b611a7260008261151e565b6001600360008573ffffffffffffffffffffffffffffffffffffffff1673ffffffffffffffffffffffffffffffffffffffff1681526020019081526020016000206000828254611ac29190613064565b925050819055506001600360008473ffffffffffffffffffffffffffffffffffffffff1673ffffffffffffffffffffffffffffffffffffffff1681526020019081526020016000206000828254611b19919061300e565b92505081905550816002600083815260200190815260200160002060006101000a81548173ffffffffffffffffffffffffffffffffffffffff021916908373ffffffffffffffffffffffffffffffffffffffff160217905550808273ffffffffffffffffffffffffffffffffffffffff168473ffffffffffffffffffffffffffffffffffffffff167fddf252ad1be2c89b69c2b068fc378daa952ba7f163c4a11628f55a4df523b3ef60405160405180910390a4505050565b6000600660009054906101000a900473ffffffffffffffffffffffffffffffffffffffff16905081600660006101000a81548173ffffffffffffffffffffffffffffffffffffffff021916908373ffffffffffffffffffffffffffffffffffffffff1602179055508173ffffffffffffffffffffffffffffffffffffffff168173ffffffffffffffffffffffffffffffffffffffff167f8be0079c531659141344cd1fd0a4f28419497f9722a3daafe3b4186f6b6457e060405160405180910390a35050565b611ca3848484611976565b611caf84848484611cf9565b611cee576040517f08c379a0000000000000000000000000000000000000000000000000000000008152600401611ce590612c6c565b60405180910390fd5b50505050565b505050565b6000611d1a8473ffffffffffffffffffffffffffffffffffffffff16611e90565b15611e83578373ffffffffffffffffffffffffffffffffffffffff1663150b7a02611d43611516565b8786866040518563ffffffff1660e01b8152600401611d659493929190612b9f565b602060405180830381600087803b158015611d7f57600080fd5b505af1925050508015611db057506040513d601f19601f82011682018060405250810190611dad9190612269565b60015b611e33573d8060008114611de0576040519150601f19603f3d011682016040523d82523d6000602084013e611de5565b606091505b50600081511415611e2b576040517f08c379a0000000000000000000000000000000000000000000000000000000008152600401611e2290612c6c565b60405180910390fd5b805181602001fd5b63150b7a0260e01b7bffffffffffffffffffffffffffffffffffffffffffffffffffffffff1916817bffffffffffffffffffffffffffffffffffffffffffffffffffffffff191614915050611e88565b600190505b949350505050565b600080823b905060008111915050919050565b828054611eaf9061314e565b90600052602060002090601f016020900481019282611ed15760008555611f18565b82601f10611eea57805160ff1916838001178555611f18565b82800160010185558215611f18579182015b82811115611f17578251825591602001919060010190611efc565b5b509050611f259190611f43565b5090565b604051806040016040528060008152602001606081525090565b5b80821115611f5c576000816000905550600101611f44565b5090565b6000611f73611f6e84612ee8565b612eb7565b905082815260208101848484011115611f8b57600080fd5b611f9684828561310c565b509392505050565b6000611fb1611fac84612f18565b612eb7565b905082815260208101848484011115611fc957600080fd5b611fd484828561310c565b509392505050565b600081359050611feb81613267565b92915050565b6000813590506120008161327e565b92915050565b60008135905061201581613295565b92915050565b60008151905061202a81613295565b92915050565b600082601f83011261204157600080fd5b8135612051848260208601611f60565b91505092915050565b600082601f83011261206b57600080fd5b813561207b848260208601611f9e565b91505092915050565b600081359050612093816132ac565b92915050565b6000602082840312156120ab57600080fd5b60006120b984828501611fdc565b91505092915050565b600080604083850312156120d557600080fd5b60006120e385828601611fdc565b92505060206120f485828601611fdc565b9150509250929050565b60008060006060848603121561211357600080fd5b600061212186828701611fdc565b935050602061213286828701611fdc565b925050604061214386828701612084565b9150509250925092565b6000806000806080858703121561216357600080fd5b600061217187828801611fdc565b945050602061218287828801611fdc565b935050604061219387828801612084565b925050606085013567ffffffffffffffff8111156121b057600080fd5b6121bc87828801612030565b91505092959194509250565b600080604083850312156121db57600080fd5b60006121e985828601611fdc565b92505060206121fa85828601611ff1565b9150509250929050565b6000806040838503121561221757600080fd5b600061222585828601611fdc565b925050602061223685828601612084565b9150509250929050565b60006020828403121561225257600080fd5b600061226084828501612006565b91505092915050565b60006020828403121561227b57600080fd5b60006122898482850161201b565b91505092915050565b600080604083850312156122a557600080fd5b600083013567ffffffffffffffff8111156122bf57600080fd5b6122cb8582860161205a565b925050602083013567ffffffffffffffff8111156122e857600080fd5b6122f48582860161205a565b9150509250929050565b60006020828403121561231057600080fd5b600061231e84828501612084565b91505092915050565b60006123338383612ad5565b905092915050565b60006123478383612b12565b905092915050565b61235881613098565b82525050565b600061236982612f68565b6123738185612fae565b93508360208202850161238585612f48565b8060005b858110156123c157848403895281516123a28582612327565b94506123ad83612f94565b925060208a01995050600181019050612389565b50829750879550505050505092915050565b60006123de82612f73565b6123e88185612fbf565b9350836020820285016123fa85612f58565b8060005b858110156124365784840389528151612417858261233b565b945061242283612fa1565b925060208a019950506001810190506123fe565b50829750879550505050505092915050565b612451816130aa565b82525050565b600061246282612f7e565b61246c8185612fd0565b935061247c81856020860161311b565b61248581613256565b840191505092915050565b600061249b82612f89565b6124a58185612fe1565b93506124b581856020860161311b565b6124be81613256565b840191505092915050565b60006124d482612f89565b6124de8185612ff2565b93506124ee81856020860161311b565b6124f781613256565b840191505092915050565b600061250d82612f89565b6125178185613003565b935061252781856020860161311b565b80840191505092915050565b6000612540603283612ff2565b91507f4552433732313a207472616e7366657220746f206e6f6e20455243373231526560008301527f63656976657220696d706c656d656e74657200000000000000000000000000006020830152604082019050919050565b60006125a6602683612ff2565b91507f4f776e61626c653a206e6577206f776e657220697320746865207a65726f206160008301527f64647265737300000000000000000000000000000000000000000000000000006020830152604082019050919050565b600061260c601c83612ff2565b91507f4552433732313a20746f6b656e20616c7265616479206d696e746564000000006000830152602082019050919050565b600061264c602483612ff2565b91507f4552433732313a207472616e7366657220746f20746865207a65726f2061646460008301527f72657373000000000000000000000000000000000000000000000000000000006020830152604082019050919050565b60006126b2601983612ff2565b91507f4552433732313a20617070726f766520746f2063616c6c6572000000000000006000830152602082019050919050565b60006126f2602c83612ff2565b91507f4552433732313a206f70657261746f7220717565727920666f72206e6f6e657860008301527f697374656e7420746f6b656e00000000000000000000000000000000000000006020830152604082019050919050565b6000612758603883612ff2565b91507f4552433732313a20617070726f76652063616c6c6572206973206e6f74206f7760008301527f6e6572206e6f7220617070726f76656420666f7220616c6c00000000000000006020830152604082019050919050565b60006127be602a83612ff2565b91507f4552433732313a2062616c616e636520717565727920666f7220746865207a6560008301527f726f2061646472657373000000000000000000000000000000000000000000006020830152604082019050919050565b6000612824602983612ff2565b91507f4552433732313a206f776e657220717565727920666f72206e6f6e657869737460008301527f656e7420746f6b656e00000000000000000000000000000000000000000000006020830152604082019050919050565b600061288a602083612ff2565b91507f4552433732313a206d696e7420746f20746865207a65726f20616464726573736000830152602082019050919050565b60006128ca602c83612ff2565b91507f4552433732313a20617070726f76656420717565727920666f72206e6f6e657860008301527f697374656e7420746f6b656e00000000000000000000000000000000000000006020830152604082019050919050565b6000612930602083612ff2565b91507f4f776e61626c653a2063616c6c6572206973206e6f7420746865206f776e65726000830152602082019050919050565b6000612970602983612ff2565b91507f4552433732313a207472616e73666572206f6620746f6b656e2074686174206960008301527f73206e6f74206f776e00000000000000000000000000000000000000000000006020830152604082019050919050565b60006129d6602183612ff2565b91507f4552433732313a20617070726f76616c20746f2063757272656e74206f776e6560008301527f72000000000000000000000000000000000000000000000000000000000000006020830152604082019050919050565b6000612a3c603183612ff2565b91507f4552433732313a207472616e736665722063616c6c6572206973206e6f74206f60008301527f776e6572206e6f7220617070726f7665640000000000000000000000000000006020830152604082019050919050565b6000612aa2601383612ff2565b91507f746f6b656e20616c72656479206d696e746564000000000000000000000000006000830152602082019050919050565b6000604083016000830151612aed6000860182612b4f565b5060208301518482036020860152612b058282612490565b9150508091505092915050565b6000604083016000830151612b2a6000860182612b4f565b5060208301518482036020860152612b428282612490565b9150508091505092915050565b612b5881613102565b82525050565b612b6781613102565b82525050565b6000612b798284612502565b915081905092915050565b6000602082019050612b99600083018461234f565b92915050565b6000608082019050612bb4600083018761234f565b612bc1602083018661234f565b612bce6040830185612b5e565b8181036060830152612be08184612457565b905095945050505050565b60006020820190508181036000830152612c05818461235e565b905092915050565b60006020820190508181036000830152612c2781846123d3565b905092915050565b6000602082019050612c446000830184612448565b92915050565b60006020820190508181036000830152612c6481846124c9565b905092915050565b60006020820190508181036000830152612c8581612533565b9050919050565b60006020820190508181036000830152612ca581612599565b9050919050565b60006020820190508181036000830152612cc5816125ff565b9050919050565b60006020820190508181036000830152612ce58161263f565b9050919050565b60006020820190508181036000830152612d05816126a5565b9050919050565b60006020820190508181036000830152612d25816126e5565b9050919050565b60006020820190508181036000830152612d458161274b565b9050919050565b60006020820190508181036000830152612d65816127b1565b9050919050565b60006020820190508181036000830152612d8581612817565b9050919050565b60006020820190508181036000830152612da58161287d565b9050919050565b60006020820190508181036000830152612dc5816128bd565b9050919050565b60006020820190508181036000830152612de581612923565b9050919050565b60006020820190508181036000830152612e0581612963565b9050919050565b60006020820190508181036000830152612e25816129c9565b9050919050565b60006020820190508181036000830152612e4581612a2f565b9050919050565b60006020820190508181036000830152612e6581612a95565b9050919050565b6000602082019050612e816000830184612b5e565b92915050565b6000604082019050612e9c6000830185612b5e565b8181036020830152612eae81846124c9565b90509392505050565b6000604051905081810181811067ffffffffffffffff82111715612ede57612edd613227565b5b8060405250919050565b600067ffffffffffffffff821115612f0357612f02613227565b5b601f19601f8301169050602081019050919050565b600067ffffffffffffffff821115612f3357612f32613227565b5b601f19601f8301169050602081019050919050565b6000819050602082019050919050565b6000819050602082019050919050565b600081519050919050565b600081519050919050565b600081519050919050565b600081519050919050565b6000602082019050919050565b6000602082019050919050565b600082825260208201905092915050565b600082825260208201905092915050565b600082825260208201905092915050565b600082825260208201905092915050565b600082825260208201905092915050565b600081905092915050565b600061301982613102565b915061302483613102565b9250827fffffffffffffffffffffffffffffffffffffffffffffffffffffffffffffffff03821115613059576130586131c9565b5b828201905092915050565b600061306f82613102565b915061307a83613102565b92508282101561308d5761308c6131c9565b5b828203905092915050565b60006130a3826130e2565b9050919050565b60008115159050919050565b60007fffffffff0000000000000000000000000000000000000000000000000000000082169050919050565b600073ffffffffffffffffffffffffffffffffffffffff82169050919050565b6000819050919050565b82818337600083830152505050565b60005b8381101561313957808201518184015260208101905061311e565b83811115613148576000848401525b50505050565b6000600282049050600182168061316657607f821691505b6020821081141561317a576131796131f8565b5b50919050565b600061318b82613102565b91507fffffffffffffffffffffffffffffffffffffffffffffffffffffffffffffffff8214156131be576131bd6131c9565b5b600182019050919050565b7f4e487b7100000000000000000000000000000000000000000000000000000000600052601160045260246000fd5b7f4e487b7100000000000000000000000000000000000000000000000000000000600052602260045260246000fd5b7f4e487b7100000000000000000000000000000000000000000000000000000000600052604160045260246000fd5b6000601f19601f8301169050919050565b61327081613098565b811461327b57600080fd5b50565b613287816130aa565b811461329257600080fd5b50565b61329e816130b6565b81146132a957600080fd5b50565b6132b581613102565b81146132c057600080fd5b5056fea2646970667358221220a1fd63179d12974726c14756ecdef254f91cde187d290fa4552a8a0167ae79cf64736f6c63430008000033",
  "immutableReferences": {},
  "source": "// SPDX-License-Identifier: MIT\r\npragma solidity >=0.8.0;\r\n\r\nimport \"@openzeppelin/contracts/token/ERC721/ERC721.sol\";\r\nimport \"@openzeppelin/contracts/access/Ownable.sol\";\r\n\r\ncontract WineNFTs is ERC721, Ownable {\r\n    mapping(bytes32 => uint256) id;\r\n    mapping(uint256 => string) _tokenURIs;\r\n\r\n    uint256 counter = 0;\r\n\r\n    struct RenderToken {\r\n        uint256 id;\r\n        string uri;\r\n    }\r\n    struct Auth {\r\n        uint256 ids;\r\n        string _SN;\r\n    }\r\n\r\n    //RenderToken[] public RT;\r\n    Auth[] public auths;\r\n\r\n    address Admin_Address = msg.sender;\r\n\r\n    constructor() ERC721(\"Wine\", \"W\") {}\r\n\r\n    //User\r\n    function setID(string memory _x) internal pure returns (bytes32) {\r\n        return keccak256(abi.encodePacked(_x));\r\n    }\r\n\r\n    function _setTokenURI(uint256 tokenId, string memory _tokenURI) internal {\r\n        _tokenURIs[tokenId] = _tokenURI;\r\n    }\r\n\r\n    function tokenURI(uint256 tokenId)\r\n        public\r\n        view\r\n        virtual\r\n        override\r\n        returns (string memory)\r\n    {\r\n        require(_exists(tokenId));\r\n        string memory _tokenURI = _tokenURIs[tokenId];\r\n        return _tokenURI;\r\n    }\r\n\r\n    function getAllTokens() public view returns (RenderToken[] memory) {\r\n        uint256 lastestId = counter;\r\n        uint256 Counter = 0;\r\n        RenderToken[] memory res = new RenderToken[](lastestId);\r\n        for (uint256 i = 0; i <= lastestId; i++) {\r\n            if (_exists(Counter)) {\r\n                string memory uri = tokenURI(Counter);\r\n                res[Counter] = RenderToken(Counter, uri);\r\n            }\r\n            Counter++;\r\n        }\r\n        return res;\r\n    }\r\n\r\n    function hashCompareWithLengthCheck(string memory a, string memory b)\r\n        public\r\n        pure\r\n        returns (bool)\r\n    {\r\n        if (bytes(a).length != bytes(b).length) {\r\n            return false;\r\n        } else {\r\n            return\r\n                keccak256(abi.encodePacked(a)) ==\r\n                keccak256(abi.encodePacked(b));\r\n        }\r\n    }\r\n\r\n    function exist(string memory _str) internal view returns (bool) {\r\n        Auth[] memory A = getAuth();\r\n        bool setter = false;\r\n        for (uint256 i = 0; i < A.length; i++) {\r\n            string memory _SNN = A[0]._SN;\r\n            if (hashCompareWithLengthCheck(_str, _SNN)) {\r\n                setter = true;\r\n            }\r\n        }\r\n\r\n        return setter;\r\n    }\r\n\r\n    function mintWinesToken(string memory _SN, string memory uri)\r\n        public\r\n        onlyOwner\r\n        returns (uint256)\r\n    {\r\n        require(exist(_SN) == false, \"token alredy minted\");\r\n        bytes32 newSN = setID(_SN);\r\n        id[newSN] = counter;\r\n        _mint(msg.sender, id[newSN]);\r\n        _setTokenURI(id[newSN], uri);\r\n        auths.push(Auth(counter, _SN));\r\n        counter++;\r\n        return id[newSN];\r\n    }\r\n\r\n    function getAuth() public view onlyOwner returns (Auth[] memory) {\r\n        // uint256 size = auths.length;\r\n        return (auths);\r\n    }\r\n}\r\n",
  "sourcePath": "C:\\Users\\Alex\\Documents\\Test\\Repos\\Dapp\\Wine_NFTs_Dapp\\contracts\\WineNFTs.sol",
  "compiler": {
    "name": "solc",
    "version": "0.8.0+commit.c7dfd78e.Emscripten.clang"
  },
  "schemaVersion": "3.4.3",
  "updatedAt": "2021-09-30T14:20:18.805Z",
  "networkType": "ethereum",
  "devdoc": {
    "kind": "dev",
    "methods": {
      "approve(address,uint256)": {
        "details": "See {IERC721-approve}."
      },
      "balanceOf(address)": {
        "details": "See {IERC721-balanceOf}."
      },
      "getApproved(uint256)": {
        "details": "See {IERC721-getApproved}."
      },
      "isApprovedForAll(address,address)": {
        "details": "See {IERC721-isApprovedForAll}."
      },
      "name()": {
        "details": "See {IERC721Metadata-name}."
      },
      "owner()": {
        "details": "Returns the address of the current owner."
      },
      "ownerOf(uint256)": {
        "details": "See {IERC721-ownerOf}."
      },
      "renounceOwnership()": {
        "details": "Leaves the contract without owner. It will not be possible to call `onlyOwner` functions anymore. Can only be called by the current owner. NOTE: Renouncing ownership will leave the contract without an owner, thereby removing any functionality that is only available to the owner."
      },
      "safeTransferFrom(address,address,uint256)": {
        "details": "See {IERC721-safeTransferFrom}."
      },
      "safeTransferFrom(address,address,uint256,bytes)": {
        "details": "See {IERC721-safeTransferFrom}."
      },
      "setApprovalForAll(address,bool)": {
        "details": "See {IERC721-setApprovalForAll}."
      },
      "supportsInterface(bytes4)": {
        "details": "See {IERC165-supportsInterface}."
      },
      "symbol()": {
        "details": "See {IERC721Metadata-symbol}."
      },
      "tokenURI(uint256)": {
        "details": "See {IERC721Metadata-tokenURI}."
      },
      "transferFrom(address,address,uint256)": {
        "details": "See {IERC721-transferFrom}."
      },
      "transferOwnership(address)": {
        "details": "Transfers ownership of the contract to a new account (`newOwner`). Can only be called by the current owner."
      }
    },
    "version": 1
  },
  "userdoc": {
    "kind": "user",
    "methods": {},
    "version": 1
  }
}