{
  "contractName": "WineNFTs",
  "abi": [
    {
      "inputs": [],
      "stateMutability": "nonpayable",
      "type": "constructor"
    },
    {
      "anonymous": false,
      "inputs": [
        {
          "indexed": true,
          "internalType": "address",
          "name": "owner",
          "type": "address"
        },
        {
          "indexed": true,
          "internalType": "address",
          "name": "approved",
          "type": "address"
        },
        {
          "indexed": true,
          "internalType": "uint256",
          "name": "tokenId",
          "type": "uint256"
        }
      ],
      "name": "Approval",
      "type": "event"
    },
    {
      "anonymous": false,
      "inputs": [
        {
          "indexed": true,
          "internalType": "address",
          "name": "owner",
          "type": "address"
        },
        {
          "indexed": true,
          "internalType": "address",
          "name": "operator",
          "type": "address"
        },
        {
          "indexed": false,
          "internalType": "bool",
          "name": "approved",
          "type": "bool"
        }
      ],
      "name": "ApprovalForAll",
      "type": "event"
    },
    {
      "anonymous": false,
      "inputs": [
        {
          "indexed": true,
          "internalType": "address",
          "name": "previousOwner",
          "type": "address"
        },
        {
          "indexed": true,
          "internalType": "address",
          "name": "newOwner",
          "type": "address"
        }
      ],
      "name": "OwnershipTransferred",
      "type": "event"
    },
    {
      "anonymous": false,
      "inputs": [
        {
          "indexed": true,
          "internalType": "address",
          "name": "from",
          "type": "address"
        },
        {
          "indexed": true,
          "internalType": "address",
          "name": "to",
          "type": "address"
        },
        {
          "indexed": true,
          "internalType": "uint256",
          "name": "tokenId",
          "type": "uint256"
        }
      ],
      "name": "Transfer",
      "type": "event"
    },
    {
      "inputs": [
        {
          "internalType": "address",
          "name": "to",
          "type": "address"
        },
        {
          "internalType": "uint256",
          "name": "tokenId",
          "type": "uint256"
        }
      ],
      "name": "approve",
      "outputs": [],
      "stateMutability": "nonpayable",
      "type": "function"
    },
    {
      "inputs": [
        {
          "internalType": "uint256",
          "name": "",
          "type": "uint256"
        }
      ],
      "name": "auths",
      "outputs": [
        {
          "internalType": "uint256",
          "name": "ids",
          "type": "uint256"
        },
        {
          "internalType": "string",
          "name": "_SN",
          "type": "string"
        }
      ],
      "stateMutability": "view",
      "type": "function",
      "constant": true
    },
    {
      "inputs": [
        {
          "internalType": "address",
          "name": "owner",
          "type": "address"
        }
      ],
      "name": "balanceOf",
      "outputs": [
        {
          "internalType": "uint256",
          "name": "",
          "type": "uint256"
        }
      ],
      "stateMutability": "view",
      "type": "function",
      "constant": true
    },
    {
      "inputs": [
        {
          "internalType": "uint256",
          "name": "tokenId",
          "type": "uint256"
        }
      ],
      "name": "getApproved",
      "outputs": [
        {
          "internalType": "address",
          "name": "",
          "type": "address"
        }
      ],
      "stateMutability": "view",
      "type": "function",
      "constant": true
    },
    {
      "inputs": [
        {
          "internalType": "address",
          "name": "owner",
          "type": "address"
        },
        {
          "internalType": "address",
          "name": "operator",
          "type": "address"
        }
      ],
      "name": "isApprovedForAll",
      "outputs": [
        {
          "internalType": "bool",
          "name": "",
          "type": "bool"
        }
      ],
      "stateMutability": "view",
      "type": "function",
      "constant": true
    },
    {
      "inputs": [],
      "name": "name",
      "outputs": [
        {
          "internalType": "string",
          "name": "",
          "type": "string"
        }
      ],
      "stateMutability": "view",
      "type": "function",
      "constant": true
    },
    {
      "inputs": [],
      "name": "owner",
      "outputs": [
        {
          "internalType": "address",
          "name": "",
          "type": "address"
        }
      ],
      "stateMutability": "view",
      "type": "function",
      "constant": true
    },
    {
      "inputs": [
        {
          "internalType": "uint256",
          "name": "tokenId",
          "type": "uint256"
        }
      ],
      "name": "ownerOf",
      "outputs": [
        {
          "internalType": "address",
          "name": "",
          "type": "address"
        }
      ],
      "stateMutability": "view",
      "type": "function",
      "constant": true
    },
    {
      "inputs": [],
      "name": "renounceOwnership",
      "outputs": [],
      "stateMutability": "nonpayable",
      "type": "function"
    },
    {
      "inputs": [
        {
          "internalType": "address",
          "name": "from",
          "type": "address"
        },
        {
          "internalType": "address",
          "name": "to",
          "type": "address"
        },
        {
          "internalType": "uint256",
          "name": "tokenId",
          "type": "uint256"
        }
      ],
      "name": "safeTransferFrom",
      "outputs": [],
      "stateMutability": "nonpayable",
      "type": "function"
    },
    {
      "inputs": [
        {
          "internalType": "address",
          "name": "from",
          "type": "address"
        },
        {
          "internalType": "address",
          "name": "to",
          "type": "address"
        },
        {
          "internalType": "uint256",
          "name": "tokenId",
          "type": "uint256"
        },
        {
          "internalType": "bytes",
          "name": "_data",
          "type": "bytes"
        }
      ],
      "name": "safeTransferFrom",
      "outputs": [],
      "stateMutability": "nonpayable",
      "type": "function"
    },
    {
      "inputs": [
        {
          "internalType": "address",
          "name": "operator",
          "type": "address"
        },
        {
          "internalType": "bool",
          "name": "approved",
          "type": "bool"
        }
      ],
      "name": "setApprovalForAll",
      "outputs": [],
      "stateMutability": "nonpayable",
      "type": "function"
    },
    {
      "inputs": [
        {
          "internalType": "bytes4",
          "name": "interfaceId",
          "type": "bytes4"
        }
      ],
      "name": "supportsInterface",
      "outputs": [
        {
          "internalType": "bool",
          "name": "",
          "type": "bool"
        }
      ],
      "stateMutability": "view",
      "type": "function",
      "constant": true
    },
    {
      "inputs": [],
      "name": "symbol",
      "outputs": [
        {
          "internalType": "string",
          "name": "",
          "type": "string"
        }
      ],
      "stateMutability": "view",
      "type": "function",
      "constant": true
    },
    {
      "inputs": [
        {
          "internalType": "address",
          "name": "from",
          "type": "address"
        },
        {
          "internalType": "address",
          "name": "to",
          "type": "address"
        },
        {
          "internalType": "uint256",
          "name": "tokenId",
          "type": "uint256"
        }
      ],
      "name": "transferFrom",
      "outputs": [],
      "stateMutability": "nonpayable",
      "type": "function"
    },
    {
      "inputs": [
        {
          "internalType": "address",
          "name": "newOwner",
          "type": "address"
        }
      ],
      "name": "transferOwnership",
      "outputs": [],
      "stateMutability": "nonpayable",
      "type": "function"
    },
    {
      "inputs": [
        {
          "internalType": "uint256",
          "name": "tokenId",
          "type": "uint256"
        }
      ],
      "name": "tokenURI",
      "outputs": [
        {
          "internalType": "string",
          "name": "",
          "type": "string"
        }
      ],
      "stateMutability": "view",
      "type": "function",
      "constant": true
    },
    {
      "inputs": [],
      "name": "getAllTokens",
      "outputs": [
        {
          "components": [
            {
              "internalType": "uint256",
              "name": "id",
              "type": "uint256"
            },
            {
              "internalType": "string",
              "name": "uri",
              "type": "string"
            }
          ],
          "internalType": "struct WineNFTs.RenderToken[]",
          "name": "",
          "type": "tuple[]"
        }
      ],
      "stateMutability": "view",
      "type": "function",
      "constant": true
    },
    {
      "inputs": [
        {
          "internalType": "string",
          "name": "a",
          "type": "string"
        },
        {
          "internalType": "string",
          "name": "b",
          "type": "string"
        }
      ],
      "name": "hashCompareWithLengthCheck",
      "outputs": [
        {
          "internalType": "bool",
          "name": "",
          "type": "bool"
        }
      ],
      "stateMutability": "pure",
      "type": "function",
      "constant": true
    },
    {
      "inputs": [
        {
          "internalType": "string",
          "name": "_SN",
          "type": "string"
        },
        {
          "internalType": "string",
          "name": "uri",
          "type": "string"
        }
      ],
      "name": "mintWineToken",
      "outputs": [
        {
          "internalType": "uint256",
          "name": "",
          "type": "uint256"
        }
      ],
      "stateMutability": "nonpayable",
      "type": "function"
    },
    {
      "inputs": [],
      "name": "getAuth",
      "outputs": [
        {
          "components": [
            {
              "internalType": "uint256",
              "name": "ids",
              "type": "uint256"
            },
            {
              "internalType": "string",
              "name": "_SN",
              "type": "string"
            }
          ],
          "internalType": "struct WineNFTs.Auth[]",
          "name": "",
          "type": "tuple[]"
        }
      ],
      "stateMutability": "view",
      "type": "function",
      "constant": true
    }
  ],
  "bytecode": "0x6080604052600060095533600b60006101000a81548173ffffffffffffffffffffffffffffffffffffffff021916908373ffffffffffffffffffffffffffffffffffffffff1602179055503480156200005757600080fd5b506040518060400160405280600481526020017f57696e65000000000000000000000000000000000000000000000000000000008152506040518060400160405280600181526020017f57000000000000000000000000000000000000000000000000000000000000008152508160009080519060200190620000dc929190620001ec565b508060019080519060200190620000f5929190620001ec565b505050620001186200010c6200011e60201b60201c565b6200012660201b60201c565b62000301565b600033905090565b6000600660009054906101000a900473ffffffffffffffffffffffffffffffffffffffff16905081600660006101000a81548173ffffffffffffffffffffffffffffffffffffffff021916908373ffffffffffffffffffffffffffffffffffffffff1602179055508173ffffffffffffffffffffffffffffffffffffffff168173ffffffffffffffffffffffffffffffffffffffff167f8be0079c531659141344cd1fd0a4f28419497f9722a3daafe3b4186f6b6457e060405160405180910390a35050565b828054620001fa906200029c565b90600052602060002090601f0160209004810192826200021e57600085556200026a565b82601f106200023957805160ff19168380011785556200026a565b828001600101855582156200026a579182015b82811115620002695782518255916020019190600101906200024c565b5b5090506200027991906200027d565b5090565b5b80821115620002985760008160009055506001016200027e565b5090565b60006002820490506001821680620002b557607f821691505b60208210811415620002cc57620002cb620002d2565b5b50919050565b7f4e487b7100000000000000000000000000000000000000000000000000000000600052602260045260246000fd5b6133ff80620003116000396000f3fe608060405234801561001057600080fd5b50600436106101375760003560e01c80636352211e116100b857806395d89b411161007c57806395d89b4114610363578063a22cb46514610381578063b88d4fde1461039d578063c87b56dd146103b9578063e985e9c5146103e9578063f2fde38b1461041957610137565b80636352211e146102ab57806370a08231146102db578063715018a61461030b5780638739a7e6146103155780638da5cb5b1461034557610137565b8063095ea7b3116100ff578063095ea7b31461020957806323b872dd146102255780632a5c792a1461024157806342842e0e1461025f57806345717f281461027b57610137565b806301ffc9a71461013c578063068df3dd1461016c57806306fdde031461019d578063081812fc146101bb57806308571011146101eb575b600080fd5b61015660048036038101906101519190612346565b610435565b6040516101639190612d35565b60405180910390f35b61018660048036038101906101819190612404565b610517565b604051610194929190612f8d565b60405180910390f35b6101a56105d3565b6040516101b29190612d50565b60405180910390f35b6101d560048036038101906101d09190612404565b610665565b6040516101e29190612c8a565b60405180910390f35b6101f36106ea565b6040516102009190612cf1565b60405180910390f35b610223600480360381019061021e919061230a565b610861565b005b61023f600480360381019061023a9190612204565b610979565b005b6102496109d9565b6040516102569190612d13565b60405180910390f35b61027960048036038101906102749190612204565b610b88565b005b61029560048036038101906102909190612398565b610ba8565b6040516102a29190612d35565b60405180910390f35b6102c560048036038101906102c09190612404565b610c14565b6040516102d29190612c8a565b60405180910390f35b6102f560048036038101906102f0919061219f565b610cc6565b6040516103029190612f72565b60405180910390f35b610313610d7e565b005b61032f600480360381019061032a9190612398565b610e06565b60405161033c9190612f72565b60405180910390f35b61034d610fd4565b60405161035a9190612c8a565b60405180910390f35b61036b610ffe565b6040516103789190612d50565b60405180910390f35b61039b600480360381019061039691906122ce565b611090565b005b6103b760048036038101906103b29190612253565b611211565b005b6103d360048036038101906103ce9190612404565b611273565b6040516103e09190612d50565b60405180910390f35b61040360048036038101906103fe91906121c8565b611330565b6040516104109190612d35565b60405180910390f35b610433600480360381019061042e919061219f565b6113c4565b005b60007f80ac58cd000000000000000000000000000000000000000000000000000000007bffffffffffffffffffffffffffffffffffffffffffffffffffffffff1916827bffffffffffffffffffffffffffffffffffffffffffffffffffffffff1916148061050057507f5b5e139f000000000000000000000000000000000000000000000000000000007bffffffffffffffffffffffffffffffffffffffffffffffffffffffff1916827bffffffffffffffffffffffffffffffffffffffffffffffffffffffff1916145b80610510575061050f826114bc565b5b9050919050565b600a818154811061052757600080fd5b906000526020600020906002020160009150905080600001549080600101805461055090613254565b80601f016020809104026020016040519081016040528092919081815260200182805461057c90613254565b80156105c95780601f1061059e576101008083540402835291602001916105c9565b820191906000526020600020905b8154815290600101906020018083116105ac57829003601f168201915b5050505050905082565b6060600080546105e290613254565b80601f016020809104026020016040519081016040528092919081815260200182805461060e90613254565b801561065b5780601f106106305761010080835404028352916020019161065b565b820191906000526020600020905b81548152906001019060200180831161063e57829003601f168201915b5050505050905090565b600061067082611526565b6106af576040517f08c379a00000000000000000000000000000000000000000000000000000000081526004016106a690612eb2565b60405180910390fd5b6004600083815260200190815260200160002060009054906101000a900473ffffffffffffffffffffffffffffffffffffffff169050919050565b60606106f4611592565b73ffffffffffffffffffffffffffffffffffffffff16610712610fd4565b73ffffffffffffffffffffffffffffffffffffffff1614610768576040517f08c379a000000000000000000000000000000000000000000000000000000000815260040161075f90612ed2565b60405180910390fd5b600a805480602002602001604051908101604052809291908181526020016000905b828210156108585783829060005260206000209060020201604051806040016040529081600082015481526020016001820180546107c790613254565b80601f01602080910402602001604051908101604052809291908181526020018280546107f390613254565b80156108405780601f1061081557610100808354040283529160200191610840565b820191906000526020600020905b81548152906001019060200180831161082357829003601f168201915b5050505050815250508152602001906001019061078a565b50505050905090565b600061086c82610c14565b90508073ffffffffffffffffffffffffffffffffffffffff168373ffffffffffffffffffffffffffffffffffffffff1614156108dd576040517f08c379a00000000000000000000000000000000000000000000000000000000081526004016108d490612f12565b60405180910390fd5b8073ffffffffffffffffffffffffffffffffffffffff166108fc611592565b73ffffffffffffffffffffffffffffffffffffffff16148061092b575061092a81610925611592565b611330565b5b61096a576040517f08c379a000000000000000000000000000000000000000000000000000000000815260040161096190612e32565b60405180910390fd5b610974838361159a565b505050565b61098a610984611592565b82611653565b6109c9576040517f08c379a00000000000000000000000000000000000000000000000000000000081526004016109c090612f32565b60405180910390fd5b6109d4838383611731565b505050565b60606109e3611592565b73ffffffffffffffffffffffffffffffffffffffff16610a01610fd4565b73ffffffffffffffffffffffffffffffffffffffff1614610a57576040517f08c379a0000000000000000000000000000000000000000000000000000000008152600401610a4e90612ed2565b60405180910390fd5b600060095490506000808267ffffffffffffffff811115610aa1577f4e487b7100000000000000000000000000000000000000000000000000000000600052604160045260246000fd5b604051908082528060200260200182016040528015610ada57816020015b610ac7611fa9565b815260200190600190039081610abf5790505b50905060005b838111610b7e57610af083611526565b15610b5d576000610b0084611273565b9050604051806040016040528085815260200182815250838581518110610b50577f4e487b7100000000000000000000000000000000000000000000000000000000600052603260045260246000fd5b6020026020010181905250505b8280610b6890613286565b9350508080610b7690613286565b915050610ae0565b5080935050505090565b610ba383838360405180602001604052806000815250611211565b505050565b60008151835114610bbc5760009050610c0e565b81604051602001610bcd9190612c73565b6040516020818303038152906040528051906020012083604051602001610bf49190612c73565b604051602081830303815290604052805190602001201490505b92915050565b6000806002600084815260200190815260200160002060009054906101000a900473ffffffffffffffffffffffffffffffffffffffff169050600073ffffffffffffffffffffffffffffffffffffffff168173ffffffffffffffffffffffffffffffffffffffff161415610cbd576040517f08c379a0000000000000000000000000000000000000000000000000000000008152600401610cb490612e72565b60405180910390fd5b80915050919050565b60008073ffffffffffffffffffffffffffffffffffffffff168273ffffffffffffffffffffffffffffffffffffffff161415610d37576040517f08c379a0000000000000000000000000000000000000000000000000000000008152600401610d2e90612e52565b60405180910390fd5b600360008373ffffffffffffffffffffffffffffffffffffffff1673ffffffffffffffffffffffffffffffffffffffff168152602001908152602001600020549050919050565b610d86611592565b73ffffffffffffffffffffffffffffffffffffffff16610da4610fd4565b73ffffffffffffffffffffffffffffffffffffffff1614610dfa576040517f08c379a0000000000000000000000000000000000000000000000000000000008152600401610df190612ed2565b60405180910390fd5b610e04600061198d565b565b6000610e10611592565b73ffffffffffffffffffffffffffffffffffffffff16610e2e610fd4565b73ffffffffffffffffffffffffffffffffffffffff1614610e84576040517f08c379a0000000000000000000000000000000000000000000000000000000008152600401610e7b90612ed2565b60405180910390fd5b60001515610e9184611a53565b151514610ed3576040517f08c379a0000000000000000000000000000000000000000000000000000000008152600401610eca90612f52565b60405180910390fd5b6000610ede84611b74565b90506009546007600083815260200190815260200160002081905550610f17336007600084815260200190815260200160002054611ba4565b610f34600760008381526020019081526020016000205484611d72565b600a60405180604001604052806009548152602001868152509080600181540180825580915050600190039060005260206000209060020201600090919091909150600082015181600001556020820151816001019080519060200190610f9c929190611fc3565b50505060096000815480929190610fb290613286565b9190505550600760008281526020019081526020016000205491505092915050565b6000600660009054906101000a900473ffffffffffffffffffffffffffffffffffffffff16905090565b60606001805461100d90613254565b80601f016020809104026020016040519081016040528092919081815260200182805461103990613254565b80156110865780601f1061105b57610100808354040283529160200191611086565b820191906000526020600020905b81548152906001019060200180831161106957829003601f168201915b5050505050905090565b611098611592565b73ffffffffffffffffffffffffffffffffffffffff168273ffffffffffffffffffffffffffffffffffffffff161415611106576040517f08c379a00000000000000000000000000000000000000000000000000000000081526004016110fd90612df2565b60405180910390fd5b8060056000611113611592565b73ffffffffffffffffffffffffffffffffffffffff1673ffffffffffffffffffffffffffffffffffffffff16815260200190815260200160002060008473ffffffffffffffffffffffffffffffffffffffff1673ffffffffffffffffffffffffffffffffffffffff16815260200190815260200160002060006101000a81548160ff0219169083151502179055508173ffffffffffffffffffffffffffffffffffffffff166111c0611592565b73ffffffffffffffffffffffffffffffffffffffff167f17307eab39ab6107e8899845ad3d59bd9653f200f220920489ca2b5937696c31836040516112059190612d35565b60405180910390a35050565b61122261121c611592565b83611653565b611261576040517f08c379a000000000000000000000000000000000000000000000000000000000815260040161125890612f32565b60405180910390fd5b61126d84848484611d9e565b50505050565b606061127e82611526565b61128757600080fd5b60006008600084815260200190815260200160002080546112a790613254565b80601f01602080910402602001604051908101604052809291908181526020018280546112d390613254565b80156113205780601f106112f557610100808354040283529160200191611320565b820191906000526020600020905b81548152906001019060200180831161130357829003601f168201915b5050505050905080915050919050565b6000600560008473ffffffffffffffffffffffffffffffffffffffff1673ffffffffffffffffffffffffffffffffffffffff16815260200190815260200160002060008373ffffffffffffffffffffffffffffffffffffffff1673ffffffffffffffffffffffffffffffffffffffff16815260200190815260200160002060009054906101000a900460ff16905092915050565b6113cc611592565b73ffffffffffffffffffffffffffffffffffffffff166113ea610fd4565b73ffffffffffffffffffffffffffffffffffffffff1614611440576040517f08c379a000000000000000000000000000000000000000000000000000000000815260040161143790612ed2565b60405180910390fd5b600073ffffffffffffffffffffffffffffffffffffffff168173ffffffffffffffffffffffffffffffffffffffff1614156114b0576040517f08c379a00000000000000000000000000000000000000000000000000000000081526004016114a790612d92565b60405180910390fd5b6114b98161198d565b50565b60007f01ffc9a7000000000000000000000000000000000000000000000000000000007bffffffffffffffffffffffffffffffffffffffffffffffffffffffff1916827bffffffffffffffffffffffffffffffffffffffffffffffffffffffff1916149050919050565b60008073ffffffffffffffffffffffffffffffffffffffff166002600084815260200190815260200160002060009054906101000a900473ffffffffffffffffffffffffffffffffffffffff1673ffffffffffffffffffffffffffffffffffffffff1614159050919050565b600033905090565b816004600083815260200190815260200160002060006101000a81548173ffffffffffffffffffffffffffffffffffffffff021916908373ffffffffffffffffffffffffffffffffffffffff160217905550808273ffffffffffffffffffffffffffffffffffffffff1661160d83610c14565b73ffffffffffffffffffffffffffffffffffffffff167f8c5be1e5ebec7d5bd14f71427d1e84f3dd0314c0f7b2291e5b200ac8c7c3b92560405160405180910390a45050565b600061165e82611526565b61169d576040517f08c379a000000000000000000000000000000000000000000000000000000000815260040161169490612e12565b60405180910390fd5b60006116a883610c14565b90508073ffffffffffffffffffffffffffffffffffffffff168473ffffffffffffffffffffffffffffffffffffffff16148061171757508373ffffffffffffffffffffffffffffffffffffffff166116ff84610665565b73ffffffffffffffffffffffffffffffffffffffff16145b8061172857506117278185611330565b5b91505092915050565b8273ffffffffffffffffffffffffffffffffffffffff1661175182610c14565b73ffffffffffffffffffffffffffffffffffffffff16146117a7576040517f08c379a000000000000000000000000000000000000000000000000000000000815260040161179e90612ef2565b60405180910390fd5b600073ffffffffffffffffffffffffffffffffffffffff168273ffffffffffffffffffffffffffffffffffffffff161415611817576040517f08c379a000000000000000000000000000000000000000000000000000000000815260040161180e90612dd2565b60405180910390fd5b611822838383611dfa565b61182d60008261159a565b6001600360008573ffffffffffffffffffffffffffffffffffffffff1673ffffffffffffffffffffffffffffffffffffffff168152602001908152602001600020600082825461187d919061316a565b925050819055506001600360008473ffffffffffffffffffffffffffffffffffffffff1673ffffffffffffffffffffffffffffffffffffffff16815260200190815260200160002060008282546118d49190613114565b92505081905550816002600083815260200190815260200160002060006101000a81548173ffffffffffffffffffffffffffffffffffffffff021916908373ffffffffffffffffffffffffffffffffffffffff160217905550808273ffffffffffffffffffffffffffffffffffffffff168473ffffffffffffffffffffffffffffffffffffffff167fddf252ad1be2c89b69c2b068fc378daa952ba7f163c4a11628f55a4df523b3ef60405160405180910390a4505050565b6000600660009054906101000a900473ffffffffffffffffffffffffffffffffffffffff16905081600660006101000a81548173ffffffffffffffffffffffffffffffffffffffff021916908373ffffffffffffffffffffffffffffffffffffffff1602179055508173ffffffffffffffffffffffffffffffffffffffff168173ffffffffffffffffffffffffffffffffffffffff167f8be0079c531659141344cd1fd0a4f28419497f9722a3daafe3b4186f6b6457e060405160405180910390a35050565b6000806000905060005b600a80549050811015611b6a576000600a8281548110611aa6577f4e487b7100000000000000000000000000000000000000000000000000000000600052603260045260246000fd5b90600052602060002090600202016001018054611ac290613254565b80601f0160208091040260200160405190810160405280929190818152602001828054611aee90613254565b8015611b3b5780601f10611b1057610100808354040283529160200191611b3b565b820191906000526020600020905b815481529060010190602001808311611b1e57829003601f168201915b50505050509050611b4c8582610ba8565b15611b5657600192505b508080611b6290613286565b915050611a5d565b5080915050919050565b600081604051602001611b879190612c73565b604051602081830303815290604052805190602001209050919050565b600073ffffffffffffffffffffffffffffffffffffffff168273ffffffffffffffffffffffffffffffffffffffff161415611c14576040517f08c379a0000000000000000000000000000000000000000000000000000000008152600401611c0b90612e92565b60405180910390fd5b611c1d81611526565b15611c5d576040517f08c379a0000000000000000000000000000000000000000000000000000000008152600401611c5490612db2565b60405180910390fd5b611c6960008383611dfa565b6001600360008473ffffffffffffffffffffffffffffffffffffffff1673ffffffffffffffffffffffffffffffffffffffff1681526020019081526020016000206000828254611cb99190613114565b92505081905550816002600083815260200190815260200160002060006101000a81548173ffffffffffffffffffffffffffffffffffffffff021916908373ffffffffffffffffffffffffffffffffffffffff160217905550808273ffffffffffffffffffffffffffffffffffffffff16600073ffffffffffffffffffffffffffffffffffffffff167fddf252ad1be2c89b69c2b068fc378daa952ba7f163c4a11628f55a4df523b3ef60405160405180910390a45050565b80600860008481526020019081526020016000209080519060200190611d99929190611fc3565b505050565b611da9848484611731565b611db584848484611dff565b611df4576040517f08c379a0000000000000000000000000000000000000000000000000000000008152600401611deb90612d72565b60405180910390fd5b50505050565b505050565b6000611e208473ffffffffffffffffffffffffffffffffffffffff16611f96565b15611f89578373ffffffffffffffffffffffffffffffffffffffff1663150b7a02611e49611592565b8786866040518563ffffffff1660e01b8152600401611e6b9493929190612ca5565b602060405180830381600087803b158015611e8557600080fd5b505af1925050508015611eb657506040513d601f19601f82011682018060405250810190611eb3919061236f565b60015b611f39573d8060008114611ee6576040519150601f19603f3d011682016040523d82523d6000602084013e611eeb565b606091505b50600081511415611f31576040517f08c379a0000000000000000000000000000000000000000000000000000000008152600401611f2890612d72565b60405180910390fd5b805181602001fd5b63150b7a0260e01b7bffffffffffffffffffffffffffffffffffffffffffffffffffffffff1916817bffffffffffffffffffffffffffffffffffffffffffffffffffffffff191614915050611f8e565b600190505b949350505050565b600080823b905060008111915050919050565b604051806040016040528060008152602001606081525090565b828054611fcf90613254565b90600052602060002090601f016020900481019282611ff15760008555612038565b82601f1061200a57805160ff1916838001178555612038565b82800160010185558215612038579182015b8281111561203757825182559160200191906001019061201c565b5b5090506120459190612049565b5090565b5b8082111561206257600081600090555060010161204a565b5090565b600061207961207484612fee565b612fbd565b90508281526020810184848401111561209157600080fd5b61209c848285613212565b509392505050565b60006120b76120b28461301e565b612fbd565b9050828152602081018484840111156120cf57600080fd5b6120da848285613212565b509392505050565b6000813590506120f18161336d565b92915050565b60008135905061210681613384565b92915050565b60008135905061211b8161339b565b92915050565b6000815190506121308161339b565b92915050565b600082601f83011261214757600080fd5b8135612157848260208601612066565b91505092915050565b600082601f83011261217157600080fd5b81356121818482602086016120a4565b91505092915050565b600081359050612199816133b2565b92915050565b6000602082840312156121b157600080fd5b60006121bf848285016120e2565b91505092915050565b600080604083850312156121db57600080fd5b60006121e9858286016120e2565b92505060206121fa858286016120e2565b9150509250929050565b60008060006060848603121561221957600080fd5b6000612227868287016120e2565b9350506020612238868287016120e2565b92505060406122498682870161218a565b9150509250925092565b6000806000806080858703121561226957600080fd5b6000612277878288016120e2565b9450506020612288878288016120e2565b93505060406122998782880161218a565b925050606085013567ffffffffffffffff8111156122b657600080fd5b6122c287828801612136565b91505092959194509250565b600080604083850312156122e157600080fd5b60006122ef858286016120e2565b9250506020612300858286016120f7565b9150509250929050565b6000806040838503121561231d57600080fd5b600061232b858286016120e2565b925050602061233c8582860161218a565b9150509250929050565b60006020828403121561235857600080fd5b60006123668482850161210c565b91505092915050565b60006020828403121561238157600080fd5b600061238f84828501612121565b91505092915050565b600080604083850312156123ab57600080fd5b600083013567ffffffffffffffff8111156123c557600080fd5b6123d185828601612160565b925050602083013567ffffffffffffffff8111156123ee57600080fd5b6123fa85828601612160565b9150509250929050565b60006020828403121561241657600080fd5b60006124248482850161218a565b91505092915050565b60006124398383612bdb565b905092915050565b600061244d8383612c18565b905092915050565b61245e8161319e565b82525050565b600061246f8261306e565b61247981856130b4565b93508360208202850161248b8561304e565b8060005b858110156124c757848403895281516124a8858261242d565b94506124b38361309a565b925060208a0199505060018101905061248f565b50829750879550505050505092915050565b60006124e482613079565b6124ee81856130c5565b9350836020820285016125008561305e565b8060005b8581101561253c578484038952815161251d8582612441565b9450612528836130a7565b925060208a01995050600181019050612504565b50829750879550505050505092915050565b612557816131b0565b82525050565b600061256882613084565b61257281856130d6565b9350612582818560208601613221565b61258b8161335c565b840191505092915050565b60006125a18261308f565b6125ab81856130e7565b93506125bb818560208601613221565b6125c48161335c565b840191505092915050565b60006125da8261308f565b6125e481856130f8565b93506125f4818560208601613221565b6125fd8161335c565b840191505092915050565b60006126138261308f565b61261d8185613109565b935061262d818560208601613221565b80840191505092915050565b60006126466032836130f8565b91507f4552433732313a207472616e7366657220746f206e6f6e20455243373231526560008301527f63656976657220696d706c656d656e74657200000000000000000000000000006020830152604082019050919050565b60006126ac6026836130f8565b91507f4f776e61626c653a206e6577206f776e657220697320746865207a65726f206160008301527f64647265737300000000000000000000000000000000000000000000000000006020830152604082019050919050565b6000612712601c836130f8565b91507f4552433732313a20746f6b656e20616c7265616479206d696e746564000000006000830152602082019050919050565b60006127526024836130f8565b91507f4552433732313a207472616e7366657220746f20746865207a65726f2061646460008301527f72657373000000000000000000000000000000000000000000000000000000006020830152604082019050919050565b60006127b86019836130f8565b91507f4552433732313a20617070726f766520746f2063616c6c6572000000000000006000830152602082019050919050565b60006127f8602c836130f8565b91507f4552433732313a206f70657261746f7220717565727920666f72206e6f6e657860008301527f697374656e7420746f6b656e00000000000000000000000000000000000000006020830152604082019050919050565b600061285e6038836130f8565b91507f4552433732313a20617070726f76652063616c6c6572206973206e6f74206f7760008301527f6e6572206e6f7220617070726f76656420666f7220616c6c00000000000000006020830152604082019050919050565b60006128c4602a836130f8565b91507f4552433732313a2062616c616e636520717565727920666f7220746865207a6560008301527f726f2061646472657373000000000000000000000000000000000000000000006020830152604082019050919050565b600061292a6029836130f8565b91507f4552433732313a206f776e657220717565727920666f72206e6f6e657869737460008301527f656e7420746f6b656e00000000000000000000000000000000000000000000006020830152604082019050919050565b60006129906020836130f8565b91507f4552433732313a206d696e7420746f20746865207a65726f20616464726573736000830152602082019050919050565b60006129d0602c836130f8565b91507f4552433732313a20617070726f76656420717565727920666f72206e6f6e657860008301527f697374656e7420746f6b656e00000000000000000000000000000000000000006020830152604082019050919050565b6000612a366020836130f8565b91507f4f776e61626c653a2063616c6c6572206973206e6f7420746865206f776e65726000830152602082019050919050565b6000612a766029836130f8565b91507f4552433732313a207472616e73666572206f6620746f6b656e2074686174206960008301527f73206e6f74206f776e00000000000000000000000000000000000000000000006020830152604082019050919050565b6000612adc6021836130f8565b91507f4552433732313a20617070726f76616c20746f2063757272656e74206f776e6560008301527f72000000000000000000000000000000000000000000000000000000000000006020830152604082019050919050565b6000612b426031836130f8565b91507f4552433732313a207472616e736665722063616c6c6572206973206e6f74206f60008301527f776e6572206e6f7220617070726f7665640000000000000000000000000000006020830152604082019050919050565b6000612ba86013836130f8565b91507f746f6b656e20616c72656479206d696e746564000000000000000000000000006000830152602082019050919050565b6000604083016000830151612bf36000860182612c55565b5060208301518482036020860152612c0b8282612596565b9150508091505092915050565b6000604083016000830151612c306000860182612c55565b5060208301518482036020860152612c488282612596565b9150508091505092915050565b612c5e81613208565b82525050565b612c6d81613208565b82525050565b6000612c7f8284612608565b915081905092915050565b6000602082019050612c9f6000830184612455565b92915050565b6000608082019050612cba6000830187612455565b612cc76020830186612455565b612cd46040830185612c64565b8181036060830152612ce6818461255d565b905095945050505050565b60006020820190508181036000830152612d0b8184612464565b905092915050565b60006020820190508181036000830152612d2d81846124d9565b905092915050565b6000602082019050612d4a600083018461254e565b92915050565b60006020820190508181036000830152612d6a81846125cf565b905092915050565b60006020820190508181036000830152612d8b81612639565b9050919050565b60006020820190508181036000830152612dab8161269f565b9050919050565b60006020820190508181036000830152612dcb81612705565b9050919050565b60006020820190508181036000830152612deb81612745565b9050919050565b60006020820190508181036000830152612e0b816127ab565b9050919050565b60006020820190508181036000830152612e2b816127eb565b9050919050565b60006020820190508181036000830152612e4b81612851565b9050919050565b60006020820190508181036000830152612e6b816128b7565b9050919050565b60006020820190508181036000830152612e8b8161291d565b9050919050565b60006020820190508181036000830152612eab81612983565b9050919050565b60006020820190508181036000830152612ecb816129c3565b9050919050565b60006020820190508181036000830152612eeb81612a29565b9050919050565b60006020820190508181036000830152612f0b81612a69565b9050919050565b60006020820190508181036000830152612f2b81612acf565b9050919050565b60006020820190508181036000830152612f4b81612b35565b9050919050565b60006020820190508181036000830152612f6b81612b9b565b9050919050565b6000602082019050612f876000830184612c64565b92915050565b6000604082019050612fa26000830185612c64565b8181036020830152612fb481846125cf565b90509392505050565b6000604051905081810181811067ffffffffffffffff82111715612fe457612fe361332d565b5b8060405250919050565b600067ffffffffffffffff8211156130095761300861332d565b5b601f19601f8301169050602081019050919050565b600067ffffffffffffffff8211156130395761303861332d565b5b601f19601f8301169050602081019050919050565b6000819050602082019050919050565b6000819050602082019050919050565b600081519050919050565b600081519050919050565b600081519050919050565b600081519050919050565b6000602082019050919050565b6000602082019050919050565b600082825260208201905092915050565b600082825260208201905092915050565b600082825260208201905092915050565b600082825260208201905092915050565b600082825260208201905092915050565b600081905092915050565b600061311f82613208565b915061312a83613208565b9250827fffffffffffffffffffffffffffffffffffffffffffffffffffffffffffffffff0382111561315f5761315e6132cf565b5b828201905092915050565b600061317582613208565b915061318083613208565b925082821015613193576131926132cf565b5b828203905092915050565b60006131a9826131e8565b9050919050565b60008115159050919050565b60007fffffffff0000000000000000000000000000000000000000000000000000000082169050919050565b600073ffffffffffffffffffffffffffffffffffffffff82169050919050565b6000819050919050565b82818337600083830152505050565b60005b8381101561323f578082015181840152602081019050613224565b8381111561324e576000848401525b50505050565b6000600282049050600182168061326c57607f821691505b602082108114156132805761327f6132fe565b5b50919050565b600061329182613208565b91507fffffffffffffffffffffffffffffffffffffffffffffffffffffffffffffffff8214156132c4576132c36132cf565b5b600182019050919050565b7f4e487b7100000000000000000000000000000000000000000000000000000000600052601160045260246000fd5b7f4e487b7100000000000000000000000000000000000000000000000000000000600052602260045260246000fd5b7f4e487b7100000000000000000000000000000000000000000000000000000000600052604160045260246000fd5b6000601f19601f8301169050919050565b6133768161319e565b811461338157600080fd5b50565b61338d816131b0565b811461339857600080fd5b50565b6133a4816131bc565b81146133af57600080fd5b50565b6133bb81613208565b81146133c657600080fd5b5056fea26469706673582212202f0d44294645689c98049dbec4cc0f4b2f05f9cb035c334f0e875e493022ad8d64736f6c63430008000033",
  "immutableReferences": {},
  "source": "\r\n// SPDX-License-Identifier: MIT\r\npragma solidity ^0.8.0;\r\n\r\nimport \"@openzeppelin/contracts/token/ERC721/ERC721.sol\";\r\nimport \"@openzeppelin/contracts/access/Ownable.sol\";\r\n\r\ncontract WineNFTs is ERC721, Ownable {\r\n    \r\n    \r\n    mapping (bytes32 => uint256)  id ;\r\n    mapping(uint256 => string) _tokenURIs;\r\n    \r\n    uint256 counter = 0;\r\n    \r\n    \r\n   struct RenderToken { uint256 id; string uri;}\r\n   struct Auth{uint256 ids; string  _SN;}\r\n  \r\n   //RenderToken[] public RT;\r\n   Auth[] public auths;\r\n   \r\n   address Admin_Address = msg.sender;\r\n\r\n\r\n    constructor() ERC721(\"Wine\", \"W\") {}\r\n    \r\n    //User\r\n    function setID(string memory _x) internal pure returns(bytes32 ){\r\n        return keccak256(abi.encodePacked(_x));\r\n    }\r\n    \r\n    function _setTokenURI(uint256 tokenId, string memory _tokenURI) internal {\r\n        _tokenURIs[tokenId] = _tokenURI;\r\n    }\r\n    \r\n    \r\n    function tokenURI(uint256 tokenId)\r\n    public\r\n    view\r\n    virtual\r\n    override\r\n    returns (string memory)\r\n    {\r\n        require(_exists(tokenId));\r\n        string memory _tokenURI = _tokenURIs[tokenId];\r\n        return _tokenURI;\r\n    }\r\n    \r\n    \r\n  function getAllTokens() public view onlyOwner returns(RenderToken[] memory) {\r\n        //require(msg.sender == Admin_Address, \"Ownable: caller is not the owner\");\r\n        uint256 lastestId = counter;\r\n        uint256 Counter = 0;\r\n        RenderToken[] memory res = new RenderToken[](lastestId);\r\n        for (uint256 i = 0; i <= lastestId; i++) {\r\n          if (_exists(Counter)) {\r\n            string memory uri = tokenURI(Counter);\r\n            res[Counter] = RenderToken(Counter, uri);\r\n          }\r\n          Counter++;\r\n        }\r\n        return res;\r\n    }\r\n  \r\n  function hashCompareWithLengthCheck(string memory a, string memory b) public pure returns (bool) {\r\n        if(bytes(a).length != bytes(b).length) {\r\n            return false;\r\n        } else {\r\n            return keccak256(abi.encodePacked(a)) == keccak256(abi.encodePacked(b));\r\n        }\r\n   }\r\n  \r\n  function exist(string memory _str) internal view returns(bool ){\r\n      bool setter  = false;\r\n      for(uint256 i = 0; i< auths.length; i++){\r\n          string memory _SNN = auths[i]._SN;\r\n          if(hashCompareWithLengthCheck(_str,_SNN) ){\r\n              setter = true;\r\n          }\r\n      }\r\n      \r\n      return setter;\r\n    }\r\n\r\n  function mintWineToken(string memory _SN, string memory uri) public onlyOwner returns (uint256) {\r\n        \r\n        require(exist(_SN) == false, \"token alredy minted\");\r\n        bytes32 newSN = setID(_SN);\r\n        id[newSN] = counter;\r\n        _mint(msg.sender, id[newSN]);\r\n        _setTokenURI(id[newSN], uri);\r\n        auths.push(Auth(counter, _SN));\r\n        counter++;\r\n        return id[newSN] ;\r\n    }\r\n    \r\n  function getAuth() public view onlyOwner returns(Auth[] memory){\r\n       // uint256 size = auths.length;\r\n        //require(msg.sender == Admin_Address, \"Ownable: caller is not the owner\");\r\n        return (auths);\r\n    }\r\n    \r\n}",
  "sourcePath": "C:\\Users\\Alex\\Documents\\Test\\Repos\\Dapp\\Wine_NFTs_Dapp\\contracts\\WineNFTs.sol",
  "compiler": {
    "name": "solc",
    "version": "0.8.0+commit.c7dfd78e.Emscripten.clang"
  },
  "schemaVersion": "3.4.3",
  "updatedAt": "2021-10-03T19:24:45.203Z",
  "networkType": "ethereum",
  "devdoc": {
    "kind": "dev",
    "methods": {
      "approve(address,uint256)": {
        "details": "See {IERC721-approve}."
      },
      "balanceOf(address)": {
        "details": "See {IERC721-balanceOf}."
      },
      "getApproved(uint256)": {
        "details": "See {IERC721-getApproved}."
      },
      "isApprovedForAll(address,address)": {
        "details": "See {IERC721-isApprovedForAll}."
      },
      "name()": {
        "details": "See {IERC721Metadata-name}."
      },
      "owner()": {
        "details": "Returns the address of the current owner."
      },
      "ownerOf(uint256)": {
        "details": "See {IERC721-ownerOf}."
      },
      "renounceOwnership()": {
        "details": "Leaves the contract without owner. It will not be possible to call `onlyOwner` functions anymore. Can only be called by the current owner. NOTE: Renouncing ownership will leave the contract without an owner, thereby removing any functionality that is only available to the owner."
      },
      "safeTransferFrom(address,address,uint256)": {
        "details": "See {IERC721-safeTransferFrom}."
      },
      "safeTransferFrom(address,address,uint256,bytes)": {
        "details": "See {IERC721-safeTransferFrom}."
      },
      "setApprovalForAll(address,bool)": {
        "details": "See {IERC721-setApprovalForAll}."
      },
      "supportsInterface(bytes4)": {
        "details": "See {IERC165-supportsInterface}."
      },
      "symbol()": {
        "details": "See {IERC721Metadata-symbol}."
      },
      "tokenURI(uint256)": {
        "details": "See {IERC721Metadata-tokenURI}."
      },
      "transferFrom(address,address,uint256)": {
        "details": "See {IERC721-transferFrom}."
      },
      "transferOwnership(address)": {
        "details": "Transfers ownership of the contract to a new account (`newOwner`). Can only be called by the current owner."
      }
    },
    "version": 1
  },
  "userdoc": {
    "kind": "user",
    "methods": {},
    "version": 1
  }
}